:0200000460009A
:100000004643464200000156000000000103030081
:1000100000000000000000000000000000000000E0
:1000200000000000000000000000000000000000D0
:1000300000000000000000000000000000000000C0
:1000400000000000010408000000000000000000A3
:100050000000800000000000000000000000000020
:100060000000000000000000000000000000000090
:100070000000000000000000000000000000000080
:10008000EB04180A063204260000000000000000FD
:10009000050404240000000000000000000000002F
:1000A0000000000000000000000000000000000050
:1000B0000604000000000000000000000000000036
:1000C0000000000000000000000000000000000030
:1000D00020041808000000000000000000000000DC
:1000E0000000000000000000000000000000000010
:1000F0000000000000000000000000000000000000
:10010000D8041808000000000000000000000000F3
:100110000204180804200000000000000000000095
:1001200000000000000000000000000000000000CF
:10013000600400000000000000000000000000005B
:1001400000000000000000000000000000000000AF
:10015000000000000000000000000000000000009F
:10016000000000000000000000000000000000008F
:10017000000000000000000000000000000000007F
:10018000000000000000000000000000000000006F
:10019000000000000000000000000000000000005F
:1001A000000000000000000000000000000000004F
:1001B000000000000000000000000000000000003F
:1001C000000100000010000001000000000000001D
:1001D000000001000000000000000000000000001E
:1001E000000000000000000000000000000000000F
:1001F00000000000000000000000000000000000FF
:10020000FFFFFFFFFFFFFFFFFFFFFFFFFFFFFFFFFE
:10021000FFFFFFFFFFFFFFFFFFFFFFFFFFFFFFFFEE
:10100000D100204325160060000000000000000011
:1010100020100060001000600094016000000000DB
:101020000000006000A0010000000000FFFFFFFFC3
:10103000FFFFFFFFFFFFFFFFFFFFFFFFFFFFFFFFC0
:10104000FFFFFFFFFFFFFFFFFFFFFFFFFFFFFFFFB0
:10105000FFFFFFFFFFFFFFFFFFFFFFFFFFFFFFFFA0
:10106000FFFFFFFFFFFFFFFFFFFFFFFFFFFFFFFF90
:10140000884207D0904205D251F8043B40F8043B93
:101410008242F9D8704700BF884204D2002340F8C6
:10142000043B8142FBD870472DE9884800F012F94F
:101430000824614B614AC3F8544161496148FFF790
:10144000DFFF614A61496248FFF7DAFF614962489C
:10145000FFF7E2FF614C4FF0E0214FF470000023F2
:101460005F4AC1F8880D44F823200133B02BFAD12C
:101470005C4B80215C4A03F8011B9342FBD14FF087
:10148000E0254D4E4FF08039DFF88CB1DFF88CA1AC
:101490004FF0FF31C5F8084D0027C6F80491C6F893
:1014A00000B1C6F8F490C6F8F0A0D5F8243DDFF8F6
:1014B000708143F4E0234D4AC5F8243DD8F81C3030
:1014C00023F07F0343F04003C8F81C30D8F82430E1
:1014D00023F07F0343F04003C8F824309166D166BF
:1014E0001167516700F0BEF8414B4249A363424B7C
:1014F000E36363236B610323AF612B613F4BC5F84B
:10150000203DD5F8FC3D43F08073C5F8FC3D3C4BD5
:101510001A6842F001021A605B680B6000F0E0FAA2
:10152000C6F804913748C6F800B1C6F8F490C6F87A
:10153000F0A000F085FCD8F86C10334B334A41F42E
:101540004051C8F86C101F60C3F80871C3F81871D7
:10155000C3F82871C3F83871936BDB0708D442F6DF
:1015600015632B4951651365936B43F00103936336
:10157000264A284C936843F00113936000F0EEF87C
:1015800000F012FC00F040FC00F0D8FA00F064F823
:101590002368132BFCD900F069FB2368B3F5967F11
:1015A000FBD300F05DF800F059F800F045FC00F0C6
:1015B0003FFC30BFFDE700BF00800D401825010053
:1015C0005C1F006000000000C04E002078440160F5
:1015D00000000020E0880120C04E0020004C0020C8
:1015E00045A1000000E400E0A0E400E000C00A40E3
:1015F0005DB500006888012061B500000000202072
:10160000001000E00046C3230040084000400D40A9
:101610000000C0566C8801201B1018200C0D1113FF
:1016200000C00F40074B4FF42A01074A07485A648D
:101630001864074A99639546BFF34F8FBFF36F8FC6
:10164000FFF7F2FE00C00A40BFAAAAAA07002000C6
:1016500000800620704700BF704700BF704700BF82
:1016600000BF704710B44FF0E023002110242B4836
:10167000C3F8941DC3F89C4D1124C3F8A00D28484D
:10168000C3F89C4D1224C3F8A00D2648C3F89C4D06
:10169000254AC3F8A00D254C42F015022448C3F892
:1016A0009C4DC3F8A00D234C2348C3F89C4DC3F8B0
:1016B000A00D224CC3F89C2D2148224AC3F8A04D0E
:1016C000C3F89C0DC3F8A02D02F5A0221E4C0C32CD
:1016D0001E48C3F89C4DC3F8A02D1D4AC3F89C0DAD
:1016E0001C4CC3F8A02D01221B48C3F89C4DC3F825
:1016F000A00DC3F8942DBFF34F8FBFF36F8FC3F8C6
:10170000501FBFF34F8FBFF36F8FD3F8142D5DF8C9
:10171000044B42F44032C3F8142D70473F000010D0
:101720002500080309001000E088012013002000B4
:1017300021000207140000202500081309000010F2
:101740001600202027000B1317000040180000602F
:101750002F000B07190000702F000B13F0B5B84BCA
:101760001822B84E0120B84F83B0C3F85C62B74965
:10177000C3F86072B64DC3F86462A6F53046B54C46
:10178000C3F86862C3F86C52C3F87052C3F874525D
:10179000C3F8785248F20C75DA661A675A679A6786
:1017A000DA67C3F88020C3F88420C3F88820C1F822
:1017B0002C03A94AC1F83003C1F83403C1F8380337
:1017C000C1F83C03C1F85003A169A44B0A40A448E6
:1017D000A4491343A44AA361D4F8843043F00C0312
:1017E000C4F884304FF0FF34036843F00203036011
:1017F00003682B404FF400551A439C4B0260446031
:101800008A689B4C13409B4A43F000538360C36833
:1018100023F07803C360036A134023430362036A1F
:101820001340954A2343954C43628262C262002270
:10183000D1F8B83023F03F0343F00103C0F8B830CB
:10184000D1F8BC308E4923F03F0343F00103C0F8C8
:10185000BC3040F20563026105660467C0F8803061
:10186000456644670224C0F88430036823F002030D
:1018700003608161834B8449C46143F8042B8B422C
:10188000FBD1774A136843F001031360136813F028
:101890000103FBD17A48022140F2F564906140F2E5
:1018A0009940D16140F26641C2F8004242F20144DF
:1018B000C2F810127549C2F82002C2F8301240F284
:1018C00035417348C2F83442C2F84012714CC2F834
:1018D000500242F201207049C2F854120121C2F8AC
:1018E0006042C2F864025E48C2F8A030C2F8A43078
:1018F000C2F8B0104369DA07FCD5012300244FF485
:10190000803257494361C0F8A040C0F8A420C0F815
:10191000B0304B69DB07FCD5012300244FF40030C5
:101920004F4A4B61C1F8A040C1F8A400C1F8B030E3
:101930005369DF07FCD50123002458484849536107
:10194000C2F8A040C2F8A400C2F8B0304B69DE076C
:10195000FCD5D1F8003145F60D5221209BB24861EB
:10196000934265D100244FF4802201233C48C1F802
:10197000A040C1F8A420C1F8B0304369DD07FCD510
:1019800001234FF400040021354A4361C0F8A04010
:10199000C0F8A410C0F8B0305369DC07FCD50123AF
:1019A0004FF400044FF480302D495361C2F8A04039
:1019B000C2F8A400C2F8B0304B69D807FCD50123A7
:1019C0004FF400044FF40030254A4B61C1F8A040A9
:1019D000C1F8A400C1F8B0305369D907FCD5012380
:1019E0004FF400042D481E495361C2F8A040C2F8CC
:1019F000A400C2F8B0304B69DA07FCD5D1F8003149
:101A000045F60D5221209BB24861934250D00825E3
:101A10004FF4000422490020224B234A0090157005
:101A20005A1A01232148224400F0FEF903B0F0BD08
:101A30001E4B0022C3E90022C3E9022203B0F0BD1D
:101A400000801F40F9B00100F910010000841F4020
:101A5000F970010000C00F40FFFCFF1F000300A051
:101A600000402A4000802A401200FFFFFF37F700A5
:101A70004000008000FFF07CFF000F836300020045
:101A8000F05AF05A00422A4000432A409F0418307E
:101A9000EB06180A3806180A06320126040003006D
:101AA00000000070000000709F880120E0530020BB
:101AB0004FF400044FF4802201230848C1F8A040ED
:101AC000C1F8A420C1F8B0304369DB07FCD501237D
:101AD00010254FF0807443619CE700BF00402A400E
:101AE000F0B4154A40274FF480314FF480564FF43C
:101AF00000554FF4404443F24200136913F0020FC3
:101B00000ED113F4005F0FD013F4805F0ED0002BC2
:101B1000F3DA13F4803F0BD15B060BD5F0BC7047B2
:101B2000946151619061E8E75561E6E75661E4E749
:101B30009161E2E75761E0E700800D403F4A0320F2
:101B40003F49F3EE095AD2F880304FF0000C9FED78
:101B50003D6A23F001039FED3C5A30B4C2F8803057
:101B6000C2F89000D1F8E010384DCBB2384C39486B
:101B70002B6007EE903A0B0DC1F30B21F8EEE77ADC
:101B800006EE903A07EE101A334BB8EEC77A216092
:101B9000F8EEE66A314937EEC66A37EEC55A76EE98
:101BA000C76A77EEE57A26EE266AC3ED006A25EE6F
:101BB000265AD2F8803067EEA64AC0ED007AC6EE0B
:101BC000275A274885EE276AC4EEA76A75EE875A1A
:101BD000FCEEE55A36EE076A15EE904ABCEEC66A90
:101BE00043EA045376EE877AC2F8803016EE103A54
:101BF000D2F89041FCEEE77A01EA0341214317EE67
:101C0000903AC2F89011C3F30B03D2F890110B4332
:101C10001449C2F89031D2F8803043F00203C2F880
:101C20008030114B80F840C0C1F840314FF0E023C4
:101C3000012230BCC3F80821704700BF00810D406D
:101C400000441F400000AA420000B442588801200E
:101C5000548801205C880120608801200000FF0F6B
:101C600000E400E0004C002021A30000314B40F6CE
:101C7000617210B5C3F8202140F2044400F0CCF8A2
:101C80002D4A2E49D2F880302D4843F00303C2F884
:101C900080302C4BC1F8604102681A4203D1D1F860
:101CA000A8319A071BD0254A4FF00041244B5963B5
:101CB000D2F8403143F00203C2F84031D2F840314B
:101CC0009B07FBD44FF400304FF0E0211C4B4FF04A
:101CD0000042C1F88C0219209A6300F099F8184A62
:101CE0004FF08040154C002190630A20164B116084
:101CF0004FF42072C4F8A801184600F091F84FF490
:101D0000800203464FF4810040F243111860C4F88A
:101D100058311A640D4B0E4AC4F84811C3F8042216
:101D20004FF0E0224FF400310123C2F80C11C4F847
:101D3000403110BD00800D4000C00F4000002E401B
:101D400000900D40001C1E0000000020004C0020F0
:101D500009A5000008B50E4B1B6E9B0700D4FBBE07
:101D600072B60C4B00200C4AC3F8400103F16043EB
:101D70000A49A3F55F2311649D46BFF34F8F4FF4CB
:101D800000130748074ADB6902609B68984700BF59
:101D900000441F4000002E4000C00A400300200005
:101DA00000802020000012EB104BA020104AD96EBA
:101DB00041F4403110B4D96640F23764D96E41F431
:101DC0004071D96654649064936C1B06FCD4094A34
:101DD00040F23761A02351649364936C13F0800345
:101DE000FBD1054A13705DF8044B704700C00F40EB
:101DF00000400C4000800C4099880120F8B500BFDD
:101E0000F8BC08BC9E4670475FF800F0EDB80000D3
:101E10005FF800F0859E00005FF800F079AC0000EC
:101E20005FF800F0FDCA00005FF800F055BA00004E
:101E30005FF800F09D9F00005FF800F0B5CD000056
:101E40005FF800F081B50000450000006D990000CA
:101E50001603550053004200200053006500720035
:101E6000690061006C000000180354006500650003
:101E70006E00730079006400750069006E006F00E9
:101E80000403090409026200030100C032080B00C8
:101E900002020201000904000001020201000524FF
:101EA0000010010524010101042402060524060096
:101EB000010705820310001009040100020A000056
:101EC00000070503024000000705840240000009E6
:101ED00004020002FF6AFF000705810240000107BB
:101EE000050102400001000009026200030100C078
:101EF00032080B0002020201000904000001020284
:101F0000010005240010010524010101042402063A
:101F100005240600010705820310000509040100DD
:101F2000020A000000070503020002000705840200
:101F30000002000904020002FF6AC70007058102CF
:101F40000002010705010200020100000A0600026A
:0C1F5000EF020140010000000000000052
:101F5C000000000000000000000000000000000075
:101F6C000000000000000000000000000000000065
:101F7C000548064B1B1AD90F01EBA301491002D0DF
:101F8C00034B03B118477047C04E0020C04E0020D1
:101F9C000000000008B5054B1BB105490548AFF31F
:101FAC000080BDE80840FFF7E3BF00BF0000000061
:101FBC000054012000A0016038B50D46044609F01C
:101FCC0071FD05F1100104F1100009F06BFD05F134
:101FDC00200104F1200009F065FD95F8303084F8FB
:101FEC00303095F8313084F8313038BD38B5094C83
:101FFC00094D04F1200009F0FDFC04F1100009F07A
:10200C00F9FC204609F0F6FCAC42A4F13404F0D102
:10201C0038BD00BFE48701201854012038B50446B0
:10202C0049B108460D460DF073F82368024629465F
:10203C005B68204698472046BDE8384009F09ABCBA
:10204C0010B50446203009F0D5FC04F1100009F05D
:10205C00D1FC204609F0CEFC204610BD2DE9F04FF6
:10206C008FB0CD4CCD4940F2032B01A8CC4D09F0DB
:10207C00FDFC214605A8DFF8689309F0F7FCC94977
:10208C0009A8C94F09F0F2FC40F2071301A9284630
:10209C00ADF83430FFF790FF01A8DFF848A3FFF745
:1020AC00CFFF494601A8C14E09F0E0FCC04905A884
:1020BC00DFF8348309F0DAFC394609A809F0D6FCBC
:1020CC0040F2062301A905F13400ADF83430FFF7D6
:1020DC0073FF01AA1046FFF7B3FF01AA4946104649
:1020EC0009F0C4FC05AA5146104609F0BFFC09AA28
:1020FC003946104609F0BAFC01A905F58270ADF815
:10210C0034B0FFF759FF01AADFF8E0B21046FFF731
:10211C0097FF01AA5946104609F0A8FC05AA51469A
:10212C00104609F0A3FC09AA3146104609F09EFCA2
:10213C0040F2052201A905F59C70ADF83420FFF79B
:10214C003BFF01A90846FFF77BFF9A4901A809F05C
:10215C008DFC214605A809F089FC214609A809F047
:10216C0085FC40F2031201A905F5D070ADF83420BE
:10217C00FFF722FF01A90846FFF762FF494601A8B5
:10218C0009F074FC05A908468B4909F06FFC394627
:10219C0009A809F06BFC40F2022301A905F5EA70CD
:1021AC00ADF83430FFF708FF01A8FFF749FF594697
:1021BC0001A809F05BFC814B05A8194609F056FCF7
:1021CC00314609A809F052FC4FF4817301A905F5B9
:1021DC000270ADF83430FFF7EFFE01A8FFF730FFC7
:1021EC00494601A809F042FC414605A809F03EFC0D
:1021FC00394609A809F03AFC4FF4417301A905F5D9
:10220C002970ADF83430FFF7D7FE01A8FFF718FF9F
:10221C00594601A809F02AFC414605A809F026FCFC
:10222C00314609A809F022FC40F2063E01A905F549
:10223C003670ADF834E0FFF7BFFE01A8FFF700FFE2
:10224C005F4901A809F012FC5E4905A809F00EFCD3
:10225C00214609A809F00AFC40F2022105F550704C
:10226C00ADF8341001A9FFF7A7FE01A8FFF7E8FEAF
:10227C00494601A809F0FAFB05A8534909F0F6FBF9
:10228C00394609A809F0F2FB01AA40F2052C05F524
:10229C005D701146ADF834C0FFF78EFE01A8FFF754
:1022AC00CFFE494601A809F0E1FB484905A809F011
:1022BC00DDFB394609A809F0D9FB01AA4FF4017CD2
:1022CC0005F244401146ADF834C0FFF775FE01A885
:1022DC00FFF7B6FE594601A809F0C8FB3B4905A813
:1022EC0009F0C4FB314609A809F0C0FB01AA40F271
:1022FC0006201146ADF8340005F58F60FFF75CFE43
:10230C0001AA1046FFF79CFE01AA3149104609F0BC
:10231C00ADFB05AA2146104609F0A8FB09AA2D49D8
:10232C00104609F0A3FB4FF4817201A905F59C60DE
:10233C00ADF83420FFF740FE01A8FFF781FE4946B7
:10234C0001A809F093FB05A8234909F08FFB394636
:10235C0009A809F08BFB4FF4417301A905F2145045
:10236C00ADF83430FFF728FE01A8FFF769FE4946A7
:10237C0001A840F2073909F079FB184905A809F0C2
:10238C0075FB394609A809F071FB4FF4417301A99B
:10239C0005F2E4502CE000BF7C0400207C080020F7
:1023AC001854012080080020900800209C08002070
:1023BC0088080020A0080020A4080020A8080020FD
:1023CC00B0080020B4080020B8080020C008002085
:1023DC00C8080020CC080020D0080020D808002015
:1023EC008408002094080020AC08002098080020E5
:1023FC00ADF83430FFF7E0FD01A8FFF721FE594698
:10240C0001A840F2032B09F031FBD04905A809F0D3
:10241C002DFB314609A809F029FB01A905F5C3607C
:10242C00ADF83490FFF7C8FD01A8FFF709FEC849C5
:10243C0001A840F2063909F019FB414605A809F03C
:10244C0015FB214609A809F011FB01A905F5D0607F
:10245C00ADF83490DFF82C93FFF7AEFD01A8FFF731
:10246C00EFFD494601A809F001FBBA4905A809F09E
:10247C00FDFA394609A809F0F9FA40F2062001A93B
:10248C00ADF8340005F2B460FFF796FD0DF1040EC3
:10249C007046FFF7D5FD0DF1040EAF49704609F0FB
:1024AC00E5FA0DF1140E5146704609F0DFFA0DF104
:1024BC00240EAA49704609F0D9FA01A905F5EA607B
:1024CC00ADF834B0FFF778FD0DF1040E7046FFF750
:1024DC00B7FD0DF1040E4946704609F0C7FA0DF12F
:1024EC00140E5146704609F0C1FA0DF1240E39460E
:1024FC00704609F0BBFA01A905F28470ADF834B04E
:10250C00DFF884B2FFF758FD01A8FFF799FD594693
:10251C0001A809F0ABFA514605A809F0A7FA314613
:10252C0009A809F0A3FA40F2052E01A905F5F760F8
:10253C00ADF834E0FFF740FD01A8FFF781FD8849B5
:10254C0001A809F093FA214605A809F08FFA214653
:10255C0009A809F08BFA4FF4827105F50260ADF809
:10256C00341001A9FFF728FD01A8FFF769FD4946C2
:10257C0001A809F07BFA7B4905A809F077FA3946DE
:10258C0009A809F073FA40F2022105F65400ADF8DF
:10259C00341001A9FFF710FD01A8FFF751FD5946B2
:1025AC0001A809F063FA704B05A8194609F05EFA08
:1025BC00314609A809F05AFA4FF4817201A905F6BF
:1025CC008800ADF83420FFF7F7FC01A8FFF738FDC1
:1025DC00614901A809F04AFA414605A809F046FAF2
:1025EC005E4909A809F042FA4FF4417301A905F5B7
:1025FC000F60ADF83430FFF7DFFC01A8FFF720FDCA
:10260C00494601A809F032FA414605A809F02EFA0C
:10261C00394609A809F02AFA4FF4417301A905F6C5
:10262C002410ADF83430FFF7C7FC01A8FFF708FD04
:10263C00594601A809F01AFA414605A809F016FAFC
:10264C00314609A809F012FA40F2063201A905F642
:10265C005810ADF83420FFF7AFFC01A8FFF7F0FCE1
:10266C00424901A809F002FA414905A809F0FEF90E
:10267C00214609A809F0FAF940F2022105F51C607F
:10268C00ADF8341001A9FFF797FC01A8FFF7D8FCAF
:10269C00494601A809F0EAF9364905A809F0E6F916
:1026AC00394609A809F0E2F940F2052E01A905F610
:1026BC00F410ADF834E0FFF77FFC01A8FFF7C0FC85
:1026CC00494601A809F0D2F92B4905A809F0CEF921
:1026DC00394609A809F0CAF94FF4017C01A905F69D
:1026EC00C420ADF834C0FFF767FC01A8FFF7A8FCC5
:1026FC00594601A809F0BAF91F4905A809F0B6F91D
:10270C00314609A809F0B2F940F2062001A9ADF84A
:10271C00340005F6F820FFF74FFC01A8FFF790FCFA
:10272C00164901A809F0A2F9214605A809F09EF95D
:10273C00134909A809F09AF94FF4817201A905F51A
:10274C003660ADF83420FFF737FC1FE0D8080020C6
:10275C00E008002088080020E8080020EC08002091
:10276C00F4080020A4080020A8080020F808002085
:10277C00B4080020B8080020C0080020FC08002085
:10278C00CC080020E4080020F008002001A8FFF786
:10279C0057FC494601A809F069F9CB4905A809F08D
:1027AC0065F9394609A809F061F94FF4417301A99B
:1027BC0005F69430ADF83430FFF7FEFB01A8FFF7B7
:1027CC003FFC494601A840F2073909F04FF9BF49CF
:1027DC0005A809F04BF9394609A809F047F94FF457
:1027EC00417301A905F66440ADF83430FFF7E4FB02
:1027FC0001A8FFF725FC594601A8DFF804B309F03E
:10280C0035F9B24905A809F031F9314609A809F0A2
:10281C002DF9ADF8349005F6984901A94846FFF713
:10282C00CBFB01A8FFF70CFCA94901A809F01EF984
:10283C00214605A809F01AF9A64909A809F016F9C4
:10284C004FF4837301A905F55060ADF83430FFF7F0
:10285C00B3FB01A8FFF7F4FB594601A809F006F9F0
:10286C009D4905A809F002F9394609A809F0FEF8B6
:10287C0040F2062001A9ADF8340005F63450FFF7FC
:10288C009BFB01A8FFF7DCFB594601A809F0EEF809
:10289C00514605A809F0EAF8394609A809F0E6F806
:1028AC0040F2032E01A905F60460ADF834E0FFF701
:1028BC0083FB01A8FFF7C4FB884901A809F0D6F8EF
:1028CC00514605A809F0D2F8314609A809F0CEF80E
:1028DC0040F2052E01A905F63860ADF834E0FFF79B
:1028EC006BFB01A8FFF7ACFB7D4901A809F0BEF812
:1028FC00214605A809F0BAF8214609A809F0B6F84E
:10290C0040F2031201A905F56A60ADF83420FFF717
:10291C0053FB01A8FFF794FB594601A809F0A6F850
:10292C00704905A809F0A2F8394609A809F09EF8E3
:10293C0040F2022105F6D460ADF8341001A9FFF77E
:10294C003BFB01A8FFF77CFB644901A809F08EF85A
:10295C00654B05A8194609F089F8314609A809F014
:10296C0085F84FF4817201A905F60870ADF8342092
:10297C00FFF722FB01A8FFF763FB5C4A01A8114695
:10298C0009F074F8414605A809F070F8214609A829
:10299C0009F06CF840F2033105F57760ADF83410AE
:1029AC0001A9FFF709FB01A8FFF74AFB594601A84B
:1029BC0009F05CF8414605A809F058F8394609A811
:1029CC0009F054F84FF4417301A905F6A470ADF861
:1029DC003430FFF7F1FA01A8FFF732FB3F4901A8A9
:1029EC0009F044F8414605A809F040F8314609A819
:1029FC0009F03CF840F2063201A905F6D870ADF8A2
:102A0C003420FFF7D9FA01A8FFF71AFB384901A8BF
:102A1C0009F02CF8374905A809F028F8214609A82F
:102A2C0009F024F840F2022105F58250ADF834107B
:102A3C0001A9FFF7C1FA01A8FFF702FB594601A84B
:102A4C0009F014F82C4905A809F010F8394609A822
:102A5C0009F00CF840F2052E01A909F57770ADF8D4
:102A6C0034E0FFF7A9FA01A8FFF7EAFA594601A8E2
:102A7C0008F0FCFF214905A808F0F8FF394609A821
:102A8C0008F0F4FF4FF4017C01A909F2AC40ADF859
:102A9C0034C0FFF791FA01A8FFF7D2FA0F4901A849
:102AAC0008F0E4FF154905A808F0E0FF314609A835
:102ABC0008F0DCFF40F2062001A9ADF8340009F55E
:102ACC009C60FFF779FA1DE0D0080020D8080020A0
:102ADC0000090020040900208808002010090020AB
:102AEC0014090020A4080020A808002018090020C0
:102AFC001C090020B4080020B8080020C0080020E1
:102B0C000C09002001A8FFF79BFAD14901A808F095
:102B1C00ADFF214605A808F0A9FFCE4909A808F089
:102B2C00A5FF4FF4817201A905F58F50ADF8342043
:102B3C00FFF742FA01A8FFF783FA594601A808F0FB
:102B4C0095FFC54905A808F091FF394609A808F07A
:102B5C008DFF4FF4417301A909F27C50ADF834306C
:102B6C00FFF72AFA01A8FFF76BFA594601A84FF4B0
:102B7C00837B08F07BFFB94905A808F077FF39463D
:102B8C0009AF384601AF08F071FF4FF44173394675
:102B9C0009F24C60ADF83430FFF70EFA3846FFF707
:102BAC004FFA384605AFAE4908F060FFAB493846DE
:102BBC0009AF08F05BFF3146384640F2073708F0A2
:102BCC0055FF09F5D060ADF8347001AF3946FFF709
:102BDC00F3F93846FFF734FA384605AFA14908F047
:102BEC0045FF2146384609AF08F040FF21463846DC
:102BFC009D4F08F03BFF05F59C5001ADADF834B08E
:102C0C00DFF894B22946FFF7D7F92846FFF718FAF0
:102C1C00284605AD594608F029FF9449284609ADC8
:102C2C0008F024FF3946284601AD08F01FFF40F29A
:102C3C0006202946ADF8340009F21C70FFF7BCF9E8
:102C4C002846FFF7FDF9284605AD594608F00EFF5A
:102C5C005146284609AD08F009FF3946284601AD12
:102C6C0008F004FF40F2032E294609F2EC70ADF88F
:102C7C0034E0FFF7A1F92846FFF7E2F97C49284632
:102C8C0040F2052508F0F2FE51460DF1140A5046AB
:102C9C000DF1240A08F0EAFE314650460DF1040A03
:102CAC0008F0E4FEADF8345009F502655146DFF842
:102CBC00ECA12846FFF780F901A8FFF7C1F96D498F
:102CCC0001A808F0D3FE214605A808F0CFFE214646
:102CDC0009A808F0CBFE4FF4827109F68800ADF814
:102CEC00341001A9FFF768F901A8FFF7A9F95946B3
:102CFC0001A808F0BBFE604905A808F0B7FE3946EC
:102D0C0009A808F0B3FE40F2022109F6BC00ADF8A8
:102D1C00341001A9FFF750F901A8FFF791F95449B4
:102D2C0001A808F0A3FE554B05A8194608F09EFE15
:102D3C00314609A808F09AFE4FF4817201A909F5F1
:102D4C000F60ADF83420FFF737F901A8FFF778F9D9
:102D5C004B4A01A8114608F089FE4A4905A808F01B
:102D6C0085FE214609A808F081FE40F2053301A931
:102D7C0009F65810ADF83430FFF71EF901A8FFF72B
:102D8C005FF9594601A808F071FE414605A808F004
:102D9C006DFE394609A808F069FE4FF4417301A98C
:102DAC0009F68C10ADF83430FFF706F901A8FFF7DF
:102DBC0047F92F4901A808F059FE414605A808F02B
:102DCC0055FE314609A808F051FE40F2063201A921
:102DDC0009F51C60ADF83420FFF7EEF801A8FFF7F9
:102DEC002FF9294901A808F041FE284905A808F047
:102DFC003DFE214609A808F039FE4FF4017C01A9DB
:102E0C0009F62820ADF834C0FFF7D6F801A8FFF773
:102E1C0017F9594601A808F029FE1D4905A808F024
:102E2C0025FE394609A808F021FE4FF4017C01A9C2
:102E3C0009F65C20ADF834C0FFF7BEF801A8FFF727
:102E4C00FFF8594601A808F011FE124905A827E021
:102E5C002009002024090020D0080020D8080020D8
:102E6C0010090020280900203009002088080020C3
:102E7C00380900203C090020A4080020A8080020E4
:102E8C00180900204009002048090020B40800203F
:102E9C00B8080020C00800202C0900205009002090
:102EAC0008F0E4FD394609A808F0E0FD4FF4017C78
:102EBC0001A909F62C30ADF834C0FFF77DF801A854
:102ECC00FFF7BEF8CB4901A808F0D0FDCA4905A808
:102EDC0008F0CCFD314609A808F0C8FD40F20620E8
:102EEC0001A9ADF8340009F53660FFF765F801A8C3
:102EFC00FFF7A6F8C14901A808F0B8FD214605A8BE
:102F0C0008F0B4FDBE4909A808F0B0FD4FF4817279
:102F1C0001A909F6C830ADF83420FFF74DF801A827
:102F2C00FFF78EF8594601A808F0A0FDB54905A891
:102F3C0008F09CFD394609A808F098FD4FF4417340
:102F4C0001A909F6FC30ADF83430FFF735F801A8CB
:102F5C00FFF776F8594601A8DFF8D0B208F086FDE5
:102F6C00A94905A808F082FD394609A840F20327B3
:102F7C0008F07CFD4FF4417301A909F6CC40ADF883
:102F8C003430FFF719F801A8DFF8A492FFF758F8CE
:102F9C00984901A808F06AFD9B4905A808F066FD50
:102FAC00314609A808F062FD05F59C6240F2073332
:102FBC0001A91046ADF83430FEF7FEFF01A8FFF76B
:102FCC003FF8514601A808F051FD904905A808F0BA
:102FDC004DFD214609A808F049FD40F2062001A943
:102FEC00ADF8340005F27C50FEF7E6FF01A8FFF7C0
:102FFC0027F8594601A808F039FD854905A808F0BD
:10300C0035FD214609A808F031FD01A905F5C3607D
:10301C00ADF83470FEF7D0FF01A8FFF711F8514658
:10302C0001A808F023FD7A4905A808F01FFD2146E8
:10303C0009A808F01BFD01A905F24C60ADF834702D
:10304C00FEF7BAFF01A8FEF7FBFF494601A808F0FE
:10305C000DFD6F4905A808F009FD214609A808F0E7
:10306C0005FD01A905F5D060ADF83470FEF7A4FF9D
:10307C0001A8FEF7E5FF674F674901A808F0F6FCC9
:10308C00214605A808F0F2FC394609A808F0EEFC28
:10309C004FF4817201A905F5DD60ADF83420FEF71F
:1030AC008BFF01A8FEF7CCFF5C4901A808F0DEFC01
:1030BC00214605A808F0DAFC394609A808F0D6FC28
:1030CC004FF4817201A905F5EA60ADF83420FEF7E2
:1030DC0073FF01A8FEF7B4FF594601A808F0C6FC1F
:1030EC00414605A808F0C2FC214609A808F0BEFC20
:1030FC004FF4417301A905F5F760ADF83430FEF7D4
:10310C005BFF01A8FEF79CFF514601A808F0AEFC3E
:10311C00414605A808F0AAFC214609A808F0A6FC1F
:10312C004FF4417301A905F2EC70ADF83430FEF7A1
:10313C0043FF01A8FEF784FF494601A808F096FC5E
:10314C00414605A808F092FC214609A808F08EFC1F
:10315C004FF4417301A905F50260ADF83430FEF768
:10316C002BFF01A8FEF76CFF2D4901A808F07EFC8F
:10317C002C4905A808F07AFC214609A808F076FC31
:10318C0040F2022105F68800ADF8341001A9FEF7D3
:10319C0013FF01A8FEF754FF514601A808F066FC86
:1031AC00214905A808F062FC214609A808F05EFC3C
:1031BC0040F2062001A9ADF8340005F6BC00FEF77C
:1031CC00FBFE01A8FEF73CFF594601A84FF4017B1A
:1031DC0008F04CFC084905A808F048FC214609A851
:1031EC0008F044FC0DF1040C05F65810ADF834B0A1
:1031FC0020E000BF38090020C00800204C09002046
:10320C0024090020D0080020D808002088080020BD
:10321C0094080020900800205C0900206009002020
:10322C0064090020B4080020B808002054090020CC
:10323C00580900206146FEF7BFFE0DF1040C6046F4
:10324C00FEF7FEFE0DF1040C5146604608F00EFC34
:10325C000DF1140CD749604608F008FC0DF1240C54
:10326C002146604608F002FC0DF1040C05F68C10AA
:10327C00ADF834B06146DFF868B3FEF79DFE0DF192
:10328C00040C6046FEF7DCFE0DF1040C49464FF4CD
:10329C008179604608F0EAFBC74B0DF1140C194616
:1032AC00604608F0E3FB0DF1240C2146604608F063
:1032BC00DDFB4FF4017C01A905F51C60ADF834C0B1
:1032CC00FEF77AFE01A8FEF7BBFEBC4901A808F088
:1032DC00CDFB214605A808F0C9FB394609A808F022
:1032EC00C5FB01A905F62820ADF83490FEF764FE65
:1032FC0001A8FEF7A5FE514601A808F0B7FBB0499E
:10330C0005A808F0B3FB214609A808F0AFFB40F272
:10331C00053301A905F65C20ADF83430FEF74CFE00
:10332C0001A8FEF78DFEA74901A808F09FFB2146D6
:10333C0005A808F09BFB214609A808F097FB01A9FA
:10334C0005F52960ADF83490FEF736FE01A8FEF7BE
:10335C0077FE51460DF1040ADFF8889250460DF1C4
:10336C00140A08F083FB984950460DF1240A08F022
:10337C007DFB2146504640F2053A08F077FB05F6F6
:10338C002C30ADF834A00DF1040A5146FEF714FEB2
:10339C005046FEF755FE50460DF1140A594608F0FA
:1033AC0065FB8A4950460DF1240A08F05FFB39464B
:1033BC0050460DF1040A08F059FB40F2022105F6C3
:1033CC00C830ADF834105146FEF7F6FD5046FEF706
:1033DC0037FE50460DF1140A494608F047FB7C496C
:1033EC0050460DF1240A08F041FB39465046DFF8EF
:1033FC00F8A108F03BFB40F2062001A9ADF834001F
:10340C0005F6FC30FEF7D8FD01A8FEF719FE514673
:10341C0001A808F02BFB6D4905A808F027FB3946DD
:10342C0009A808F023FB40F2022105F54360ADF832
:10343C00341001A9FEF7C0FD01A8FEF701FE5946A4
:10344C0001A808F013FB634905A808F00FFB3946E7
:10345C0009A808F00BFB40F2032E01A905F69840D1
:10346C00ADF834E0FEF7A8FD01A8FEF7E9FD4946EA
:10347C0001A808F0FBFA574905A808F0F7FA3946F5
:10348C0009A808F0F3FA40F2032E01A905F6CC4086
:10349C00ADF834E0FEF790FD01A8FEF7D1FD5146E2
:1034AC0001A808F0E3FA4B4905A808F0DFFA394601
:1034BC0009A808F0DBFA40F2032E01A905F55060CB
:1034CC00ADF834E0FEF778FD01A8FEF7B9FD4249EE
:1034DC0001A808F0CBFA214605A808F0C7FA39462E
:1034EC0009A808F0C3FA4FF4817201A905F66850D7
:1034FC00ADF83420FEF760FD01A8FEF7A1FD4946AA
:10350C0001A808F0B3FA314905A808F0AFFA39461A
:10351C0009A808F0ABFA40F2022105F69C50ADF870
:10352C00341001A9FEF748FD01A8FEF789FD2B49CF
:10353C0001A808F09BFA214605A808F097FA39462D
:10354C0009A808F093FA4FF4817201A905F55D60A2
:10355C00ADF83420FEF730FD01A8FEF771FD594699
:10356C0001A808F083FA414605A808F07FFA39460D
:10357C0009A808F07BFA4FF4417301A905F63860ED
:10358C00ADF83430FEF718FD01A8FEF759FD494699
:10359C0001A808F06BFA414605A808F067FA39460D
:1035AC0009A808F063FA4FF4417305F66C60ADF8A6
:1035BC0034301BE0C008002068090020700900208E
:1035CC00D008002074090020D8080020A40800208E
:1035DC008808002094080020840900208809002015
:1035EC00780900207C0900208009002001AB1946D5
:1035FC00FEF7E2FC01AB1846FEF722FD01AB51468B
:10360C00184608F033FA05AB41464FF4417818469A
:10361C0008F02CFA09AB3946184608F027FA01AB2A
:10362C0005F56A60ADF834801946FEF7C5FC01ABB0
:10363C001846FEF705FD01ABD849184608F016FAF6
:10364C0005ABD749184608F011FA09AB21461846C4
:10365C0008F00CFA01AB40F2022105F60870ADF847
:10366C0034101946FEF7A8FC01AB1846FEF7E8FC2F
:10367C0001AB4946184608F0F9F905ABC94918469B
:10368C0008F0F4F909AB3946184608F0EFF901AB2C
:10369C0040F2052105F63C70ADF834101946FEF7E2
:1036AC008BFC01AB1846FEF7CBFC01AB5946184618
:1036BC0008F0DCF905ABBC49184608F0D7F909ABA2
:1036CC003946184608F0D2F901AB4FF4017C05F6E7
:1036DC00D8701946ADF834C0FEF76EFC01AB184635
:1036EC00FEF7AEFC01AB4946184608F0BFF905AB36
:1036FC00AD49184608F0BAF909AB3946184608F036
:10370C00B5F905F59C6201AB4FF4017C02F62C3047
:10371C001946ADF834C0FEF74FFC01AB1846FEF766
:10372C008FFC01AB5146184608F0A0F99F4B194687
:10373C0005AB184608F09AF909AB3946184608F05B
:10374C0095F901AB4FF4017C05F582501946984D63
:10375C00ADF834C0FEF730FC01AB1846FEF770FC38
:10376C0001AB9449184608F081F905AB214618467F
:10377C0008F07CF909AB9049184608F077F901ABD1
:10378C004FF4817228461946ADF83420FEF714FC2C
:10379C0001AB1846FEF754FC01AB4946184608F03D
:1037AC0065F905AB8549184608F060F909AB39464F
:1037BC00184608F05BF901AB05F13400ADF8348024
:1037CC001946FEF7F9FB01AB1846FEF739FC01ABC5
:1037DC007B49184608F04AF905AB2146184608F013
:1037EC0045F909AB2146184608F040F901AB4FF4F6
:1037FC00817205F168001946ADF83420FEF7DCFB48
:10380C0001AB1846FEF71CFC01AB59460DF1040B3D
:10381C00184608F02BF905AB6A49184608F026F94A
:10382C0009AB3946184608F021F901AB05F1D00077
:10383C00ADF834801946FEF7BFFB01AB1846FEF716
:10384C00FFFB01AB4946DFF88C91184608F00EF9E6
:10385C0005AB5C49184608F009F909AB394618461E
:10386C0008F004F901AB05F58270ADF83480194607
:10387C00FEF7A2FB01AB1846FEF7E2FB01AB51468B
:10388C000DF1040A184608F0F1F805AB4B4918463F
:10389C0008F0ECF809AB3946184608F0E7F8514641
:1038AC0005F59C70DFF830A1ADF83480FEF784FB91
:1038BC005846DFF82881FEF7C3FB58460DF1140B70
:1038CC00514608F0D3F8404958460DF1240B08F046
:1038DC00CDF8314658460DF1040B08F0C7F840F20C
:1038EC00022105F5D070ADF834105946FEF764FB93
:1038FC005846FEF7A5FB58460DF1140B414608F04F
:10390C00B5F8324958460DF1240B08F0AFF83146A2
:10391C0058460DF1040B08F0A9F840F20620594660
:10392C00ADF8340005F5EA70FEF746FB5846FEF795
:10393C0087FB58460DF1140B514608F097F82449B3
:10394C0058460DF1240B08F091F83146584640F2D8
:10395C00032B08F08BF801AB05F51C70ADF834B0F7
:10396C001946FEF729FB01AB1846FEF769FB01ABC4
:10397C004146184608F07AF805AB1549184608F088
:10398C0075F809AB3146184608F070F801AB05F52F
:10399C002970ADF834B0194622E000BF8C09002024
:1039AC00B4080020B8080020C008002068090020D6
:1039BC00787901209009002094090020D00800207B
:1039CC0098090020D8080020A408002088080020AE
:1039DC0094080020A40900209C090020A0090020C4
:1039EC00FEF7EAFA01AB1846FEF72AFB01AB494693
:1039FC00184608F03BF805ABD649184608F036F8DF
:103A0C0009AB3946184608F031F801AB40F2052EE7
:103A1C0005F536701946ADF834E0FEF7CDFA01AB7A
:103A2C001846FEF70DFB01ABCB49184608F01EF803
:103A3C0005AB2146184608F019F809AB2146184683
:103A4C0008F014F801AB4FF4817205F5507019466B
:103A5C00ADF83420FEF7B0FA01AB1846FEF7F0FAD9
:103A6C0001AB4146184608F001F805ABBB491846B6
:103A7C0007F0FCFF09AB3146184607F0F7FF01AB26
:103A8C0040F2022105F55D70ADF834101946FEF7D1
:103A9C0093FA01AB1846FEF7D3FA01ABB0491846BE
:103AAC0007F0E4FF05AB2146184607F0DFFF09AB32
:103ABC003946184607F0DAFF01AB4FF4817205F571
:103ACC006A701946ADF83420FEF776FA01AB184649
:103ADC00FEF7B6FA51460DF1040A5046DFF8A8A2DB
:103AEC0007F0C4FF05AB5146184607F0BFFF09AB02
:103AFC003146184607F0BAFF4FF4417301A905F59A
:103B0C008260ADF83430FEF757FA01A8FEF798FA48
:103B1C00414601A807F0AAFF514605A807F0A6FFE9
:103B2C00314609A807F0A2FF4FF4417301A905F231
:103B3C004440ADF83430FEF73FFA01A8FEF780FAA6
:103B4C00494601A807F092FF514605A807F08EFFE1
:103B5C00394609A807F08AFF40F2063201A905F59B
:103B6C008F60ADF83420FEF727FA01A8FEF768FA4B
:103B7C007C4901A807F07AFF7B4A05A8114607F09B
:103B8C0075FF214609A807F071FF40F2022105F5E7
:103B9C009C60ADF8341001A9FEF70EFA01A8FEF7EF
:103BAC004FFA414601A807F061FF704B05A8194672
:103BBC0007F05CFF314609A807F058FF40F2052ECC
:103BCC0001A905F21450ADF834E0FEF7F5F901A89F
:103BDC00FEF736FA414601A807F048FF644905A8EC
:103BEC0007F044FF314609A807F040FF4FF4017C71
:103BFC0001A905F2E450ADF834C0FEF7DDF901A8D7
:103C0C00FEF71EFA494601A807F030FF584905A8EF
:103C1C0007F02CFF394609A807F028FF40F20620D0
:103C2C0001A9ADF8340005F5C360FEF7C5F901A88C
:103C3C00FEF706FA4F4901A807F018FF214605A820
:103C4C0007F014FF4C4909A807F010FF4FF48172DC
:103C5C0001A905F5D060ADF83420FEF7ADF901A847
:103C6C00FEF7EEF9414601A807F000FF434905A80D
:103C7C0007F0FCFE314609A807F0F8FE4FF441733B
:103C8C0001A905F2B460ADF83430FEF795F901A83E
:103C9C00FEF7D6F941460DF1040840460DF1140823
:103CAC0007F0E4FE364940460DF1240807F0DEFE2D
:103CBC00314640460DF1040807F0D8FE4FF441732D
:103CCC00414605F28470ADF83430FEF775F9404684
:103CDC00FEF7B6F940460DF11408494607F0C6FE4A
:103CEC00274940460DF1240807F0C0FE40F2073981
:103CFC0040460DF10408394607F0B8FE414605F57B
:103D0C00F760ADF83490FEF757F94046FEF798F996
:103D1C0040460DF114081B4907F0A8FE0F49404618
:103D2C000DF1240807F0A2FE314640460DF10408BF
:103D3C0007F09CFE40F2022105F50260DFF84C9082
:103D4C00ADF834104146FEF737F94046FEF778F9E6
:103D5C0001AB1DE094080020A8090020A408002055
:103D6C00AC090020B0090020B4080020B8080020DD
:103D7C00C0080020B4090020B8090020D008002099
:103D8C00D8080020BC090020AC080020C009002085
:103D9C004946DFF87083184607F068FE05ABCB493F
:103DAC00184607F063FE09AB4146184607F05EFE65
:103DBC0040F20620ADF8340001A8014605F6540087
:103DCC00FEF7FAF801A8FEF73BF9C14901A807F084
:103DDC004DFEC04905A807F049FE314609A807F079
:103DEC0045FE01A8ADF834B0014605F50F60FEF7AD
:103DFC00E3F801A8FEF724F9494601A807F036FEBE
:103E0C00B44905A807F032FE414609A807F02EFE7A
:103E1C0001A8ADF834B00146DFF8ECB205F6241079
:103E2C00FEF7CAF801A8FEF70BF9594601A807F0EE
:103E3C001DFEA84905A807F019FE394609A807F088
:103E4C0015FE01A840F2052E014605F65810ADF8F6
:103E5C0034E0FEF7B1F801A8FEF7F2F89E4901A88C
:103E6C0007F004FE214605A807F000FE394609A814
:103E7C0007F0FCFD01A84FF48172014605F51C60AA
:103E8C00ADF83420FEF798F801A8FEF7D9F84946AA
:103E9C0001A807F0EBFD914905A807F0E7FD4146A5
:103EAC0009A807F0E3FD40F2022105F6F410ADF885
:103EBC00341001A9FEF780F801A8FEF7C1F8884973
:103ECC0001A807F0D3FD214605A807F0CFFD214638
:103EDC0009A807F0CBFD4FF4817201A905F6282043
:103EEC00ADF83420FEF768F801A8FEF7A9F8784978
:103EFC0001A807F0BBFD514605A807F0B7FD3146F8
:103F0C0009A84FF4417607F0B1FD01A905F5296028
:103F1C00ADF83460FEF750F801A8FEF791F8494669
:103F2C0001A807F0A3FD514605A807F09FFD4146E7
:103F3C0009A807F09BFD01A905F6C420ADF8346073
:103F4C00FEF73AF801A8FEF77BF8594601A807F0EE
:103F5C008DFD514605A807F089FD394609A807F0E3
:103F6C0085FD40F2063201A905F6F820ADF83420A3
:103F7C00FEF722F801A8FEF763F85A4901A807F0EA
:103F8C0075FD594A05A8114607F070FD214609A890
:103F9C0007F06CFD40F2022201A905F53660ADF880
:103FAC003420FEF709F801A8FEF74AF8494601A8A3
:103FBC0007F05CFD4D4B05A8194607F057FD41462F
:103FCC0009A807F053FD40F2052E01A905F694301F
:103FDC00ADF834E0FDF7F0FF01A8FEF731F84946E3
:103FEC0001A807F043FD424905A807F03FFD4146F3
:103FFC0009A807F03BFD4FF4017C01A905F66440CC
:10400C00ADF834C0FDF7D8FF01A8FEF719F85946F2
:10401C0001A807F02BFD364905A807F027FD394606
:10402C0009A807F023FD40F2062301A905F69840E4
:10403C00ADF83430FDF7C0FF01A8FEF701F82D49AB
:10404C0001A807F013FD214605A84FF4417407F0B1
:10405C000DFD294909A807F009FD4FF4817301A949
:10406C0005F55060ADF83430FDF7A6FF01A8FDF75B
:10407C00E7FF494601A807F0F9FC204905A807F01D
:10408C00F5FC414609A807F0F1FC01A905F63450EE
:10409C00ADF83440FDF790FF01A8FDF7D1FF49467C
:1040AC0001A840F2073907F0E1FC154905A807F013
:1040BC00DDFC414609A807F0D9FC01A905F604600E
:1040CC00ADF83440FDF778FF01A81FE08808002008
:1040DC00BC09002094080020C8090020A408002076
:1040EC00CC090020D0090020B4080020B80800201A
:1040FC00C0080020D4090020B8090020D0080020F6
:10410C00D808002030090020C4090020FDF798FFD2
:10411C00594601A807F0AAFC0A4905A807F0A6FC15
:10412C00394609A807F0A2FC01A905F63860ADF8DC
:10413C003490FDF741FF01A8FDF782FF0FB0BDE8F9
:10414C00F08F00BFD80800200E4A4FF0844C116845
:10415C0004E013685B1AB3F5FA7F12D8DCF80000A0
:10416C0010F48050F5D04FF0844004E013685B1AD3
:10417C00B3F5FA7F04D80368DB04F7D40120704749
:10418C00002070476C8801202DE9F043002189B094
:10419C001820944D07F072FE00212820924C07F055
:1041AC006DFE00211A20914F07F068FE00211920A6
:1041BC00DFF88C9207F062FE0021292040F2EE28F5
:1041CC0007F05CFE01210C2007F058FE012127208E
:1041DC0007F054FE01211B2007F050FE0121262080
:1041EC0007F04CFE01211C2007F048FE0121252080
:1041FC0007F044FE01211D2007F040FE0121242080
:10420C0007F03CFE01211E2007F038FE012123207F
:10421C0007F034FE01211F2007F030FE012122207F
:10422C0007F02CFE0121202007F028FE012121207F
:10423C0007F024FE0121084607F020FE0121002092
:10424C0007F01CFE0121022007F018FE01211720A7
:10425C0007F014FE00210E2007F010FE00210F20A5
:10426C0007F00CFE0021102007F008FE00211120A1
:10427C0007F004FE0021122007F000FE002113209D
:10428C0007F0FCFD0021142007F0F8FD002115209B
:10429C0007F0F4FD01210B2007F0F0FD01210A20AD
:1042AC0007F0ECFD0121092007F0E8FD01210820B1
:1042BC0007F0E4FD0121072007F0E0FD01210620B5
:1042CC0007F0DCFD0121052007F0D8FD01210420B9
:1042DC0007F0D4FD0121032007F0D0FD4FF400625C
:1042EC004349444807F00AFE4FF4006242494348F0
:1042FC0007F004FE4FF400624149424807F0FEFD0E
:10430C004FF400624049414807F0F8FD4FF4006259
:10431C003F49404807F0F2FD4FF400623E493F48E8
:10432C0007F0ECFD2E6809F027F82378002B3ED01F
:10433C003B78DB073BD52B68D9F800209B1A0E2B5A
:10434C0035D941F28831364807F034FB3549684697
:10435C0007F08CFB694604A807F02EFB324904A831
:10436C0007F020FC01462E4807F0DEFA2C4807F037
:10437C0001FB04A807F03EFB684607F03BFBFFF788
:10438C00E3FE08BB29480124294B03220470462173
:10439C0028481A7008F072FF214807F0EBFA264BF8
:1043AC0000221A7009B0BDE8F043FDF757BE2B6828
:1043BC0022789B1B2AB1B3F5FA6FC2D808F0DCFF48
:1043CC00B1E74345FAD9BCE70023194A174C4621FB
:1043DC001A482370137008F051FF114807F0CAFAFD
:1043EC00DDE700BF6C880120AF880120AE8801207A
:1043FC0038130020F0230120381B0020F02B012063
:10440C0038230020F0330120382B0020F03B012012
:10441C0038330020F0430120383B0020F04B0120C2
:10442C004043002068100020901000204E490020CE
:10443C009888012098100020A6880120E010002008
:10444C007C880120214B1B7803B170474FF08442CC
:10445C0000B51368DB04FCD44FF084421368D80415
:10446C00FCD54FF084421368D904FCD54FEA135C99
:10447C00DA0A580B0CF0C00E02F02002590D42EA79
:10448C000E020CF0010E00F0100C42EA0C0200F0CF
:10449C00010CD80C00F00800024301F0040001F0FC
:1044AC0001010243C3F38140C3F380730243084804
:1044BC000270084A084882F800C00370074A084B8B
:1044CC0082F800E019705DF804FB00BF4E49002033
:1044DC009A8801209B8801209D8801209E880120BC
:1044EC009C880120B0F5806F2DE9F04F3CD3A0F5EE
:1044FC008063B3F5006F55D3A0F5406294B2B4F568
:10450C00344F31D3002900F01881B34C94F800805B
:10451C00B8F1010F40F04F81B04A4FF00108002173
:10452C001080B3F5006F11D3A0F54062B2F5A05F17
:10453C00C0F03581A0F50053B3F5804FC0F02F814A
:10454C00A0F5C043B3F5C04FC0F02981A44B0022A5
:10455C00B8F1010F1A702FD071B34FF084434FF0A4
:10456C000052C3F8842027E09E4B1A78012A06D902
:10457C009B4A01219C4B1170185CBDE8F08F964A48
:10458C0092F80080002940F0DE800021934AB0F5BB
:10459C00806F108080F01D811B78012BD6D9934B36
:1045AC001C786CE0002940F03D818B4B8B4C8C4A85
:1045BC0093F80080208011708C4B1C784CB94FF014
:1045CC0084421368DE04FCD44FF084421368DD048B
:1045DC00FCD5874E4FF0844C02238202850AC6F824
:1045EC00843002F00072DCF8001005F00C07814BEF
:1045FC0005F010050B40C10643EAC073134382005B
:10460C003B4301F0805702F4805201F000413B43E0
:10461C00CCF80030030537680CF5004C03F0005360
:10462C001A43754B3B4007041A43430507F4002E0D
:10463C0007F4802703F080531343420302F48022D3
:10464C001A43830342EA0E0203F4800332604204ED
:10465C0006F5004602F400021343DCF8002022F4B5
:10466C0044021343654A3B43CCF80030030903F082
:10467C0080032B4335682A4013430B433360604D52
:10468C004FF08442DFF884E1DFF888C15D4F5E4E65
:10469C00D4B12B78012BFBD0B8F1010F05D04FF022
:1046AC0084434FF00052C3F88820B0F5404F5DD0E2
:1046BC00B0F5806F52D3A0F58063B3F5006F47D28D
:1046CC00494B185CBDE8F08F1368D904FCD413680F
:1046DC00DB04FCD51368D904FCD54FEA135AD90A6C
:1046EC004FEA53390AF0C00B01F020010AF0010A1D
:1046FC0041EA0B0187F800A009F0100A09F0010942
:10470C0041EA0A0AD90C8CF800904FEA535901F08F
:10471C00080109F0040B09F001094AEA0101C3F38D
:10472C00814AC3F3807386F8009041EA0B012B7029
:10473C0041EA0A018EF80010ACE7284C264B208089
:10474C0093F80080F2E6B8F1010F7FF41FAF1CE77D
:10475C00A0F540639BB2B3F5344F03D2214B1B78C9
:10476C00002BADD1294B1878BDE8F08F2849274B89
:10477C000A78B2B91A78882AF5D101220A700A7817
:10478C00032AF0D11878B02818D0B12844D0B22818
:10479C0055D114480224002204700A70E3E7114B2F
:1047AC00FAE6012A0FD0022AEAD11A78882ADAD13D
:1047BC0003220A70D7E7094B1880B7E60022094894
:1047CC000A700270CFE71A78952AD8D102220A70A3
:1047DC00C9E7A0F58063A4E6A6880120888801209B
:1047EC00A188012098880120F05300204E49002018
:1047FC0000400042F3FFFF6DFFEFF3CF6FFFFF7F31
:10480C009D8801209E8801209C8801209A88012087
:10481C00A78801209B8801200C48012400220470E9
:10482C000A70A0E70A4A92F80080B8F1010F3FF431
:10483C0073AE08490022084B08801A708DE6B32825
:10484C0091D1024C0020227008708CE798880120CE
:10485C00A688012088880120A1880120B0F5404F4E
:10486C00F8B501D2774B1954B0F5806FC0F0AD801C
:10487C00A0F58063B3F5006F06D3A0F540639BB23F
:10488C00B3F5344FC0F0A1806F4B1B784BB94FF090
:10489C0084421368DF04FCD44FF084421368DE04B6
:1048AC00FCD56A4C4FF0844602234FEA902E4FEA17
:1048BC00C06CC4F888300EF00C0532680EF0100E87
:1048CC00634B1340820243EAC07302F0007213433D
:1048DC0082002B430CF0805502F480520CF0004CFB
:1048EC002B43336003052568060403F0005306F4DC
:1048FC00002706F480261343564A2A40564D13438C
:10490C00420502F080521A43430303F480231343FD
:10491C0082033B43470402F480022360030907F43B
:10492C00000003F080030243286843EA0E0320F4DE
:10493C0044000243494832432A60494A05682A40E8
:10494C00CD0743EA020343EA0C0303604FF0040370
:10495C0044D48807C4F888304FF001023B4B44D54F
:10496C004F07C3F88420394B4FF4006244D50E072F
:10497C00C3F88420354B4FF4803244D5CD06C3F8B0
:10498C008420324B4FF4003244D58C06C3F884207B
:10499C002E4B4FF4806244D54806C3F884202F4B2D
:1049AC004FF4807244D5C909C3F884202B4B4FF0C7
:1049BC00400244D0C3F88420284C2025C4F88850E9
:1049CC00FFF740FDC4F88450F8BD264B1B78022B32
:1049DC007FF65AAF244B01221A70F8BD8807C4F831
:1049EC0084304FF00102194BBAD44F07C3F888201A
:1049FC00164B4FF40062BAD40E07C3F88820134B41
:104A0C004FF48032BAD4CD06C3F888200F4B4FF444
:104A1C000032BAD48C06C3F888200C4B4FF4806259
:104A2C00BAD44806C3F888200C4B4FF48072BAD421
:104A3C00C909C3F88820094B4FF04002BAD1C3F81A
:104A4C008820B9E7F05300204E4900200040004276
:104A5C00F3FFFF6DFFEFF3CF0080004200C0004278
:104A6C006FFFFF7F98880120A1880120084A01066A
:104A7C00137807D403F07F03137028B943F00203B3
:104A8C001370704743F0800303F0FD0313707047FD
:104A9C005049002008B5044B00211B88184480B2F3
:104AAC00FFF720FD08BD00BF8C88012008B5074B1F
:104ABC0000211888013080B2FFF714FD044B80B23E
:104ACC0000211880FFF70EFD08BD00BF8C88012067
:104ADC008A88012010B50C4C00212088013080B24E
:104AEC00FFF700FD238804460021581C80B2FFF715
:104AFC00F9FC064A064B00211278A018C0B21880A7
:104B0C00FFF7F0FC10BD00BF8C880120A4880120A9
:104B1C008A88012010B50C4C00212088013080B20D
:104B2C00FFF7E0FC238804460021581C80B2FFF7F5
:104B3C00D9FC064A064B00211278A018C0B2188086
:104B4C00FFF7D0FC10BD00BF8C880120A588012088
:104B5C008A88012010B50B4C00212088013080B2CE
:104B6C00FFF7C0FC238804460021981C80B2FFF795
:104B7C00B9FC054B04EB0020002180B21880FFF734
:104B8C00B1FC10BD8C8801208A880120F8B5144C2A
:104B9C0006460021134D2388581C80B2FFF7A2FC57
:104BAC00238807460021981C80B2FFF79BFC0E4B14
:104BBC00000200211B7884B23B44234498B2288025
:104BCC00FFF790FC012E00D0F8BD2B885C4014F44C
:104BDC007F4FF9D000211846FFF784FCF8BD00BFC9
:104BEC008C8801208A880120A4880120F8B5144CF7
:104BFC0006460021134D2388581C80B2FFF772FC27
:104C0C00238807460021981C80B2FFF76BFC0E4BE3
:104C1C00000200211B7884B23B44234498B22880C4
:104C2C00FFF760FC012E00D0F8BD2B885C4014F41B
:104C3C007F4FF9D000211846FFF754FCF8BD00BF98
:104C4C008C8801208A880120A588012038B5114B59
:104C5C0000211888013080B2FFF744FC0E4B002174
:104C6C001C780444A4B22046FFF73CFC0021E0B2BF
:104C7C000134FFF737FC05460021E0B2FFF732FCA8
:104C8C00064B05EB0020002180B21880FFF72AFCB0
:104C9C0038BD00BF8C880120A48801208A8801209F
:104CAC00F8B5164B05460021154E1B88581C80B2D2
:104CBC00FFF718FC002184B220460134FFF712FCE8
:104CCC0000210746E0B2FFF70DFC0E4B000200215D
:104CDC001B7884B23B44234498B23080FFF702FC2B
:104CEC00012D00D0F8BD33885C4014F47F4FF9D00F
:104CFC0000211846FFF7F6FBF8BD00BF8C88012099
:104D0C008A880120A588012070B50C4E054600212B
:104D1C000B4C3388581C80B2FFF7E4FB338820809F
:104D2C000021981C80B2FFF7DDFB2388294603EB9A
:104D3C00002080B22080FFF791FD70BD8C8801208F
:104D4C008A88012038B50B4B044600210A4D1B887C
:104D5C00581C80B2FFF7C6FB002180B22880FFF7F9
:104D6C00C1FB064A21462B8810781844C0B2FFF7C5
:104D7C0075FD38BD8C8801208A880120A48801200B
:104D8C0038B50B4B044600210A4D1B88581C80B2C9
:104D9C00FFF7A8FB002180B22880FFF7A3FB064A8F
:104DAC0021462B8810781844C0B2FFF757FD38BD48
:104DBC008C8801208A880120A588012070B50F4DB0
:104DCC00044600210E4E2B88581C80B2FFF78AFB3C
:104DDC002B8805460021981C80B2FFF783FB094BFA
:104DEC0000211B782B4403EB002398B23080FFF793
:104DFC0079FB21463088FFF731FD70BD8C8801208E
:104E0C008A880120A4880120F8B5164C064600219A
:104E1C00154D2388581C80B2FFF764FB2388074686
:104E2C000021981C80B2FFF75DFB104B040200219F
:104E3C001B78A4B23B44234498B22880FFF752FB62
:104E4C002888444014F47F4F03D13146FFF706FD08
:104E5C00F8BD0021FFF746FB28883146FFF7FEFC22
:104E6C00F8BD00BF8C8801208A880120A58801200C
:104E7C00F8B5134B06460021124F1B88581C80B204
:104E8C00FFF730FB002185B204462846FFF72AFBCA
:104E9C003B7800211C44E0B2FFF724FB3B7804462E
:104EAC00002101331D44E8B2FFF71CFB064B04EB59
:104EBC000020314680B21880FFF7D0FCF8BD00BF4F
:104ECC008C880120A48801208A880120F8B5114B18
:104EDC0005460021104F1B88581C80B2FFF702FBBF
:104EEC00002184B220460134FFF7FCFA002106466B
:104EFC00A0B2FFF7F7FA094B00211B78334403EB00
:104F0C00002398B23880FFF7EDFA29463888FFF76E
:104F1C00A5FCF8BD8C8801208A880120A588012079
:104F2C0070B5654B2022654D02206549654CC1F872
:104F3C0084000021C3F884202888FFF7D3FA28883E
:104F4C000021013080B2FFF7CDFA2078002140F427
:104F5C008070FFF7C7FA2078002140F48070013888
:104F6C0080B2FFF7BFFA2078002140F4807002383D
:104F7C0080B2FFF7B7FA00214FF6FC70FFF7B2FAD8
:104F8C00044600214FF6FD70FFF7ACFA4E4A44EA96
:104F9C00002034214D4B80B21170B0F5806F288009
:104FAC0018807BD3A0F58063B3F5006F09D3A0F50F
:104FBC004063B3F5A84F71D3A0F5C043B3F5C04F10
:104FCC006CD3434B0021434A1B781170012B05D045
:104FDC004FF084434FF00052C3F884203E4B1B78B3
:104FEC004BB94FF084421368D904FCD44FF084427F
:104FFC001368DB04FCD5324E4FF084450223840A3F
:10500C00C106C6F884304FEA004C2A68334B0CF4C6
:10501C00002E1340820243EAC07302F00072134365
:10502C0004F00C0204F01004134301F0805201F060
:10503C000041134302052B60830002F000523568D7
:10504C0003F480531343264A2A40264D134342054A
:10505C0002F080521A43430303F480231343820368
:10506C0043EA0E0302F4800233600CF480264FEA0C
:10507C00404C03090CF4000003F080030243286841
:10508C00234320F4440002430B4832432A60164A5F
:10509C000468224013430B43036003E0134B1B785B
:1050AC00012B8ED91021124808F0E8F81148BDE800
:1050BC00704006F05FBC00BF00C000428C8801202D
:1050CC0000400042514900205049002088880120AE
:1050DC00A6880120A18801204E490020F3FFFF6D16
:1050EC00FFEFF3CF008000426FFFFF7F9888012015
:1050FC00CC0300204043002070B5674EFFF7A2F9A7
:10510C00664C00213378208823F01003644D013065
:10511C0043F0200380B23370FFF7E4F9287821883C
:10512C0040F48070090AFFF799FB28782178013840
:10513C00C0B2287040F48070FFF790FB287831786B
:10514C000138C0B2287040F48070FFF787FB2B78D1
:10515C0000214FF6FA70013B2B70FFF7C3F905469F
:10516C0000214FF6FB70FFF7BDF9337845EA0020BC
:10517C004C4A43F0340380B23370B0F5806F20801A
:10518C0010807BD3A0F58063B3F5006F09D3A0F535
:10519C004063B3F5A84F71D3A0F5C043B3F5C04F2E
:1051AC006CD3414B0021414A1B781170012B05D067
:1051BC004FF084434FF00052C3F884203C4B1B78D3
:1051CC004BB94FF084421368D904FCD44FF084429D
:1051DC001368DB04FCD5374E4FF084450223840A58
:1051EC00C106C6F884304FEA004C2A68324B0CF4E6
:1051FC00002E1340820243EAC07302F00072134384
:10520C0004F00C0204F01004134301F0805201F07E
:10521C000041134302052B60830002F000523568F5
:10522C0003F480531343254A2A40254D134342056A
:10523C0002F080521A43430303F480231343820386
:10524C0043EA0E0302F4800233600CF480264FEA2A
:10525C00404C03090CF4000003F08003024328685F
:10526C00234320F444000243164832432A60164A72
:10527C000468224013430B43036003E0134B1B7879
:10528C00012B8ED90E21124807F0F8FF1148BDE80A
:10529C00704006F06FBB00BF504900208C88012085
:1052AC005149002088880120A6880120A18801206E
:1052BC004E49002000400042F3FFFF6DFFEFF3CF9B
:1052CC000080004200C000426FFFFF7F98880120E1
:1052DC00880300204043002070B50446694EFFF758
:1052EC00B1F8012C337800F0CA8023F0100343F09E
:1052FC002003654C0021654D20883370013080B24D
:10530C00FFF7F0F82878218840F48070090AFFF73D
:10531C00A5FA287821780138C0B2287040F4807042
:10532C00FFF79CFA287831780138C0B2287040F425
:10533C008070FFF793FA2B7800214FF6FE70013B3B
:10534C002B70FFF7CFF8054600214FF6FF70FFF7E3
:10535C00C9F8337845EA00204D4A43F0340380B253
:10536C003370B0F5806F208010807BD3A0F5806304
:10537C00B3F5006F09D3A0F54063B3F5A84F71D313
:10538C00A0F5C043B3F5C04F6CD3424B0021424A49
:10539C001B781170012B05D04FF084434FF0005255
:1053AC00C3F884203D4B1B784BB94FF084421368F3
:1053BC00D904FCD44FF084421368DB04FCD5384E7E
:1053CC004FF084450223840AC106C6F884304FEAA4
:1053DC00004C2A68334B0CF4002E1340820243EA33
:1053EC00C07302F00072134304F00C0204F01004BA
:1053FC00134301F0805201F00041134302052B606E
:10540C00830002F00052356803F480531343264A9C
:10541C002A40264D1343420502F080521A4343039F
:10542C0003F480231343820343EA0E0302F4800245
:10543C0033600CF480264FEA404C03090CF4000056
:10544C0003F0800302432868234320F44400024302
:10545C00174832432A60174A0468224013430B430F
:10546C00036003E0144B1B78012B8ED90E211348DB
:10547C0007F004FF1248BDE8704006F07BBA43F019
:10548C00300336E7504900208C8801205149002018
:10549C0088880120A6880120A18801204E4900207F
:1054AC0000400042F3FFFF6DFFEFF3CF008000429E
:1054BC0000C000426FFFFF7F988801207803002016
:1054CC004043002010B5144C00212088FFF70AF847
:1054DC00124913480A7891F900305200002B0378D6
:1054EC00D2B2B4BF43F0010303F0FE030A701106FD
:1054FC000DD403F07F0303705AB943F0020309493A
:10550C002288037091F83902104480B210BD43F028
:10551C00800303F0FD03F2E78C880120A3880120AF
:10552C00504900201854012010B5114C002120883E
:10553C00FEF7D8FF0F48104902780B7812F0010FD4
:10554C004FEA520214BF43F0010303F0FE03027052
:10555C005AB903F07F0343F002030848228890F8FD
:10556C00390F0B70104480B210BD03F07D03F4E7CB
:10557C008C880120A3880120504900201854012058
:10558C0010B5154C00212088FEF7ACFF13491448C8
:10559C000B7890F800C0DA011CF0010FD2B214BFE6
:1055AC0043F0010303F0FE0342EA5C0202701006B2
:1055BC000CD403F07F035AB943F002030948228844
:1055CC0090F8B9050B70104480B210BD43F0800305
:1055DC0003F0FD03F2E700BF8C8801205049002046
:1055EC00A38801201864012010B5164C00212088D6
:1055FC00FEF778FF14481549037891F800C003F0C2
:10560C00010291F900E042EA4C02BEF1000FD2B265
:10561C00B4BF43F0010303F0FE030A7011060CD46F
:10562C0003F07F035AB943F002030949228803703F
:10563C0091F8B908104480B210BD43F0800303F018
:10564C00FD03F2E78C88012050490020A38801203B
:10565C001854012070B52F4C2F49227891F800C0B6
:10566C00160732D502F0010E0CF00F0300F00F05F7
:10567C0073442B44092B23D84FF0000E0CF0F0058B
:10568C0000F0F0063544AE44BEF1900F38D802F06D
:10569C00FE027344DBB24FFA8CFC4FFA80FEBCF175
:1056AC00000FD8B220DBBEF1000F1ADB1D061FD491
:1056BC0002F0BF0208702270BDE87040FFF7D6B947
:1056CC000A3B4FF0100E9BB2D8E702F001030344E3
:1056DC0063449BB2FF2B8CBF42F0010202F0FE022E
:1056EC00D9E7BCF1000FE3DA63EA0E031B06DFD443
:1056FC0042F0400208702270BDE87040FFF7B6B966
:10570C00AEF1A00E22F001021FFA8EFE42F0010251
:10571C00BFE700BF50490020A388012010B5084CFA
:10572C0000212088013080B2FEF7DCFE80B2FFF74A
:10573C0091FF044A238892F88505184480B210BD65
:10574C008C8801201864012010B50B4C0021208896
:10575C00013080B2FEF7C6FE084B80B200211880E3
:10576C00FEF7C0FE80B2FFF775FF054A238892F85A
:10577C00B504184480B210BD8C8801208A880120A1
:10578C001864012008B5FFF7A5F980B2FFF762FF96
:10579C00034A044B92F8F5071B88184480B208BDE5
:1057AC00186401208C88012008B5FFF7D3F980B26A
:1057BC00FFF750FF034A044B92F855061B88184418
:1057CC0080B208BD186401208C88012008B5012026
:1057DC00FFF7DCF980B2FFF73DFF044A044B92F867
:1057EC0095091B88184480B208BD00BF18640120BD
:1057FC008C88012008B50120FFF7F8F980B2FFF77B
:10580C0029FF044A044B92F8C5081B88184480B23F
:10581C0008BD00BF186401208C88012008B5FFF773
:10582C0015FA80B2FFF716FF034A044B92F8E50312
:10583C001B88184480B208BD186401208C88012094
:10584C0008B50120FFF72CFA80B2FFF703FF044ADA
:10585C00044B92F825071B88184480B208BD00BF82
:10586C00186401208C88012070B5324C32492378A1
:10587C00DA431E0702F0010239D500F00F0C91F843
:10588C0000E062440EF00F0CACEB020C1FFA8CFC27
:10589C00BCF1090F25D800250EF0F00200F0F0063F
:1058AC00921B521B92B2902A3FD823F0010343F073
:1058BC00010394445FFA8CFC4FFA8EFE42B2BEF1A7
:1058CC00000F5FFA8CF024DB002A1FDA1CF0800F2B
:1058DC0023D103F0BF0308702370BDE87040FFF7BD
:1058EC00C5B80CF10A0C10251FFA8CFCD4E791F802
:1058FC0000E0AEEB000CACEB020215041FFA82FCCC
:10590C0054BF43F0010303F0FE03D5E7BEF1000FD3
:10591C00DFDA42EA0C021206DBD443F040030870D3
:10592C002370BDE87040FFF7A1B8A03203F0FE036E
:10593C0092B2BEE750490020A388012010B5084C54
:10594C0000212088013080B2FEF7CCFD80B2FFF739
:10595C008BFF044A238892F8850F184480B210BD3F
:10596C008C8801201874012010B50B4C0021208864
:10597C00013080B2FEF7B6FD084B80B200211880D2
:10598C00FEF7B0FD80B2FFF76FFF054A238892F84F
:10599C00B50E184480B210BD8C8801208A88012075
:1059AC001874012008B5FFF795F880B2FFF75CFF7B
:1059BC00034A044B92F8F5011B88184480B208BDC9
:1059CC00188401208C88012008B5FFF7C3F880B239
:1059DC00FFF74AFF034A044B92F855001B88184402
:1059EC0080B208BD188401208C88012008B50120E4
:1059FC00FFF7CCF880B2FFF737FF044A044B92F85C
:105A0C0095031B88184480B208BD00BF1884012080
:105A1C008C88012008B50120FFF7E8F880B2FFF769
:105A2C0023FF044A044B92F8C5021B88184480B229
:105A3C0008BD00BF188401208C88012008B5FFF731
:105A4C0005F980B2FFF710FF034A044B92F8E50DFD
:105A5C001B88184480B208BD187401208C88012062
:105A6C0008B50120FFF71CF980B2FFF7FDFE044AD0
:105A7C00044B92F825011B88184480B208BD00BF66
:105A8C00188401208C88012010B5074C0021208837
:105A9C00013080B2FEF726FD044A238892F8B90F34
:105AAC00184480B210BD00BF8C88012018740120EE
:105ABC0010B5094C00212088013080B2FEF712FD90
:105ACC00064A07481378218890F8110523F0010342
:105ADC000844137080B210BD8C88012050490020FE
:105AEC001854012010B5094C00212088013080B2D7
:105AFC00FEF7F8FC064A07481378218890F8110C39
:105B0C0023F008030844137080B210BD8C88012068
:105B1C00504900201874012010B5094C0021208830
:105B2C00013080B2FEF7DEFC064A07481378218864
:105B3C0090F8110223F004030844137080B210BDD6
:105B4C008C880120504900201864012010B5094CA4
:105B5C0000212088013080B2FEF7C4FC064A0748B9
:105B6C001378218890F8910523F0400308441370B2
:105B7C0080B210BD8C88012050490020187401207F
:105B8C0010B5094C00212088013080B2FEF7AAFC28
:105B9C00064A07481378218890F8910B43F00103CB
:105BAC000844137080B210BD8C880120504900202D
:105BBC001854012010B5094C00212088013080B206
:105BCC00FEF790FC064A07481378218890F8910854
:105BDC0043F004030844137080B210BD8C8801207C
:105BEC00504900201864012010B5094C0021208870
:105BFC00013080B2FEF776FC064A074813782188FC
:105C0C0090F8910243F008030844137080B210BD61
:105C1C008C880120504900201884012010B5114CAB
:105C2C0000212088013080B2FEF75CFC0E4A0F493F
:105C3C001378013BDBB2180613700A780DD402F00E
:105C4C007F020A705BB942F002020948238890F87F
:105C5C0039090A70184480B210BD42F0800202F07B
:105C6C00FD02F2E78C880120A48801205049002015
:105C7C001874012010B5114C00212088013080B21D
:105C8C00FEF730FC0E4A0F491378013BDBB21806C5
:105C9C0013700A780DD402F07F020A705BB942F0DF
:105CAC0002020948238890F8D10B0A70184480B27C
:105CBC0010BD42F0800202F0FD02F2E78C88012058
:105CCC00A5880120504900201864012010B5114C02
:105CDC0000212088013080B2FEF704FC0E4A0F49E7
:105CEC0013780133DBB2180613700A780DD402F066
:105CFC007F020A705BB942F002020948238890F8CF
:105D0C00510F0A70184480B210BD42F0800202F0AC
:105D1C00FD02F2E78C880120A48801205049002064
:105D2C001874012010B5114C00212088013080B26C
:105D3C00FEF7D8FB0E4A0F4913780133DBB2180675
:105D4C0013700A780DD402F07F020A705BB942F02E
:105D5C0002020948238890F8D1080A70184480B2CE
:105D6C0010BD42F0800202F0FD02F2E78C880120A7
:105D7C00A5880120504900201874012010B5114C41
:105D8C0000212088013080B2FEF7ACFB0E4A0F4B8D
:105D9C0011780F4A0806197013780DD403F07F039D
:105DAC00137059B943F002030A48218890F8B902DC
:105DBC001370084480B210BD43F0800303F0FD0360
:105DCC00F2E700BF8C880120A3880120A488012061
:105DDC00504900201874012010B5114C0021208866
:105DEC00013080B2FEF77EFB0E4A0F4B11780F4A42
:105DFC000806197013780DD403F07F03137059B98A
:105E0C0043F002030A48218890F8510213700844A9
:105E1C0080B210BD43F0800303F0FD03F2E700BF36
:105E2C008C880120A3880120A588012050490020DE
:105E3C001874012010B5114C00212088013080B25B
:105E4C00FEF750FB0E4A0F4B11780F4A08061970DB
:105E5C0013780DD403F07F03137059B943F0020388
:105E6C000A48218890F8F9051370084480B210BDD7
:105E7C0043F0800303F0FD03F2E700BF8C880120A0
:105E8C0051490020A4880120504900201874012099
:105E9C0010B5114C00212088013080B2FEF722FB96
:105EAC000E4A0F4B11780F4A0806197013780DD44F
:105EBC0003F07F03137059B943F002030A48218899
:105ECC0090F8390C1370084480B210BD43F0800375
:105EDC0003F0FD03F2E700BF8C880120A4880120A9
:105EEC00A3880120504900201864012010B5094CEA
:105EFC0000212088013080B2FEF7F4FA064B21888D
:105F0C0093F8790F054A064B0844127880B21A7040
:105F1C0010BD00BF8C88012018640120A4880120CA
:105F2C005149002010B5114C00212088013080B25D
:105F3C00FEF7D8FA0E4A0F4B11780F4A0806197063
:105F4C0013780DD403F07F03137059B943F0020397
:105F5C000A48218890F8110F1370084480B210BDC4
:105F6C0043F0800303F0FD03F2E700BF8C880120AF
:105F7C00A5880120A3880120504900201864012025
:105F8C0038B50D4D00210D4C2888013080B2FEF73C
:105F9C00A9FA0B4B2078197840F4807041F030014D
:105FAC00FEF75CFC074923782A8891F8D101013B64
:105FBC001044237080B238BD8C88012051490020D8
:105FCC00504900201854012038B50C4D00210C4CC0
:105FDC002888013080B2FEF785FA2078094B40F40E
:105FEC0080701978FEF73AFC074923782A8891F8D3
:105FFC00D10E013B1044237080B238BD8C88012037
:10600C0051490020A38801201854012038B5114DA6
:10601C000021114C2888013080B2FEF763FA2078F9
:10602C00002140F48070FEF75DFA237800210133E3
:10603C00DBB243F480702370FEF754FA074B2A88C6
:10604C0040F03000064993F851380870981880B227
:10605C0038BD00BF8C880120514900201854012004
:10606C005049002038B5184C0021184D20880130BB
:10607C0080B2FEF737FA2878002140F48070FEF7E2
:10608C0031FA2B7800210133DBB243F480702B7092
:10609C00FEF728FA0E4B0F4A0106187013780DD430
:1060AC0003F07F03137058B943F002030A482188A8
:1060BC0090F851051370084480B238BD43F080034A
:1060CC0003F0FD03F2E700BF8C880120514900204A
:1060DC00A3880120504900201864012010B5114CF0
:1060EC0000212088013080B2FEF7FCF90E4B1A78A3
:1060FC0010400E4A0106187013780DD403F07F037C
:10610C00137058B943F002030948218890F88508A8
:10611C001370084480B210BD43F0800303F0FD03FC
:10612C00F2E700BF8C880120A38801205049002091
:10613C001854012010B5144C00212088013080B275
:10614C00FEF7D0F9114B80B200211880FEF7CAF986
:10615C000F4B1A7810400F4A0106187013780DD4A3
:10616C0003F07F03137058B943F002030A482188E7
:10617C0090F8B5071370084480B210BD43F080034B
:10618C0003F0FD03F2E700BF8C8801208A88012010
:10619C00A3880120504900201854012008B5FEF7AF
:1061AC0099FC0E4B1A7810400D4A010618701378A2
:1061BC000ED403F07F03137060B943F00203094956
:1061CC000948137090F8F50A0B88184480B208BD82
:1061DC0043F0800303F0FD03F1E700BFA388012027
:1061EC00504900208C8801201854012008B5FEF776
:1061FC00B1FC0E4B1A7810400D4A0106187013783A
:10620C000ED403F07F03137060B943F00203094905
:10621C000948137090F855090B88184480B208BDD2
:10622C0043F0800303F0FD03F1E700BFA3880120D6
:10623C00504900208C8801201854012008B50120F9
:10624C00FEF7A4FC0D4B1A7810400D4A010618708D
:10625C0013780ED403F07F03137060B943F002037C
:10626C0008490948137090F8950C0B88184480B2B3
:10627C0008BD43F0800303F0FD03F1E7A388012080
:10628C00504900208C8801201854012008B50120A9
:10629C00FEF7ACFC0D4B1A7810400D4A0106187035
:1062AC0013780ED403F07F03137060B943F002032C
:1062BC0008490948137090F8C50B0B88184480B234
:1062CC0008BD43F0800303F0FD03F1E7A388012030
:1062DC00504900208C8801201854012008B5FEF785
:1062EC00B5FC0E4B1A7810400D4A01061870137845
:1062FC000ED403F07F03137060B943F00203094915
:10630C000948137090F8E5060B88184480B208BD54
:10631C0043F0800303F0FD03F1E700BFA3880120E5
:10632C00504900208C8801201854012008B5012008
:10633C00FEF7B6FC0D4B1A7810400D4A010618708A
:10634C0013780ED403F07F03137060B943F002038B
:10635C0008490948137090F8250A0B88184480B234
:10636C0008BD43F0800303F0FD03F1E7A38801208F
:10637C00504900208C8801201854012010B5114C74
:10638C0000212088013080B2FEF7ACF80E4B1A7851
:10639C0010430E4AC0B20106187013780DD403F0E6
:1063AC007F03137058B943F002030948218890F811
:1063BC0005021370084480B210BD43F0800303F053
:1063CC00FD03F2E78C880120A388012050490020AE
:1063DC001854012010B5144C00212088013080B2D3
:1063EC00FEF780F8114B80B200211880FEF77AF886
:1063FC000F4B1A7810430F4AC0B20106187013786D
:10640C000DD403F07F03137058B943F002030A480C
:10641C00218890F835011370084480B210BD43F008
:10642C00800303F0FD03F2E78C8801208A880120A9
:10643C00A3880120504900201854012008B5FEF70C
:10644C0049FB0E4B1A7810430D4AC0B20106187066
:10645C0013780ED403F07F03137060B943F002037A
:10646C0008490948137090F875040B88184480B2D9
:10647C0008BD43F0800303F0FD03F1E7A38801207E
:10648C00504900208C8801201854012008B5FEF7D3
:10649C0061FB0E4B1A7810430D4AC0B201061870FE
:1064AC0013780ED403F07F03137060B943F002032A
:1064BC0008490948137090F8D5020B88184480B22B
:1064CC0008BD43F0800303F0FD03F1E7A38801202E
:1064DC00504900208C8801201854012008B5012057
:1064EC00FEF754FB0E4B1A7810430E4AC0B201064D
:1064FC00187013780ED403F07F03137060B943F057
:10650C00020309490948137090F815060B881844C2
:10651C0080B208BD43F0800303F0FD03F1E700BF38
:10652C00A3880120504900208C8801201854012098
:10653C0008B50120FEF75AFB0E4B1A7810430E4A91
:10654C00C0B20106187013780ED403F07F031370D9
:10655C0060B943F0020309490948137090F84505E6
:10656C000B88184480B208BD43F0800303F0FD0390
:10657C00F1E700BFA3880120504900208C8801203E
:10658C001854012008B5FEF761FB0E4B1A78104326
:10659C000D4AC0B20106187013780ED403F07F03B5
:1065AC00137060B943F0020308490948137090F85E
:1065BC0065000B88184480B208BD43F0800303F0DB
:1065CC00FD03F1E7A3880120504900208C880120AD
:1065DC001854012008B50120FEF762FB0E4B1A7807
:1065EC0010430E4AC0B20106187013780ED403F093
:1065FC007F03137060B943F0020309490948137013
:10660C0090F8A5030B88184480B208BD43F08003B2
:10661C0003F0FD03F1E700BFA388012050490020DF
:10662C008C8801201854012010B5124C00212088B0
:10663C00013080B2FDF756FF0F4A117881EA000352
:10664C00DBB2137013F0800F0C4A137814BF43F0B5
:10665C00800303F07F0381420948218890F8050FDD
:10666C000CBF43F0020303F0FD030844137080B227
:10667C0010BD00BF8C880120A38801205049002048
:10668C001854012010B5154C00212088013080B21F
:10669C00FDF728FF124B80B200211880FDF722FF76
:1066AC00104A117881EA0003DBB2137013F0800FEB
:1066BC000D4A137814BF43F0800303F07F0381422B
:1066CC000A48218890F8350E0CBF43F0020303F002
:1066DC00FD030844137080B210BD00BF8C880120EC
:1066EC008A880120A38801205049002018540120D9
:1066FC0008B5FEF7EFF90F4A117880EA0103DBB217
:10670C00137013F0800F0C4A137814BF43F08003FE
:10671C0003F07F038842094909480CBF43F0020388
:10672C0003F0FD0390F8750113700B88184480B2C8
:10673C0008BD00BFA3880120504900208C8801208F
:10674C001864012008B5FEF705FA0F4A117880EAA3
:10675C000103DBB2137013F0800F0C4A137814BFD3
:10676C0043F0800303F07F038842094909480CBFBA
:10677C0043F0020303F0FD0390F8D50F13700B8860
:10678C00184480B208BD00BFA388012050490020E6
:10679C008C8801201854012008B50120FEF7F6F969
:1067AC000E4A117880EA0103DBB2137013F0800FEC
:1067BC000B4A137814BF43F0800303F07F03884225
:1067CC00084909480CBF43F0020303F0FD0390F89D
:1067DC00150313700B88184480B208BDA3880120E0
:1067EC00504900208C8801201864012008B5012034
:1067FC00FEF7FCF90E4A117880EA0103DBB2137044
:10680C0013F0800F0B4A137814BF43F0800303F08E
:10681C007F038842084909480CBF43F0020303F088
:10682C00FD0390F8450213700B88184480B208BD24
:10683C00A3880120504900208C8801201864012075
:10684C0008B5FEF703FA0F4A117880EA0103DBB2B0
:10685C00137013F0800F0C4A137814BF43F08003AD
:10686C0003F07F038842094909480CBF43F0020337
:10687C0003F0FD0390F8650D13700B88184480B27B
:10688C0008BD00BFA3880120504900208C8801203E
:10689C001854012008B50120FEF702FA0E4A1178AF
:1068AC0080EA0103DBB2137013F0800F0B4A1378EC
:1068BC0014BF43F0800303F07F0388420849094862
:1068CC000CBF43F0020303F0FD0390F8A500137016
:1068DC000B88184480B208BDA388012050490020C1
:1068EC008C8801201864012010B5104C00212088E0
:1068FC00013080B2FDF7F6FD0D4B0E4A0106187003
:10690C0013780DD403F07F03137058B943F00203CE
:10691C000948218890F885021370084480B210BD94
:10692C0043F0800303F0FD03F2E700BF8C880120E5
:10693C00A3880120504900201874012010B5134C75
:10694C0000212088013080B2FDF7CCFD104B80B2C5
:10695C0000211880FDF7C6FD0E4B01060E4A18707B
:10696C0013780DD403F07F03137058B943F002036E
:10697C000A48218890F8B5011370084480B210BD04
:10698C0043F0800303F0FD03F2E700BF8C88012085
:10699C008A880120A3880120504900201874012006
:1069AC0008B5FEF797F80D4B0D4A010618701378D1
:1069BC000ED403F07F03137060B943F0020309494E
:1069CC000948137090F8F5040B88184480B208BD80
:1069DC0043F0800303F0FD03F1E700BFA38801201F
:1069EC00504900208C8801201874012008B5FEF74E
:1069FC00B1F80D4B0D4A0106187013780ED403F044
:106A0C007F03137060B943F00203094909481370FE
:106A1C0090F855030B88184480B208BD43F08003EE
:106A2C0003F0FD03F1E700BFA388012050490020CB
:106A3C008C8801201874012008B50120FEF7A6F8F7
:106A4C000C4B0D4A0106187013780ED403F07F031B
:106A5C00137060B943F0020308490948137090F8A9
:106A6C0095060B88184480B208BD43F0800303F0F0
:106A7C00FD03F1E7A3880120504900208C880120F8
:106A8C001874012008B50120FEF7B0F80C4B0D4A24
:106A9C000106187013780ED403F07F03137060B9DD
:106AAC0043F0020308490948137090F8C5050B8898
:106ABC00184480B208BD43F0800303F0FD03F1E7F6
:106ACC00A3880120504900208C88012018740120D3
:106ADC0008B5FEF7BBF80D4B0D4A0106187013787C
:106AEC000ED403F07F03137060B943F0020309491D
:106AFC000948137090F8E5000B88184480B208BD63
:106B0C0043F0800303F0FD03F1E700BFA3880120ED
:106B1C00504900208C8801201874012008B50120F0
:106B2C00FEF7BEF80C4B0D4A0106187013780ED404
:106B3C0003F07F03137060B943F00203084909485E
:106B4C00137090F825040B88184480B208BD43F0EC
:106B5C00800303F0FD03F1E7A388012050490020D6
:106B6C008C8801201874012010B5104C002120884D
:106B7C00013080B2FDF7B6FC0D4B0E4A01061870C1
:106B8C0013780DD403F07F03137058B943F002034C
:106B9C000948218890F819011370084480B210BD7F
:106BAC0043F0800303F0FD03F2E700BF8C88012063
:106BBC00A4880120504900201874012010B5134CF2
:106BCC0000212088013080B2FDF78CFC104B80B284
:106BDC0000211880FDF786FC0E4B01060E4A18703A
:106BEC0013780DD403F07F03137058B943F00203EC
:106BFC000A48218890F8E9011370084480B210BD4E
:106C0C0043F0800303F0FD03F2E700BF8C88012002
:106C1C008A880120A4880120504900201874012082
:106C2C0008B5FDF777FF0D4B0D4A01061870137868
:106C3C000ED403F07F03137060B943F002030949CB
