:0200000460009A
:100000004643464200000156000000000103030081
:1000100000000000000000000000000000000000E0
:1000200000000000000000000000000000000000D0
:1000300000000000000000000000000000000000C0
:1000400000000000010408000000000000000000A3
:100050000000800000000000000000000000000020
:100060000000000000000000000000000000000090
:100070000000000000000000000000000000000080
:10008000EB04180A063204260000000000000000FD
:10009000050404240000000000000000000000002F
:1000A0000000000000000000000000000000000050
:1000B0000604000000000000000000000000000036
:1000C0000000000000000000000000000000000030
:1000D00020041808000000000000000000000000DC
:1000E0000000000000000000000000000000000010
:1000F0000000000000000000000000000000000000
:10010000D8041808000000000000000000000000F3
:100110000204180804200000000000000000000095
:1001200000000000000000000000000000000000CF
:10013000600400000000000000000000000000005B
:1001400000000000000000000000000000000000AF
:10015000000000000000000000000000000000009F
:10016000000000000000000000000000000000008F
:10017000000000000000000000000000000000007F
:10018000000000000000000000000000000000006F
:10019000000000000000000000000000000000005F
:1001A000000000000000000000000000000000004F
:1001B000000000000000000000000000000000003F
:1001C000000100000010000001000000000000001D
:1001D000000001000000000000000000000000001E
:1001E000000000000000000000000000000000000F
:1001F00000000000000000000000000000000000FF
:10020000FFFFFFFFFFFFFFFFFFFFFFFFFFFFFFFFFE
:10021000FFFFFFFFFFFFFFFFFFFFFFFFFFFFFFFFEE
:10100000D100204325160060000000000000000011
:10101000201000600010006000600160000000000F
:1010200000000060006C010000000000FFFFFFFFF7
:10103000FFFFFFFFFFFFFFFFFFFFFFFFFFFFFFFFC0
:10104000FFFFFFFFFFFFFFFFFFFFFFFFFFFFFFFFB0
:10105000FFFFFFFFFFFFFFFFFFFFFFFFFFFFFFFFA0
:10106000FFFFFFFFFFFFFFFFFFFFFFFFFFFFFFFF90
:10140000884207D0904205D251F8043B40F8043B93
:101410008242F9D8704700BF884204D2002340F8C6
:10142000043B8142FBD870472DE9884800F012F94F
:101430000824614B614AC3F8544161496148FFF790
:10144000DFFF614A61496248FFF7DAFF614962489C
:10145000FFF7E2FF614C4FF0E0214FF470000023F2
:101460005F4AC1F8880D44F823200133B02BFAD12C
:101470005C4B80215C4A03F8011B9342FBD14FF087
:10148000E0254D4E4FF08039DFF88CB1DFF88CA1AC
:101490004FF0FF31C5F8084D0027C6F80491C6F893
:1014A00000B1C6F8F490C6F8F0A0D5F8243DDFF8F6
:1014B000708143F4E0234D4AC5F8243DD8F81C3030
:1014C00023F07F0343F04003C8F81C30D8F82430E1
:1014D00023F07F0343F04003C8F824309166D166BF
:1014E0001167516700F0BEF8414B4249A363424B7C
:1014F000E36363236B610323AF612B613F4BC5F84B
:10150000203DD5F8FC3D43F08073C5F8FC3D3C4BD5
:101510001A6842F001021A605B680B6000F0E0FAA2
:10152000C6F804913748C6F800B1C6F8F490C6F87A
:10153000F0A000F06DFCD8F86C10334B334A41F446
:101540004051C8F86C101F60C3F80871C3F81871D7
:10155000C3F82871C3F83871936BDB0708D442F6DF
:1015600015632B4951651365936B43F00103936336
:10157000264A284C936843F00113936000F0EEF87C
:1015800000F012FC00F048FC00F0D8FA00F064F81B
:101590002368132BFCD900F069FB2368B3F5967F11
:1015A000FBD300F05DF800F059F800F041FC00F0CA
:1015B0003BFC30BFFDE700BF00800D4058F5000048
:1015C0005C1F006000000000C04A0020B8140160E9
:1015D00000000020E0500120C04A00200048002008
:1015E0006D71000000E400E0A0E400E000C00A40EB
:1015F00085850000685001208985000000002020BA
:10160000001000E00046C3230040084000400D40A9
:101610000000C0566C5001201B1018200C0D111337
:1016200000C00F40074B4FF42A01074A07485A648D
:101630001864074A99639546BFF34F8FBFF36F8FC6
:10164000FFF7F2FE00C00A40AFAAAAAA07002000D6
:1016500000000720704700BF704700BF704700BF01
:1016600000BF704710B44FF0E023002110242B4836
:10167000C3F8941DC3F89C4D1124C3F8A00D28484D
:10168000C3F89C4D1224C3F8A00D2648C3F89C4D06
:10169000254AC3F8A00D254C42F015022448C3F892
:1016A0009C4DC3F8A00D234C2348C3F89C4DC3F8B0
:1016B000A00D224CC3F89C2D2148224AC3F8A04D0E
:1016C000C3F89C0DC3F8A02D02F5A0221E4C0C32CD
:1016D0001E48C3F89C4DC3F8A02D1D4AC3F89C0DAD
:1016E0001C4CC3F8A02D01221B48C3F89C4DC3F825
:1016F000A00DC3F8942DBFF34F8FBFF36F8FC3F8C6
:10170000501FBFF34F8FBFF36F8FD3F8142D5DF8C9
:10171000044B42F44032C3F8142D70473F000010D0
:101720002500080309001000E050012013002000EC
:1017300021000207140000202500081309000010F2
:101740001600202027000B1317000040180000602F
:101750002F000B07190000702F000B13F0B5B84BCA
:101760001822B84E0120B84F83B0C3F85C62B74965
:10177000C3F86072B64DC3F86462A6F53046B54C46
:10178000C3F86862C3F86C52C3F87052C3F874525D
:10179000C3F8785248F20C75DA661A675A679A6786
:1017A000DA67C3F88020C3F88420C3F88820C1F822
:1017B0002C03A94AC1F83003C1F83403C1F8380337
:1017C000C1F83C03C1F85003A169A44B0A40A448E6
:1017D000A4491343A44AA361D4F8843043F00C0312
:1017E000C4F884304FF0FF34036843F00203036011
:1017F00003682B404FF400551A439C4B0260446031
:101800008A689B4C13409B4A43F000538360C36833
:1018100023F07803C360036A134023430362036A1F
:101820001340954A2343954C43628262C262002270
:10183000D1F8B83023F03F0343F00103C0F8B830CB
:10184000D1F8BC308E4923F03F0343F00103C0F8C8
:10185000BC3040F20563026105660467C0F8803061
:10186000456644670224C0F88430036823F002030D
:1018700003608161834B8449C46143F8042B8B422C
:10188000FBD1774A136843F001031360136813F028
:101890000103FBD17A48022140F2F564906140F2E5
:1018A0009940D16140F26641C2F8004242F20144DF
:1018B000C2F810127549C2F82002C2F8301240F284
:1018C00035417348C2F83442C2F84012714CC2F834
:1018D000500242F201207049C2F854120121C2F8AC
:1018E0006042C2F864025E48C2F8A030C2F8A43078
:1018F000C2F8B0104369DA07FCD5012300244FF485
:10190000803257494361C0F8A040C0F8A420C0F815
:10191000B0304B69DB07FCD5012300244FF40030C5
:101920004F4A4B61C1F8A040C1F8A400C1F8B030E3
:101930005369DF07FCD50123002458484849536107
:10194000C2F8A040C2F8A400C2F8B0304B69DE076C
:10195000FCD5D1F8003145F60D5221209BB24861EB
:10196000934265D100244FF4802201233C48C1F802
:10197000A040C1F8A420C1F8B0304369DD07FCD510
:1019800001234FF400040021354A4361C0F8A04010
:10199000C0F8A410C0F8B0305369DC07FCD50123AF
:1019A0004FF400044FF480302D495361C2F8A04039
:1019B000C2F8A400C2F8B0304B69D807FCD50123A7
:1019C0004FF400044FF40030254A4B61C1F8A040A9
:1019D000C1F8A400C1F8B0305369D907FCD5012380
:1019E0004FF400042D481E495361C2F8A040C2F8CC
:1019F000A400C2F8B0304B69DA07FCD5D1F8003149
:101A000045F60D5221209BB24861934250D00825E3
:101A10004FF4000422490020224B234A0090157005
:101A20005A1A01232148224400F0FAF903B0F0BD0C
:101A30001E4B0022C3E90022C3E9022203B0F0BD1D
:101A400000801F40F9B00100F910010000841F4020
:101A5000F970010000C00F40FFFCFF1F000300A051
:101A600000402A4000802A401200FFFFFF37F700A5
:101A70004000008000FFF07CFF000F836300020045
:101A8000F05AF05A00422A4000432A409F0418307E
:101A9000EB06180A3806180A06320126040003006D
:101AA00000000070000000709F500120E04F0020F7
:101AB0004FF400044FF4802201230848C1F8A040ED
:101AC000C1F8A420C1F8B0304369DB07FCD501237D
:101AD00010254FF0807443619CE700BF00402A400E
:101AE000F0B4154A40274FF480314FF480564FF43C
:101AF00000554FF4404443F24200136913F0020FC3
:101B00000ED113F4005F0FD013F4805F0ED0002BC2
:101B1000F3DA13F4803F0BD15B060BD5F0BC7047B2
:101B2000946151619061E8E75561E6E75661E4E749
:101B30009161E2E75761E0E700800D403F4A0320F2
:101B40003F49F3EE095AD2F880304FF0000C9FED78
:101B50003D6A23F001039FED3C5A30B4C2F8803057
:101B6000C2F89000D1F8E010384DCBB2384C39486B
:101B70002B6007EE903A0B0DC1F30B21F8EEE77ADC
:101B800006EE903A07EE101A334BB8EEC77A216092
:101B9000F8EEE66A314937EEC66A37EEC55A76EE98
:101BA000C76A77EEE57A26EE266AC3ED006A25EE6F
:101BB000265AD2F8803067EEA64AC0ED007AC6EE0B
:101BC000275A274885EE276AC4EEA76A75EE875A1A
:101BD000FCEEE55A36EE076A15EE904ABCEEC66A90
:101BE00043EA045376EE877AC2F8803016EE103A54
:101BF000D2F89041FCEEE77A01EA0341214317EE67
:101C0000903AC2F89011C3F30B03D2F890110B4332
:101C10001449C2F89031D2F8803043F00203C2F880
:101C20008030114B80F840C0C1F840314FF0E023C4
:101C3000012230BCC3F80821704700BF00810D406D
:101C400000441F400000AA420000B4425850012046
:101C5000545001205C500120605001200000FF0F13
:101C600000E400E00048002049730000314B40F6DA
:101C7000617210B5C3F8202140F2044400F0C4F8AA
:101C80002D4A2E49D2F880302D4843F00303C2F884
:101C900080302C4BC1F8604102681A4203D1D1F860
:101CA000A8319A071BD0254A4FF00041244B5963B5
:101CB000D2F8403143F00203C2F84031D2F840314B
:101CC0009B07FBD44FF400304FF0E0211C4B4FF04A
:101CD0000042C1F88C0219209A6300F0B1F8184A4A
:101CE0004FF08040154C002190630A20164B116084
:101CF0004FF42072C4F8A801184600F09DF84FF484
:101D0000800203464FF4810040F243111860C4F88A
:101D100058311A640D4B0E4AC4F84811C3F8042216
:101D20004FF0E0224FF400310123C2F80C11C4F847
:101D3000403110BD00800D4000C00F4000002E401B
:101D400000900D40001C1E000000002000480020F4
:101D50003175000008B50E4B1B6E9B0700D4FBBE0F
:101D600072B60C4B00200C4AC3F8400103F16043EB
:101D70000A49A3F55F2311649D46BFF34F8F4FF4CB
:101D800000130748074ADB6902609B68984700BF59
:101D900000441F4000002E4000C00A400300200005
:101DA00000802020000012EB104BA020104AD96EBA
:101DB00041F4403110B4D96640F23764D96E41F431
:101DC0004071D96654649064936C1B06FCD4094A34
:101DD00040F23761A02351649364936C13F0800345
:101DE000FBD1054A13705DF8044B704700C00F40EB
:101DF00000400C4000800C4099500120F8B500BF15
:101E0000F8BC08BC9E4670475FF800F0A17C00005B
:101E10005FF800F0A98500005FF800F01589000068
:101E20005FF800F07D8A00005FF800F0C56F0000E9
:101E30005FF800F0DD9D00005FF800F0259B0000DA
:101E40005FF800F0AD6E000045000000CD690000B5
:101E50001603550053004200200053006500720035
:101E6000690061006C000000180354006500650003
:101E70006E00730079006400750069006E006F00E9
:101E80000403090409026200030100C032080B00C8
:101E900002020201000904000001020201000524FF
:101EA0000010010524010101042402060524060096
:101EB000010705820310001009040100020A000056
:101EC00000070503024000000705840240000009E6
:101ED00004020002FF6AFF000705810240000107BB
:101EE000050102400001000009026200030100C078
:101EF00032080B0002020201000904000001020284
:101F0000010005240010010524010101042402063A
:101F100005240600010705820310000509040100DD
:101F2000020A000000070503020002000705840200
:101F30000002000904020002FF6AC70007058102CF
:101F40000002010705010200020100000A0600026A
:0C1F5000EF020140010000000000000052
:101F5C000000000000000000000000000000000075
:101F6C000000000000000000000000000000000065
:101F7C000548064B1B1AD90F01EBA301491002D0DF
:101F8C00034B03B118477047C04A0020C04A0020D9
:101F9C000000000008B5054B1BB105490548AFF31F
:101FAC000080BDE80840FFF7E3BF00BF0000000061
:101FBC0000500120006C016038B5044649B1084658
:101FCC000D460AF0C5F82368024629465B68204690
:101FDC0098472046BDE8384006F0E0BC0E4A4FF06A
:101FEC00844C116804E013685B1AB3F5FA7F12D8BD
:101FFC00DCF8000010F48050F5D04FF0844004E081
:10200C0013685B1AB3F5FA7F04D80368DB04F7D4C2
:10201C0001207047002070476C5001202DE9F043DF
:10202C00002189B01820934D06F03CFF0021282098
:10203C00914C06F037FF00211A20904F06F032FF2A
:10204C0000211920DFF8889206F02CFF00212920AE
:10205C0040F2EE2806F026FF01210C2006F022FFAC
:10206C000121272006F01EFF01211B2006F01AFF7C
:10207C000121262006F016FF01211C2006F012FF7C
:10208C000121252006F00EFF01211D2006F00AFF7C
:10209C000121242006F006FF01211E2006F002FF7C
:1020AC000121232006F0FEFE01211F2006F0FAFE7E
:1020BC000121222006F0F6FE0121202006F0F2FE7E
:1020CC000121212006F0EEFE0121084606F0EAFE71
:1020DC000121002006F0E6FE0121022006F0E2FEBE
:1020EC000121172006F0DEFE00210E2006F0DAFE9C
:1020FC0000210F2006F0D6FE0021102006F0D2FEA3
:10210C000021112006F0CEFE0021122006F0CAFE9E
:10211C000021132006F0C6FE0021142006F0C2FE9A
:10212C000021152006F0BEFE01210B2006F0BAFEA0
:10213C0001210A2006F0B6FE0121092006F0B2FEAC
:10214C000121082006F0AEFE0121072006F0AAFEB0
:10215C000121062006F0A6FE0121052006F0A2FEB4
:10216C000121042006F09EFE0121032006F09AFEB8
:10217C004FF400624249434806F0D4FE4FF400622B
:10218C004149424806F0CEFE4FF4006240494148B6
:10219C0006F0C8FE4FF400623F49404806F0C2FE0C
:1021AC004FF400623E493F4806F0BCFE4FF400621B
:1021BC003D493E4806F0B6FE2E6808F0F1F823784B
:1021CC00002B3CD03B78DB0739D52B68D9F80020A5
:1021DC009B1A0E2B33D941F28831354806F0FEFBA1
:1021EC003449684606F056FC694604A806F0F8FB2C
:1021FC00314904A806F0EAFC01462D4806F0A8FB7C
:10220C002B4806F0CBFB04A806F008FC684606F049
:10221C0005FCFFF7E3FEF8B928480124284B0322FC
:10222C000470462127481A7008F03CF8204806F044
:10223C00B5FB254B00221A7009B0BDE8F0832B6862
:10224C0022789B1B2AB1B3F5FA6FC4D808F0A8F812
:10225C00B3E74345FAD9BEE70023194A174C462188
:10226C001A482370137008F01DF8114806F096FBFD
:10227C00DFE700BF6C500120AF500120AE500120B1
:10228C00A8110020F01F0120A8190020F027012020
:10229C00A8210020F02F0120A8290020F0370120D0
:1022AC00A8310020F03F0120A8390020F047012080
:1022BC00B0410020D80E0020000F0020BE470020A7
:1022CC0098500120080F0020A6500120500F00202C
:1022DC007C500120214B1B7803B170474FF0844296
:1022EC0000B51368DB04FCD44FF084421368D804A7
:1022FC00FCD54FF084421368D904FCD54FEA135C2B
:10230C00DA0A580B0CF0C00E02F02002590D42EA0A
:10231C000E020CF0010E00F0100C42EA0C0200F060
:10232C00010CD80C00F00800024301F0040001F08D
:10233C0001010243C3F38140C3F380730243084895
:10234C000270084A084882F800C00370074A084B1C
:10235C0082F800E019705DF804FB00BFBE47002056
:10236C009A5001209B5001209D5001209E5001202D
:10237C009C500120B0F5806F2DE9F04F3CD3A0F5B7
:10238C008063B3F5006F55D3A0F5406294B2B4F5F9
:10239C00344F31D3002900F01881B34C94F80080ED
:1023AC00B8F1010F40F04F81B04A4FF00108002105
:1023BC001080B3F5006F11D3A0F54062B2F5A05FA9
:1023CC00C0F03581A0F50053B3F5804FC0F02F81DC
:1023DC00A0F5C043B3F5C04FC0F02981A44B002237
:1023EC00B8F1010F1A702FD071B34FF084434FF036
:1023FC000052C3F8842027E09E4B1A78012A06D994
:10240C009B4A01219C4B1170185CBDE8F08F964AD9
:10241C0092F80080002940F0DE800021934AB0F54C
:10242C00806F108080F01D811B78012BD6D9934BC7
:10243C001C786CE0002940F03D818B4B8B4C8C4A16
:10244C0093F80080208011708C4B1C784CB94FF0A5
:10245C0084421368DE04FCD44FF084421368DD041C
:10246C00FCD5874E4FF0844C02238202850AC6F8B5
:10247C00843002F00072DCF8001005F00C07814B80
:10248C0005F010050B40C10643EAC07313438200EC
:10249C003B4301F0805702F4805201F000413B4372
:1024AC00CCF80030030537680CF5004C03F00053F2
:1024BC001A43754B3B4007041A43430507F4002E9F
:1024CC0007F4802703F080531343420302F4802265
:1024DC001A43830342EA0E0203F48003326042047F
:1024EC0006F5004602F400021343DCF8002022F447
:1024FC0044021343654A3B43CCF80030030903F014
:10250C0080032B4335682A4013430B433360604DE3
:10251C004FF08442DFF884E1DFF888C15D4F5E4EF6
:10252C00D4B12B78012BFBD0B8F1010F05D04FF0B3
:10253C0084434FF00052C3F88820B0F5404F5DD073
:10254C00B0F5806F52D3A0F58063B3F5006F47D21E
:10255C00494B185CBDE8F08F1368D904FCD41368A0
:10256C00DB04FCD51368D904FCD54FEA135AD90AFD
:10257C004FEA53390AF0C00B01F020010AF0010AAE
:10258C0041EA0B0187F800A009F0100A09F00109D3
:10259C0041EA0A0AD90C8CF800904FEA535901F021
:1025AC00080109F0040B09F001094AEA0101C3F31F
:1025BC00814AC3F3807386F8009041EA0B012B70BB
:1025CC0041EA0A018EF80010ACE7284C264B20801B
:1025DC0093F80080F2E6B8F1010F7FF41FAF1CE70F
:1025EC00A0F540639BB2B3F5344F03D2214B1B785B
:1025FC00002BADD1294B1878BDE8F08F2849274B1B
:10260C000A78B2B91A78882AF5D101220A700A78A8
:10261C00032AF0D11878B02818D0B12844D0B228A9
:10262C0055D114480224002204700A70E3E7114BC0
:10263C00FAE6012A0FD0022AEAD11A78882ADAD1CE
:10264C0003220A70D7E7094B1880B7E60022094825
:10265C000A700270CFE71A78952AD8D102220A7034
:10266C00C9E7A0F58063A4E6A6500120885001209C
:10267C00A150012098500120F04F0020BE470020AF
:10268C0000400042F3FFFF6DFFEFF3CF6FFFFF7FC2
:10269C009D5001209E5001209C5001209A500120F9
:1026AC00A75001209B5001200C48012400220470EB
:1026BC000A70A0E70A4A92F80080B8F1010F3FF4C3
:1026CC0073AE08490022084B08801A708DE6B328B7
:1026DC0091D1024C0020227008708CE79850012098
:1026EC00A650012088500120A1500120B0F5404F88
:1026FC0001D2984B1954B0F5806FC0F0ED80A0F565
:10270C008063B3F5006F06D3A0F540639BB2B3F5BD
:10271C00344FC0F0E180904B2DE9F0411C784CB95E
:10272C004FF084421368DD04FCD44FF084421368EC
:10273C00DB04FCD5894D02234FF084478202C5F897
:10274C0088304FEA902E3E6802F00072844B4FEABC
:10275C00C06C33400EF00C060EF0100E43EAC07342
:10276C001343820033430CF0805602F480520CF079
:10277C00004C33433B6003052E68070403F0005301
:10278C0007F400281A43774B3340774E1A4343051E
:10279C0003F080531343420302F480221A43830351
:1027AC0042EA080203F480032A6007F480224704FB
:1027BC00000907F4000700F080003B43376840EA4B
:1027CC000E0027F4440ECF0743EA0E0343EA02033C
:1027DC00664A3360664B166803EA060340EA030058
:1027EC004FF0040340EA0C0010607ED48E07C5F84D
:1027FC0088304FF00102594B7ED54D07C3F8842029
:10280C00564B4FF400627ED50807C3F88420534B17
:10281C004FF480327ED5CF06C3F884204F4B4FF453
:10282C0000327ED58E06C3F884204C4B4FF4806268
:10283C007ED54D06C3F884204C4B4FF480727ED568
:10284C00C909C3F88420494B4FF040027ED0C3F82D
:10285C008420464B2022C3F88820002C36D14FF020
:10286C0084421368DC04FCD44FF084421368D8040F
:10287C00FCD54FF084421368D904FCD51C0DDA0A40
:10288C00580B04F0C00502F02002590D2A4304F045
:10289C00010500F01004224300F00104D80C00F0F4
:1028AC000800024301F0040001F001010243C3F3EC
:1028BC008140C3F3807302432E4802702E4A2F4886
:1028CC00147003702E4A2F4B15701970274B202251
:1028DC00C3F88420BDE8F0812B4B1B78022B7FF6CC
:1028EC001AAF2A4B01221A7070478E07C5F8843034
:1028FC004FF00102194B80D44D07C3F88820174BB9
:10290C004FF4006280D40807C3F88820134B4FF4AF
:10291C00803280D4CF06C3F88820104B4FF400329D
:10292C0080D48E06C3F888200C4B4FF4806280D480
:10293C004D06C3F888200D4B4FF4807280D4C90922
:10294C00C3F88820094B4FF0400280D1C3F888208F
:10295C007FE700BFF04F0020BE4700200040004240
:10296C00F3FFFF6DFFEFF3CF0080004200C0004289
:10297C006FFFFF7F9A5001209B5001209D5001203A
:10298C009E5001209C50012098500120A150012004
:10299C0008B5044B00211888013080B21880FFF76D
:1029AC00E9FC08BD8C50012008B5074B00211888A4
:1029BC00013080B21880FFF7DDFC044B80B200219F
:1029CC001880FFF7D7FC08BD8C5001208A500120DD
:1029DC0010B50C4C00212088013080B22080FFF70C
:1029EC00C9FC238804460021581C80B2FFF7C2FCA6
:1029FC00054A064B00211278A018C0B21880FFF7C8
:102A0C00B9FC10BD8C500120A45001208A5001202B
:102A1C0010B50C4C00212088013080B22080FFF7CB
:102A2C00A9FC238804460021581C80B2FFF7A2FCA5
:102A3C00054A064B00211278A018C0B21880FFF787
:102A4C0099FC10BD8C500120A55001208A5001200A
:102A5C0038B50C4D00212888013080B22880FFF752
:102A6C0089FC2B8804460021581C80B22880FFF773
:102A7C0081FC04EB0020044B002180B21880FFF78E
:102A8C0079FC38BD8C5001208A500120F8B5154CCA
:102A9C0005460021144E2388013398B22080FFF79D
:102AAC0069FC238807460021013398B22080FFF788
:102ABC0061FC0E4B040200211B78A4B23B4423445E
:102ACC0098B23080FFF756FC012D00D0F8BD33884A
:102ADC005C4014F47F4FF9D000211846FFF74AFCF4
:102AEC00F8BD00BF8C5001208A500120A450012059
:102AFC00F8B5154C05460021144E2388013398B2C5
:102B0C002080FFF737FC238807460021013398B259
:102B1C002080FFF72FFC0E4B040200211B78A4B27F
:102B2C003B44234498B23080FFF724FC012D00D0A5
:102B3C00F8BD33885C4014F47F4FF9D0002118465F
:102B4C00FFF718FCF8BD00BF8C5001208A50012003
:102B5C00A550012038B5114B00211888013080B2E6
:102B6C001880FFF707FC0E4B00211C780444A4B21C
:102B7C002046FFF7FFFB0021E0B20134FFF7FAFB20
:102B8C0005460021E0B2FFF7F5FB064B05EB0020F4
:102B9C00002180B21880FFF7EDFB38BD8C5001206E
:102BAC00A45001208A500120164A0021F8B5138840
:102BBC000546154E013398B21080FFF7DBFB84B24B
:102BCC00002120460134FFF7D5FB00210746E0B277
:102BDC00FFF7D0FB0D4B000200211B7884B23B4465
:102BEC00234498B23080FFF7C5FB012D00D0F8BD0F
:102BFC0033885C4014F47F4FF9D000211846FFF75E
:102C0C00B9FBF8BD8C5001208A500120A550012041
:102C1C00084A00211388013310B5044698B210807D
:102C2C00FFF7A8FB044B80B221461880FFF75EFD2E
:102C3C0010BD00BF8C5001208A50012070B50D4D85
:102C4C00064600210C4C2B88013398B22880FFF7E4
:102C5C0091FB2B8800212080013398B22880FFF74C
:102C6C0089FB2388314603EB002080B22080FFF7DC
:102C7C003DFD70BD8C5001208A5001200C4A002172
:102C8C0038B5138804460B4D013398B21080FFF70A
:102C9C0071FB80B200212880FFF76CFB064A2146AD
:102CAC002B8810781844C0B2FFF720FD38BD00BF48
:102CBC008C5001208A500120A45001200C4A002184
:102CCC0038B5138804460B4D013398B21080FFF7CA
:102CDC0051FB80B200212880FFF74CFB064A2146AD
:102CEC002B8810781844C0B2FFF700FD38BD00BF28
:102CFC008C5001208A500120A550012070B5104D38
:102D0C00044600212B88013398B22880FFF732FB50
:102D1C002B8806460021013398B22880FFF72AFB46
:102D2C00084B0021084D1B78334403EB002398B269
:102D3C002880FFF71FFB21462888FFF7D7FC70BDC2
:102D4C008C500120A45001208A500120F8B5174C5A
:102D5C0005460021164E2388581C80B22080FFF7B0
:102D6C0009FB238807460021013398B22080FFF726
:102D7C0001FB104B040200211B78A4B23B442344FA
:102D8C0098B23080FFF7F6FA3088444014F47F4F45
:102D9C0003D12946FFF7AAFCF8BD0021FFF7EAFA98
:102DAC0030882946FFF7A2FCF8BD00BF8C500120EB
:102DBC008A500120A5500120134A0021F8B5138830
:102DCC000646124F013398B21080FFF7D3FA85B242
:102DDC00002104462846FFF7CDFA3B7800211C441D
:102DEC00E0B2FFF7C7FA3B78044600210133E8183C
:102DFC00C0B2FFF7BFFA064B04EB0020314680B29D
:102E0C001880FFF773FCF8BD8C500120A4500120F2
:102E1C008A500120124A0021F8B513880546114F3B
:102E2C00013398B21080FFF7A5FA84B20021204636
:102E3C000134FFF79FFA00210646A0B2FFF79AFA79
:102E4C00094B00211B78334403EB002398B23880E4
:102E5C00FFF790FA29463888FFF748FCF8BD00BF09
:102E6C008C5001208A500120A550012070B5654B73
:102E7C002022654D02206549654CC1F88400002173
:102E8C00C3F884202888FFF775FA288800210130C0
:102E9C0080B2FFF76FFA2078002140F48070FFF7C2
:102EAC0069FA2078002140F48070013880B2FFF775
:102EBC0061FA2078002140F48070023880B2FFF76C
:102ECC0059FA00214FF6FC70FFF754FA0446002122
:102EDC004FF6FD70FFF74EFA4E4A44EA00203421BB
:102EEC004D4B80B21170B0F5806F288018807BD369
:102EFC00A0F58063B3F5006F09D3A0F54063B3F57B
:102F0C00A84F71D3A0F5C043B3F5C04F6CD3434B5E
:102F1C000021434A1B781170012B05D04FF08443DC
:102F2C004FF00052C3F884203E4B1B784BB94FF046
:102F3C0084421368D904FCD44FF084421368DB0438
:102F4C00FCD5324E4FF084450223840AC106C6F8E4
:102F5C0084304FEA004C2A68334B0CF4002E13409B
:102F6C00820243EAC07302F00072134304F00C02B5
:102F7C0004F01004134301F0805201F0004113439C
:102F8C0002052B60830002F00052356803F4805375
:102F9C001343264A2A40264D1343420502F0805221
:102FAC001A43430303F480231343820343EA0E03BF
:102FBC0002F4800233600CF480264FEA404C030983
:102FCC000CF4000003F0800302432868234320F430
:102FDC00440002430B4832432A60164A04682240DC
:102FEC0013430B43036003E0134B1B78012B8ED967
:102FFC001021124807F056F91148BDE8704005F051
:10300C00CDBC00BF00C000428C50012000400042EB
:10301C00C1470020C047002088500120A650012045
:10302C00A1500120BE470020F3FFFF6DFFEFF3CF4F
:10303C00008000426FFFFF7F98500120CC030020DE
:10304C00B0410020F8B5834C2378002B00F0C980E8
:10305C00814E0021814D3378288823F01003804F56
:10306C00013043F0200380B23370FFF783F93878D6
:10307C00298840F48070090AFFF738FB38782978E2
:10308C000138C0B2387040F48070FFF72FFB3878ED
:10309C0031780138C0B2387040F48070FFF726FBED
:1030AC003B7800214FF6FA70013B3B70FFF762F959
:1030BC00074600214FF6FB70FFF75CF9694A47EAB7
:1030CC00002083B21380B3F5806F32782B8042F0EE
:1030DC003402327078D3A3F58062B2F5006F09D355
:1030EC00A3F54062B2F5A84F6ED3A3F5C042B2F57A
:1030FC00C04F69D35C4A00205C4912780870012AE1
:10310C0005D04FF084424FF00051C2F88410227861
:10311C004AB94FF084410A68D004FCD44FF0844182
:10312C000A68D204FCD5524E4FF0844502229C0A08
:10313C00D806C6F884201F0429684E4A07F4002CD0
:10314C000A40990242EAC37201F000710A4304F08A
:10315C000C0104F010040A4300F0805100F0004010
:10316C000A4319052A609A0001F00051356802F4EF
:10317C0080520A4340492940404D0A43590501F009
:10318C0080510A43590301F4802111439A0341EA07
:10319C000C0102F4800231605E041B0907F48021EB
:1031AC0006F4000603F08003324323432C6824F416
:1031BC00440422430A4332492A60324A0C682240B2
:1031CC00134303430B6003E02F4A1278012A91D971
:1031DC000E212E4807F066F82D48BDE8F84005F0A2
:1031EC00DDBB4FF084421368DF04FCD44FF0844203
:1031FC001368DE04FCD54FF084421368DD04FCD563
:10320C00180DDA0A5D0B00F0C00602F02002590D11
:10321C0000F00100324305F01006324305F00106C0
:10322C00DD0C05F008052A4301F0040501F001014D
:10323C002A43C3F38145C3F380732A43154D2A7087
:10324C00154A1670154A1370154A164B10701970E2
:10325C00FEE600BFBE470020C04700208C50012076
:10326C00C147002088500120A6500120A150012008
:10327C0000400042F3FFFF6DFFEFF3CF00800042F0
:10328C0000C000426FFFFF7F985001208803002090
:10329C00B04100209A5001209B5001209D500120EC
:1032AC009E5001209C500120F8B58C4C2378002BAB
:1032BC0000F0CC808A4E0128337800F00C8123F08A
:1032CC00100343F02003874D0021874F288833706B
:1032DC00013080B2FFF74EF83878298840F48070BE
:1032EC00090AFFF703FA387829780138C0B2387028
:1032FC0040F48070FFF7FAF9387831780138C0B2B1
:10330C00387040F48070FFF7F1F93B7800214FF6EC
:10331C00FE70013B3B70FFF72DF8074600214FF67E
:10332C00FF70FFF727F8714A47EA002083B2138039
:10333C00B3F5806F32782B8042F03402327078D340
:10334C00A3F58062B2F5006F09D3A3F54062B2F524
:10335C00A84F6ED3A3F5C042B2F5C04F69D3644AEF
:10336C000020644912780870012A05D04FF084427D
:10337C004FF00051C2F8841022784AB94FF08441C2
:10338C000A68D004FCD44FF084410A68D204FCD5FE
:10339C00594E4FF0844502229C0AD806C6F8842068
:1033AC001F042968554A07F4002C0A40990242EA86
:1033BC00C37201F000710A4304F00C0104F0100414
:1033CC000A4300F0805100F000400A4319052A60BE
:1033DC009A0001F00051356802F480520A434849C2
:1033EC002940484D0A43590501F080510A435903BD
:1033FC0001F4802111439A0341EA0C0102F480028A
:10340C0031605E041B0907F4802106F4000603F00A
:10341C008003324323432C6824F4440422430A439C
:10342C0039492A60394A0C682240134303430B6024
:10343C0003E0374A1278012A91D90E21354806F05B
:10344C0031FF3548BDE8F84005F0A8BA4FF084428A
:10345C001368DF04FCD44FF084421368DE04FCD5FF
:10346C004FF084421368DD04FCD51D0D01284FEA92
:10347C00D3224FEA533605F0C00702F020024FEA80
:10348C00535105F0010542EA070206F0100742EA23
:10349C00070206F001074FEAD34606F0080642EA97
:1034AC00060201F0040601F0010142EA0602C3F330
:1034BC008146C3F3807342EA0602184E3270184AF2
:1034CC00074E1770174A1370174B1D70174B197056
:1034DC0033787FF4F4AE43F03003F4E6BE470020BB
:1034EC00C04700208C500120C1470020885001208B
:1034FC00A6500120A150012000400042F3FFFF6DB7
:10350C00FFEFF3CF0080004200C000426FFFFF7F4F
:10351C009850012078030020B04100209A500120DF
:10352C009B5001209D5001209E5001209C50012059
:10353C0008B5124B00211888FEF71CFF10491148E2
:10354C000A7891F900305200002B0378D2B2B4BF44
:10355C0043F0010303F0FE030A70110607D403F0D5
:10356C007F0303702AB943F00203037008BD43F0D4
:10357C00800303F0FD03037008BD00BF8C500120D5
:10358C00A3500120C047002008B50F4B002118881C
:10359C00FEF7F0FE0D480E4902780B7812F0010F81
:1035AC004FEA520214BF43F0010303F0FE03027012
:1035BC002AB903F07F0343F002030B7008BD03F03C
:1035CC007D030B7008BD00BF8C500120A35001205F
:1035DC00C047002008B5124B00211888FEF7CAFE20
:1035EC00104911480B7890F800C0DA011CF0010F5B
:1035FC00D2B214BF43F0010303F0FE0342EA5C02B3
:10360C000270100606D403F07F032AB943F00203BC
:10361C000B7008BD43F0800303F0FD030B7008BD75
:10362C008C500120C0470020A350012008B5144B3A
:10363C0000211888FEF79EFE12481349037891F872
:10364C0000C003F0010291F900E042EA4C02BEF125
:10365C00000FD2B2B4BF43F0010303F0FE030A70B3
:10366C00110606D403F07F032AB943F0020303705A
:10367C0008BD43F0800303F0FD03037008BD00BFD9
:10368C008C500120C0470020A3500120374970B551
:10369C000B78374C1A0794F800C032D503F0010EA2
:1036AC000CF00F0200F00F0572442A44092A23D8AB
:1036BC004FF0000E0CF0F00500F0F0063544AE446F
:1036CC00BEF1900F38D803F0FE037244D2B24FFA19
:1036DC008CFC40B2BCF1000FD5B225DB002820DBFE
:1036EC00160632D403F0BF03257003F07F03A5B98F
:1036FC0043F002030B7070BD0A3A4FF0100E92B2F9
:10370C00D8E703F001020244624492B2FF2A8CBF54
:10371C0043F0010303F0FE03D9E703F0FD030B7044
:10372C0070BDBCF1000F16DA002814DA120618D49A
:10373C0043F040032570D8E7AEF1A00E23F001034F
:10374C001FFA8EFE43F00103BFE743F040032570E0
:10375C0043F08003CBE7100603F0BF032570C4D5FC
:10376C00F6E703F0BF032570F2E700BFC047002067
:10377C00A350012008B5064B00211888013080B2F7
:10378C001880FEF7F7FD80B2BDE80840FFF77EBF5A
:10379C008C50012008B5094B00211888013080B2EB
:1037AC001880FEF7E7FD064B80B200211880FEF76B
:1037BC00E1FD80B2BDE80840FFF768BF8C500120E6
:1037CC008A50012008B5FFF703F980B2BDE8084024
:1037DC00FFF75CBF08B5FFF73BF980B2BDE80840C6
:1037EC00FFF754BF08B50120FFF750F980B2BDE8D0
:1037FC000840FFF74BBF00BF08B50120FFF778F971
:10380C0080B2BDE80840FFF741BF00BF08B5FFF725
:10381C00A1F980B2BDE80840FFF738BF08B5012018
:10382C00FFF7C2F980B2BDE80840FFF72FBF00BF19
:10383C00394970B50B78394CDA431E0702F0010296
:10384C0038D500F00F0594F800C02A440CF00F0E88
:10385C00AEEB020E1FFA8EFEBEF1090F24D8002526
:10386C000CF0F00200F0F006921B521B92B2902A60
:10387C003CD823F0010343F001037244D2B24FFA57
:10388C008CFC40B2BCF1000FD5B227DB002822DA49
:10389C00160630D403F0BF03257003F07F03B5B9CF
:1038AC0043F002030B7070BD0EF10A0E10251FFAC7
:1038BC008EFED5E794F800C0ACEB0005AD1AAAB2A9
:1038CC002D0454BF43F0010303F0FE03D7E703F0CC
:1038DC00FD030B7070BDBCF1000F12DA002810DB79
:1038EC00120614D443F040032570D6E7A03203F03F
:1038FC00FE0392B2C1E743F04003257043F080030E
:10390C00CDE7100603F0BF032570C6D5F6E703F02C
:10391C00BF032570F2E700BFC0470020A350012071
:10392C0008B5064B00211888013080B21880FEF7CC
:10393C0021FD80B2BDE80840FFF77ABF8C50012012
:10394C0008B5094B00211888013080B21880FEF7A9
:10395C0011FD064B80B200211880FEF70BFD80B2E2
:10396C00BDE80840FFF764BF8C5001208A5001204D
:10397C0008B5FFF72DF880B2BDE80840FFF758BF37
:10398C0008B5FFF765F880B2BDE80840FFF750BFF7
:10399C0008B50120FFF77AF880B2BDE80840FFF7C0
:1039AC0047BF00BF08B50120FFF7A2F880B2BDE801
:1039BC000840FFF73DBF00BF08B5FFF7CBF880B25A
:1039CC00BDE80840FFF734BF08B50120FFF7ECF85D
:1039DC0080B2BDE80840FFF72BBF00BF08B5044B11
:1039EC0000211888013080B2FEF7C4FC08BD00BF6E
:1039FC008C50012008B5064B00211888013080B28C
:103A0C00FEF7B8FC034A137823F00103137008BDCA
:103A1C008C500120C047002008B5064B00211888A7
:103A2C00013080B2FEF7A6FC034A137823F008039A
:103A3C00137008BD8C500120C047002008B5064B00
:103A4C0000211888013080B2FEF794FC034A1378E9
:103A5C0023F00403137008BD8C500120C0470020D4
:103A6C0008B5064B00211888013080B2FEF782FCA5
:103A7C00034A137823F04003137008BD8C500120C7
:103A8C00C047002008B5064B00211888013080B2D1
:103A9C00FEF770FC034A137843F00103137008BD62
:103AAC008C500120C047002008B5064B0021188817
:103ABC00013080B2FEF75EFC034A137843F0040336
:103ACC00137008BD8C500120C047002008B5064B70
:103ADC0000211888013080B2FEF74CFC034A1378A1
:103AEC0043F00803137008BD8C500120C047002020
:103AFC0008B50F4B00211888013080B2FEF73AFC54
:103B0C000C4A0D491378013BDBB2180613700A7886
:103B1C0007D402F07F020A702BB942F002020A703D
:103B2C0008BD42F0800202F0FD020A7008BD00BF21
:103B3C008C500120A4500120C047002008B50F4B29
:103B4C0000211888013080B2FEF714FC0C4A0D4994
:103B5C001378013BDBB2180613700A7807D402F015
:103B6C007F020A702BB942F002020A7008BD42F0C3
:103B7C00800202F0FD020A7008BD00BF8C500120CB
:103B8C00A5500120C047002008B50F4B0021188814
:103B9C00013080B2FEF7EEFB0C4A0D49137801336D
:103BAC00DBB2180613700A7807D402F07F020A7091
:103BBC002BB942F002020A7008BD42F0800202F0FA
:103BCC00FD020A7008BD00BF8C500120A4500120DA
:103BDC00C047002008B50F4B00211888013080B277
:103BEC00FEF7C8FB0C4A0D4913780133DBB21806FB
:103BFC0013700A7807D402F07F020A702BB942F0D6
:103C0C0002020A7008BD42F0800202F0FD020A7046
:103C1C0008BD00BF8C500120A5500120C0470020DA
:103C2C0008B50E4B00211888013080B2FEF7A2FBBC
:103C3C000B4A0C4B11780C4A08061970137807D4F0
:103C4C0003F07F03137029B943F00203137008BD0E
:103C5C0043F0800303F0FD03137008BD8C5001206A
:103C6C00A3500120A4500120C047002008B50E4BE2
:103C7C0000211888013080B2FEF77CFB0B4A0C4BFC
:103C8C0011780C4A08061970137807D403F07F03D7
:103C9C00137029B943F00203137008BD43F080037D
:103CAC0003F0FD03137008BD8C500120A3500120BC
:103CBC00A5500120C047002008B50E4B00211888E4
:103CCC00013080B2FEF756FB0B4A0C4B11780C4AB4
:103CDC0008061970137807D403F07F03137029B901
:103CEC0043F00203137008BD43F0800303F0FD039F
:103CFC00137008BD8C500120C1470020A450012036
:103D0C00C047002008B50E4B00211888013080B246
:103D1C00FEF730FB0B4A0C4B11780C4A0806197055
:103D2C00137807D403F07F03137029B943F002030F
:103D3C00137008BD43F0800303F0FD03137008BD3E
:103D4C008C500120A4500120A3500120C04700201A
:103D5C0008B5064B00211888013080B2FEF70AFB2B
:103D6C00034A044B12781A7008BD00BF8C50012016
:103D7C00A4500120C147002008B50E4B0021188823
:103D8C00013080B2FEF7F6FA0B4A0C4B11780C4A54
:103D9C0008061970137807D403F07F03137029B940
:103DAC0043F00203137008BD43F0800303F0FD03DE
:103DBC00137008BD8C500120A5500120A350012088
:103DCC00C04700200A4B00211888013010B580B282
:103DDC00084CFEF7CFFA084B2078197840F4807025
:103DEC0041F03001FEF782FC2378013B237010BDBB
:103DFC008C500120C1470020C0470020094B0021F6
:103E0C001888013010B5084C80B2FEF7B3FA074B96
:103E1C002078197840F48070FEF768FC2378013B19
:103E2C00237010BD8C500120C1470020A3500120ED
:103E3C000E4B00211888013010B50D4C80B2FEF7E6
:103E4C0099FA0021207840F48070FEF793FA2378D9
:103E5C0000210133DBB243F480702370FEF78AFA41
:103E6C00044B40F03000187010BD00BF8C50012086
:103E7C00C1470020C0470020154B00211888013095
:103E8C0010B5144C80B2FEF775FA0021207840F47E
:103E9C008070FEF76FFA237800210133DBB243F414
:103EAC0080702370FEF766FA0B4B0C4A01061870F3
:103EBC00137807D403F07F03137028B943F002037F
:103ECC00137010BD43F0800303F0FD03137010BD9D
:103EDC008C500120C1470020A3500120C047002076
:103EEC0008B50F4B00211888013080B21880FEF7FE
:103EFC0041FA0C4B1A7810400B4A010618701378D3
:103F0C0007D403F07F03137028B943F00203137036
:103F1C0008BD43F0800303F0FD03137008BD00BF20
:103F2C008C500120A3500120C047002008B5124B33
:103F3C0000211888013080B21880FEF71BFA0F4B55
:103F4C0080B200211880FEF715FA0D4B1A7810403C
:103F5C000C4A01061870137807D403F07F03137012
:103F6C0028B943F00203137008BD43F0800303F03B
:103F7C00FD03137008BD00BF8C5001208A50012036
:103F8C00A3500120C047002008B5FEF721FD0B4BC4
:103F9C001A7810400A4A01061870137807D403F0F7
:103FAC007F03137028B943F00203137008BD43F06C
:103FBC00800303F0FD03137008BD00BFA350012064
:103FCC00C047002008B5FEF743FD0B4B1A78104094
:103FDC000A4A01061870137807D403F07F03137094
:103FEC0028B943F00203137008BD43F0800303F0BB
:103FFC00FD03137008BD00BFA3500120C047002073
:10400C0008B50120FEF742FD0A4B1A7810400A4A07
:10401C0001061870137807D403F07F03137028B9C6
:10402C0043F00203137008BD43F0800303F0FD035B
:10403C00137008BDA3500120C047002008B5012013
:10404C00FEF756FD0A4B1A7810400A4A0106187002
:10405C00137807D403F07F03137028B943F00203DD
:10406C00137008BD43F0800303F0FD03137008BD0B
:10407C00A3500120C047002008B5FEF76BFD0B4B89
:10408C001A7810400A4A01061870137807D403F006
:10409C007F03137028B943F00203137008BD43F07B
:1040AC00800303F0FD03137008BD00BFA350012073
:1040BC00C047002008B50120FEF776FD0A4B1A78A0
:1040CC0010400A4A01061870137807D403F07F03D6
:1040DC00137028B943F00203137008BD43F080033A
:1040EC0003F0FD03137008BDA3500120C04700204E
:1040FC0008B50F4B00211888013080B21880FEF7EC
:10410C0039F90C4B1A7810430B4AC0B201061870DF
:10411C00137807D403F07F03137028B943F002031C
:10412C00137008BD43F0800303F0FD03137008BD4A
:10413C008C500120A3500120C047002008B5124B21
:10414C0000211888013080B21880FEF713F90F4B4C
:10415C0080B200211880FEF70DF90D4B1A78104330
:10416C000C4AC0B201061870137807D403F07F0311
:10417C00137028B943F00203137008BD43F0800399
:10418C0003F0FD03137008BD8C5001208A500120F0
:10419C00A3500120C047002008B5FEF719FC0B4BBB
:1041AC001A7810430A4AC0B201061870137807D463
:1041BC0003F07F03137028B943F00203137008BD9A
:1041CC0043F0800303F0FD03137008BDA3500120DE
:1041DC00C047002008B5FEF73BFC0B4B1A78104388
:1041EC000A4AC0B201061870137807D403F07F0393
:1041FC00137028B943F00203137008BD43F0800319
:10420C0003F0FD03137008BDA3500120C04700202C
:10421C0008B50120FEF73AFC0B4B1A7810430B4AF9
:10422C00C0B201061870137807D403F07F03137023
:10423C0028B943F00203137008BD43F0800303F068
:10424C00FD03137008BD00BFA3500120C047002020
:10425C0008B50120FEF74CFC0B4B1A7810430B4AA7
:10426C00C0B201061870137807D403F07F031370E3
:10427C0028B943F00203137008BD43F0800303F028
:10428C00FD03137008BD00BFA3500120C0470020E0
:10429C0008B5FEF75FFC0B4B1A7810430A4AC0B204
:1042AC0001061870137807D403F07F03137028B934
:1042BC0043F00203137008BD43F0800303F0FD03C9
:1042CC00137008BDA3500120C047002008B5012081
:1042DC00FEF76AFC0B4B1A7810430B4AC0B201066E
:1042EC001870137807D403F07F03137028B943F0C8
:1042FC000203137008BD43F0800303F0FD03137039
:10430C0008BD00BFA3500120C047002008B50F4BCB
:10431C0000211888013080B21880FEF72BF80C4A67
:10432C00117881EA0003DBB2137013F0800F094A95
:10433C00137814BF43F0800303F07F0381420CBF5A
:10434C0043F0020303F0FD03137008BD8C500120F1
:10435C00A3500120C047002008B5124B002118883B
:10436C00013080B21880FEF705F80F4B80B20021A7
:10437C001880FDF7FFFF0D4A117881EA0003DBB2CC
:10438C00137013F0800F0A4A137814BF43F08003A4
:10439C0003F07F0381420CBF43F0020303F0FD03E3
:1043AC00137008BD8C5001208A500120A3500120AD
:1043BC00C047002008B5FEF70BFB0B4A117880EACA
:1043CC000103DBB2137013F0800F084A137814BF8B
:1043DC0043F0800303F07F0388420CBF43F00203D9
:1043EC0003F0FD03137008BDA3500120C04700204B
:1043FC0008B5FEF72DFB0B4A117880EA0103DBB2FE
:10440C00137013F0800F084A137814BF43F0800325
:10441C0003F07F0388420CBF43F0020303F0FD035B
:10442C00137008BDA3500120C047002008B501201F
:10443C00FEF72CFB0B4A117880EA0103DBB21370F8
:10444C0013F0800F084A137814BF43F0800303F075
:10445C007F0388420CBF43F0020303F0FD0313708B
:10446C0008BD00BFA3500120C047002008B50120A3
:10447C00FEF73EFB0B4A117880EA0103DBB21370A6
:10448C0013F0800F084A137814BF43F0800303F035
:10449C007F0388420CBF43F0020303F0FD0313704B
:1044AC0008BD00BFA3500120C047002008B5FEF78F
:1044BC0051FB0B4A117880EA0103DBB2137013F045
:1044CC00800F084A137814BF43F0800303F07F0376
:1044DC0088420CBF43F0020303F0FD03137008BDC8
:1044EC00A3500120C047002008B50120FEF75CFB5B
:1044FC000B4A117880EA0103DBB2137013F0800FC2
:10450C00084A137814BF43F0800303F07F038842FA
:10451C000CBF43F0020303F0FD03137008BD00BF92
:10452C00A3500120C047002008B50E4B002118886D
:10453C00013080B21880FDF71DFF0B4B01060B4AB2
:10454C001870137807D403F07F03137028B943F065
:10455C000203137008BD43F0800303F0FD031370D6
:10456C0008BD00BF8C500120A3500120C047002083
:10457C0008B5114B00211888013080B21880FDF766
:10458C00F9FE0E4B80B200211880FDF7F3FE0C4BA8
:10459C0001060C4A1870137807D403F07F031370CC
:1045AC0028B943F00203137008BD43F0800303F0F5
:1045BC00FD03137008BD00BF8C5001208A500120F0
:1045CC00A3500120C047002008B5FEF701FA0A4BA2
:1045DC000A4A01061870137807D403F07F0313708E
:1045EC0028B943F00203137008BD43F0800303F0B5
:1045FC00FD03137008BD00BFA3500120C04700206D
:10460C0008B5FEF725FA0A4B0A4A0106187013780A
:10461C0007D403F07F03137028B943F0020313701F
:10462C0008BD43F0800303F0FD03137008BD00BF09
:10463C00A3500120C047002008B50120FEF726FA40
:10464C00094B0A4A01061870137807D403F07F034C
:10465C00137028B943F00203137008BD43F08003B4
:10466C0003F0FD03137008BDA3500120C0470020C8
:10467C0008B50120FEF73CFA094B0A4A01061870EE
:10468C00137807D403F07F03137028B943F00203A7
:10469C00137008BD43F0800303F0FD03137008BDD5
:1046AC00A3500120C047002008B5FEF753FA0A4B6F
:1046BC000A4A01061870137807D403F07F031370AD
:1046CC0028B943F00203137008BD43F0800303F0D4
:1046DC00FD03137008BD00BFA3500120C04700208C
:1046EC0008B50120FEF760FA094B0A4A010618705A
:1046FC00137807D403F07F03137028B943F0020337
:10470C00137008BD43F0800303F0FD03137008BD64
:10471C00A3500120C047002008B50E4B002118887B
:10472C00013080B21880FDF725FE0B4B01060B4AB9
:10473C001870137807D403F07F03137028B943F073
:10474C000203137008BD43F0800303F0FD031370E4
:10475C0008BD00BF8C500120A4500120C047002090
:10476C0008B5114B00211888013080B21880FDF774
:10477C0001FE0E4B80B200211880FDF7FBFD0C4BA7
:10478C0001060C4A1870137807D403F07F031370DA
:10479C0028B943F00203137008BD43F0800303F003
:1047AC00FD03137008BD00BF8C5001208A500120FE
:1047BC00A4500120C047002010B5164C00212088C1
:1047CC00013080B22080FDF7D5FD238804460021FE
:1047DC00581C80B2FDF7CEFD0F4A104B0021127809
:1047EC00A018C0B21880FDF7C5FD0D4B01060D4A8F
:1047FC001870137807D403F07F03137028B943F0B3
:10480C000203137010BD43F0800303F0FD0313701B
:10481C0010BD00BF8C500120A55001208A500120F2
:10482C00A4500120C047002008B5FEF711F90A4B2F
:10483C000A4A01061870137807D403F07F0313702B
:10484C0028B943F00203137008BD43F0800303F052
:10485C00FD03137008BD00BFA4500120C047002009
:10486C0008B50120FEF744F9094B0A4A01061870F5
:10487C00137807D403F07F03137028B943F00203B5
:10488C00137008BD43F0800303F0FD03137008BDE3
:10489C00A4500120C047002008B50E4B00211888F9
:1048AC00013080B21880FDF765FD0B4B01060B4AF9
:1048BC001870137807D403F07F03137028B943F0F2
:1048CC000203137008BD43F0800303F0FD03137063
:1048DC0008BD00BF8C500120A5500120C04700200E
:1048EC0008B5114B00211888013080B21880FDF7F3
:1048FC0041FD0E4B80B200211880FDF73BFD0C4BA7
:10490C0001060C4A1870137807D403F07F03137058
:10491C0028B943F00203137008BD43F0800303F081
:10492C00FD03137008BD00BF8C5001208A5001207C
:10493C00A5500120C047002008B5FEF749F80A4BE6
:10494C000A4A01061870137807D403F07F0313701A
:10495C0028B943F00203137008BD43F0800303F041
:10496C00FD03137008BD00BFA5500120C0470020F7
:10497C0008B5FEF76DF80A4B0A4A01061870137851
:10498C0007D403F07F03137028B943F002031370AC
:10499C0008BD43F0800303F0FD03137008BD00BF96
:1049AC00A5500120C047002008B50120FEF76EF885
:1049BC00094B0A4A01061870137807D403F07F03D9
:1049CC00137028B943F00203137008BD43F0800341
:1049DC0003F0FD03137008BDA5500120C047002053
:1049EC0008B5114B00211888013080B21880FDF7F2
:1049FC00C1FC0E4B80B200211880FDF7BBFC0C49AA
:104A0C000C4B0A7893F800C000F0C00302F03F0290
:104A1C0010EA0C0F43EA02030CBF43F0020303F04D
:104A2C00FD030B7008BD00BF8C5001208A50012083
:104A3C00C0470020A350012008B5FEF709F80A4929
:104A4C000A4B0A7893F800C000F0C00302F03F0252
:104A5C0010EA0C0F43EA02030CBF43F0020303F00D
:104A6C00FD030B7008BD00BFC0470020A350012000
:104A7C0008B5124B00211888013080B21880FDF760
:104A8C0079FC0F4B0F491A780B788242A2EB00008D
:104A9C002CBF43F0010303F0FE03C2B2000607D49F
:104AAC0003F07F030B702AB943F002030B7008BDAF
:104ABC0043F0800303F0FD030B7008BD8C50012004
:104ACC00A3500120C047002008B5154B00211888C1
:104ADC00013080B21880FDF74DFC124B80B20021E2
:104AEC001880FDF747FC104B10491A780B7882425E
:104AFC00A2EB00002CBF43F0010303F0FE03C2B293
:104B0C00000607D403F07F030B702AB943F00203AD
:104B1C000B7008BD43F0800303F0FD030B7008BD60
:104B2C008C5001208A500120A3500120C047002046
:104B3C0008B5FDF74DFF0E4B0E491A780B789042D5
:104B4C00A2EB000094BF43F0010303F0FE03C2B2DA
:104B5C00000607D403F07F030B702AB943F002035D
:104B6C000B7008BD43F0800303F0FD030B7008BD10
:104B7C00A3500120C047002008B5FDF769FF0E4B7C
:104B8C000E491A780B789042A2EB000094BF43F0C8
:104B9C00010303F0FE03C2B2000607D403F07F0347
:104BAC000B702AB943F002030B7008BD43F080036D
:104BBC0003F0FD030B7008BDA3500120C04700207B
:104BCC0008B50120FDF762FF0E4B0F491A780B78E0
:104BDC009042A2EB000094BF43F0010303F0FE03EC
:104BEC00C2B2000607D403F07F030B702AB943F05E
:104BFC0002030B7008BD43F0800303F0FD030B7040
:104C0C0008BD00BFA3500120C047002008B50120FB
:104C1C00FDF76EFF0E4B0F491A780B789042A2EB02
:104C2C00000094BF43F0010303F0FE03C2B2000680
:104C3C0007D403F07F030B702AB943F002030B7007
:104C4C0008BD43F0800303F0FD030B7008BD00BFEB
:104C5C00A3500120C047002008B5FDF77BFF0E4B89
:104C6C000E491A780B789042A2EB000094BF43F0E7
:104C7C00010303F0FE03C2B2000607D403F07F0366
:104C8C000B702AB943F002030B7008BD43F080038C
:104C9C0003F0FD030B7008BDA3500120C04700209A
:104CAC0008B50120FDF780FF0E4B0F491A780B78E1
:104CBC009042A2EB000094BF43F0010303F0FE030B
:104CCC00C2B2000607D403F07F030B702AB943F07D
:104CDC0002030B7008BD43F0800303F0FD030B705F
:104CEC0008BD00BFA3500120C047002008B5124BDF
:104CFC0000211888013080B21880FDF73BFB0F4B68
:104D0C000F491A780B788242A2EB00002CBF43F0BB
:104D1C00010303F0FE03C2B2000607D403F07F03C5
:104D2C000B702AB943F002030B7008BD43F08003EB
:104D3C0003F0FD030B7008BD8C500120A450012022
:104D4C00C047002008B5154B00211888013080B2EF
:104D5C001880FDF70FFB124B80B200211880FDF775
:104D6C0009FB104B10491A780B788242A2EB000019
:104D7C002CBF43F0010303F0FE03C2B2000607D4BC
:104D8C0003F07F030B702AB943F002030B7008BDCC
:104D9C0043F0800303F0FD030B7008BD8C50012021
:104DAC008A500120A4500120C047002008B5FDF70F
:104DBC004FFE0E4B0E491A780B789042A2EB000076
:104DCC0094BF43F0010303F0FE03C2B2000607D404
:104DDC0003F07F030B702AB943F002030B7008BD7C
:104DEC0043F0800303F0FD030B7008BDA4500120B9
:104DFC00C047002008B5124B00211888013080B242
:104E0C001880FDF7B7FA0F4B0F491A780B788242CE
:104E1C00A2EB00002CBF43F0010303F0FE03C2B26F
:104E2C00000607D403F07F030B702AB943F002038A
:104E3C000B7008BD43F0800303F0FD030B7008BD3D
:104E4C008C500120A5500120C047002008B5154BFF
:104E5C0000211888013080B21880FDF78BFA124BB4
:104E6C0080B200211880FDF785FA104B10491A7892
:104E7C000B788242A2EB00002CBF43F0010303F03D
:104E8C00FE03C2B2000607D403F07F030B702AB9ED
:104E9C0043F002030B7008BD43F0800303F0FD03E5
:104EAC000B7008BD8C5001208A500120A5500120A8
:104EBC00C047002008B5FDF7CBFD0E4B0E491A7804
:104ECC000B789042A2EB000094BF43F0010303F077
:104EDC00FE03C2B2000607D403F07F030B702AB99D
:104EEC0043F002030B7008BD43F0800303F0FD0395
:104EFC000B7008BDA5500120C0470020184B0021A5
:104F0C001888013080B210B582B01880154CFDF7AE
:104F1C0031FA80B200212080FDF72CFA124A0106EA
:104F2C004FEA40001378C1B24CBF43F0010303F0C9
:104F3C00FE0300064CBF43F0800303F07F0361B90E
:104F4C0043F00203208801911370FDF7CFFB019908
:104F5C002088FDF7CBFB02B010BD03F0FD03F1E799
:104F6C008C5001208A500120C047002010B582B01F
:104F7C00FDF72EFD114A04064FEA40001378C1B22A
:104F8C004CBF43F0010303F0FE0300064CBF43F09B
:104F9C00800303F07F0369B943F00203084C0191CD
:104FAC0020881370FDF7A2FB01992088FDF79EFB6A
:104FBC0002B010BD03F0FD03F0E700BFC0470020B6
:104FCC008A50012010B582B0FDF742FD114A04064B
:104FDC004FEA40001378C1B24CBF43F0010303F019
:104FEC00FE0300064CBF43F0800303F07F0369B956
:104FFC0043F00203084C019120881370FDF776FBF7
:10500C0001992088FDF772FB02B010BD03F0FD037F
:10501C00F0E700BFC04700208A50012010B50020E7
:10502C0082B0FDF733FD114A04064FEA40001378B5
:10503C00C1B24CBF43F0010303F0FE0300064CBFAA
:10504C0043F0800303F07F0369B943F00203084C7B
:10505C00019120881370FDF749FB01992088FDF719
:10506C0045FB02B010BD03F0FD03F0E7C047002084
:10507C008A50012038B5154B0021154D1888013088
:10508C0080B21880FDF776F980B200212880FDF7F8
:10509C0071F901300F4B104AC4B221061C70137801
:1050AC000FD403F07F0313706CB943F0020328880C
:1050BC0021461370FDF71AFB21462888FDF716FBD5
:1050CC0038BD43F0800303F0FD03F0E78C50012062
:1050DC008A500120A0500120C047002038B5FDF7B0
:1050EC0077FC01300E4BC4B20E4A21061C701378AB
:1050FC0010D403F07F03137074B943F002030A4D0C
:10510C00214613702888FDF7F1FA21462888FDF70F
:10511C00EDFA38BD43F0800303F0FD03EFE700BF69
:10512C00A0500120C04700208A50012038B5FDF75F
:10513C008FFC01300E4BC4B20E4A21061C70137842
:10514C0010D403F07F03137074B943F002030A4DBB
:10515C00214613702888FDF7C9FA21462888FDF7E7
:10516C00C5FA38BD43F0800303F0FD03EFE700BF41
:10517C00A0500120C04700208A50012038B5154BA3
:10518C000021154D1888013080B21880FDF7F2F817
:10519C0080B200212880FDF7EDF801380F4B104A42
:1051AC00C4B221061C7013780FD403F07F03137064
:1051BC006CB943F00203288821461370FDF796FA68
:1051CC0021462888FDF792FA38BD43F0800303F09E
:1051DC00FD03F0E78C5001208A500120A0500120E3
:1051EC00C047002038B5FDF7F3FB01380E4BC4B2B5
:1051FC000E4A21061C70137810D403F07F03137031
:10520C0074B943F002030A4D214613702888FDF748
:10521C006DFA21462888FDF769FA38BD43F0800302
:10522C0003F0FD03EFE700BFA0500120C0470020B2
:10523C008A50012038B5FDF70BFC01380E4BC4B277
:10524C000E4A21061C70137810D403F07F031370E0
:10525C0074B943F002030A4D214613702888FDF7F8
:10526C0045FA21462888FDF741FA38BD43F0800302
:10527C0003F0FD03EFE700BFA0500120C047002062
:10528C008A50012038B50020FDF700FC01380E4B88
:10529C00C4B20E4A21061C70137810D403F07F039D
:1052AC00137074B943F00203094D2146137028881A
:1052BC00FDF71CFA21462888FDF718FA38BD43F093
:1052CC00800303F0FD03EFE7A0500120C04700204E
:1052DC008A500120164B00211888013080B210B57D
:1052EC0082B01880134CFDF745F880B20021208065
:1052FC00FDF740F8104AC107C0F3470113784CBFC3
:10530C0043F0010303F0FE0371B903F07F0343F094
:10531C000203208801911370FDF7E8F901992088A8
:10532C00FDF7E4F902B010BD03F07D03F1E700BF17
:10533C008C5001208A500120C047002010B582B04B
:10534C00FDF746FB0E4AC107C0F3470113784CBF6B
:10535C0043F0010303F0FE0379B903F07F0343F03C
:10536C000203084C019120881370FDF7BFF90199D5
:10537C002088FDF7BBF902B010BD03F07D03F0E708
:10538C00C04700208A50012010B582B0FDF760FBA9
:10539C000E4AC107C0F3470113784CBF43F0010319
:1053AC0003F0FE0379B903F07F0343F00203084CCA
:1053BC00019120881370FDF799F901992088FDF768
:1053CC0095F902B010BD03F07D03F0E7C047002053
:1053DC008A50012010B5002082B0FDF757FB0F4A10
:1053EC00C107C0F3470113784CBF43F0010303F02E
:1053FC00FE0379B903F07F0343F00203084C0191DB
:10540C0020881370FDF772F901992088FDF76EF969
:10541C0002B010BD03F07D03F0E700BFC0470020D1
:10542C008A5001201A4B00211888013080B230B507
:10543C0083B01880174CFCF79DFF174D80B20021EC
:10544C002080FCF797FF2B78C1074FEAC3124CBFA3
:10545C0043F0010303F0FE03D2B242EA500002060D
:10546C00C1B20FD403F07F0371B943F0020320885B
:10547C0001912B70FDF73AF901992088FDF736F967
:10548C0003B030BD43F0800303F0FD03EFE700BF32
:10549C008C5001208A500120C047002030B5144D9B
:1054AC0083B0FDF795FAC1072B784FEAC3124CBFB6
:1054BC0043F0010303F0FE03D2B242EA50000206AD
:1054CC00C1B210D403F07F0379B943F00203094C45
:1054DC00019120882B70FDF709F901992088FDF7BF
:1054EC0005F903B030BD43F0800303F0FD03EEE794
:1054FC00C04700208A50012030B5144D83B0FDF711
:10550C00A7FAC1072B784FEAC3124CBF43F0010333
:10551C0003F0FE03D2B242EA50000206C1B210D42C
:10552C0003F07F0379B943F00203094C0191208801
:10553C002B70FDF7DBF801992088FDF7D7F803B045
:10554C0030BD43F0800303F0FD03EEE7C0470020BD
:10555C008A50012030B5154D83B00020FDF796FA26
:10556C002B78C1074FEAC3124CBF43F0010303F081
:10557C00FE03D2B242EA50000206C1B210D403F0CC
:10558C007F0379B943F00203094C019120882B70F9
:10559C00FDF7ACF801992088FDF7A8F803B030BDF1
:1055AC0043F0800303F0FD03EEE700BFC04700208B
:1055BC008A500120194B00211888013080B230B577
:1055CC0083B01880164CFCF7D5FE164D80B2002126
:1055DC002080FCF7CFFE2B78010603F001024CBFB4
:1055EC0043F0010303F0FE0342EA40000206C1B29D
:1055FC000FD403F07F0371B943F0020320880191AB
:10560C002B70FDF773F801992088FDF76FF803B044
:10561C0030BD43F0800303F0FD03EFE78C50012015
:10562C008A500120C047002030B5144D83B0FDF7DF
:10563C00CFF901062B7803F001024CBF43F00103B4
:10564C0003F0FE0342EA40000206C1B210D403F09C
:10565C007F0379B943F00203094C019120882B7028
:10566C00FDF744F801992088FDF740F803B030BDF0
:10567C0043F0800303F0FD03EEE700BFC0470020BA
:10568C008A50012030B5144D83B0FDF7E1F90106C5
:10569C002B7803F001024CBF43F0010303F0FE032F
:1056AC0042EA40000206C1B210D403F07F0379B97C
:1056BC0043F00203094C019120882B70FDF716F87A
:1056CC0001992088FDF712F803B030BD43F0800338
:1056DC0003F0FD03EEE700BFC04700208A50012015
:1056EC0030B5144D83B00020FDF7D0F92B780106AE
:1056FC0003F001024CBF43F0010303F0FE0342EA46
:10570C0040000206C1B210D403F07F0379B943F014
:10571C000203094C019120882B70FCF7E7FF0199DB
:10572C002088FCF7E3FF03B030BD43F0800303F0A7
:10573C00FD03EEE7C04700208A50012070B5534CA2
:10574C0000212088013080B22080FCF713FE2188D4
:10575C00050683B24E4D01F1010048BF43F47F436F
:10576C0080B203449BB259402B8011F47F4107D087
:10577C0000212080FCF7FEFD20880021013080B242
:10578C002080FCF7F7FD2B88424AB3F5806F23800D
:10579C00138076D3A3F58062B2F5006F05D3A3F521
:1057AC00406292B2B2F5344F6BD33B4A00203B4976
:1057BC0012780870012A05D04FF084424FF0005146
:1057CC00C2F88410364A12784AB94FF084410A68FC
:1057DC00D004FCD44FF084410A68D204FCD5314E7D
:1057EC004FF0844502229C0AD806C6F884204FEA62
:1057FC00034C29682C4A0CF4002E0A40990242EA08
:10580C00C37201F000710A4304F00C0104F010049F
:10581C000A4300F0805100F000400A4319052A6049
:10582C009A0001F00051356802F480520A431F4976
:10583C0029401F4D0A43590501F080510A43590371
:10584C0001F4802111439A0341EA0E0102F4800213
:10585C0031605E041B090CF4802106F4000603F091
:10586C008003324323432C6824F4440422430A4328
:10587C0010492A60104A0C682240134303430B6002
:10588C0070BD0E4A1278012A8FD970BD8C50012040
:10589C008A50012088500120A6500120A1500120DF
:1058AC00BE47002000400042F3FFFF6DFFEFF3CF37
:1058BC000080004200C000426FFFFF7F9850012023
:1058CC0008B5084B197811F0010103D0BDE8084068
:1058DC00FFF734BF044B1888013080B21880FCF7F6
:1058EC0049FD08BDC04700208C50012008B5084B6D
:1058FC001B78DB0703D4BDE80840FFF71FBF054B3F
:10590C0000211888013080B21880FCF733FD08BDE7
:10591C00C04700208C50012008B5094B1B78C3F3FD
:10592C0040019B0703D5BDE80840FFF707BF054BB7
:10593C001888013080B21880FCF71CFD08BD00BF30
:10594C00C04700208C50012008B5084B1B789B07E2
:10595C0003D4BDE80840FFF7F1BE054B00211888C1
:10596C00013080B21880FCF705FD08BDC04700204F
:10597C008C50012008B5094B1B78C3F380115B06D2
:10598C0003D5BDE80840FFF7D9BE054B1888013098
:10599C0080B21880FCF7EEFC08BD00BFC0470020A9
:1059AC008C50012008B5084B1B785B0603D4BDE86E
:1059BC000840FFF7C3BE054B00211888013080B2A8
:1059CC001880FCF7D7FC08BDC04700208C50012084
:1059DC0008B5084B1B78DB0908D1074B0021188848
:1059EC00013080B21880FCF7C5FC08BDBDE808404A
:1059FC00FFF7A4BEC04700208C50012008B5094B0E
:105A0C0093F90030002B03DBBDE80840FFF796BE8E
:105A1C00054B00211888013080B21880FCF7AAFCD5
:105A2C0008BD00BFC04700208C50012070B54B4D05
:105A3C0000212888013080B22880FCF79BFC2A8842
:105A4C0004460021013290B22880FCF793FC04EB51
:105A5C0000204349434A83B2B3F5806F0B802B80FF
:105A6C00138076D3A3F58062B2F5006F05D3A3F54E
:105A7C00406292B2B2F5344F6BD33B4A00203B49A3
:105A8C0012780870012A05D04FF084424FF0005173
:105A9C00C2F88410364A12784AB94FF084410A6829
:105AAC00D004FCD44FF084410A68D204FCD5314EAA
:105ABC004FF0844502229C0AD806C6F884204FEA8F
:105ACC00034C29682C4A0CF4002E0A40990242EA35
:105ADC00C37201F000710A4304F00C0104F01004CD
:105AEC000A4300F0805100F000400A4319052A6077
:105AFC009A0001F00051356802F480520A431F49A4
:105B0C0029401F4D0A43590501F080510A4359039E
:105B1C0001F4802111439A0341EA0E0102F4800240
:105B2C0031605E041B090CF4802106F4000603F0BE
:105B3C008003324323432C6824F4440422430A4355
:105B4C0010492A60104A0C682240134303430B602F
:105B5C0070BD0E4A1278012A8FD970BD8C5001206D
:105B6C008A50012088500120A6500120A15001200C
:105B7C00BE47002000400042F3FFFF6DFFEFF3CF64
:105B8C000080004200C000426FFFFF7F9850012050
:105B9C0070B5534E00213088013080B23080FCF754
:105BAC00E9FB338804460021581C80B23080FCF796
:105BBC00E1FB04EB0020002184B220460134FCF709
:105BCC00D9FB00210546A0B2FCF7D4FB454C0302DF
:105BDC0045499BB25A1992B2D0B222800343B3F515
:105BEC00806F33800B8076D3A3F58062B2F5006FA3
:105BFC0005D3A3F5406292B2B2F5344F6BD33B4A56
:105C0C0000203B4912780870012A05D04FF08442DD
:105C1C004FF00051C2F88410364A12784AB94FF04E
:105C2C0084410A68D004FCD44FF084410A68D20441
:105C3C00FCD5314E4FF0844502229C0AD806C6F89A
:105C4C0084204FEA034C29682C4A0CF4002E0A409D
:105C5C00990242EAC37201F000710A4304F00C018C
:105C6C0004F010040A4300F0805100F000400A4395
:105C7C0019052A609A0001F00051356802F480522F
:105C8C000A431F4929401F4D0A43590501F0805111
:105C9C000A43590301F4802111439A0341EA0E018E
:105CAC0002F4800231605E041B090CF4802106F4BE
:105CBC00000603F08003324323432C6824F444048D
:105CCC0022430A4310492A60104A0C6822401343AD
:105CDC0003430B6070BD0E4A1278012A8FD970BD38
:105CEC008C5001208A50012088500120A6500120A0
:105CFC00A1500120BE47002000400042F3FFFF6D81
:105D0C00FFEFF3CF0080004200C000426FFFFF7F27
:105D1C0098500120F8B5574D0021574E2888013076
:105D2C0080B22880FCF726FB2B8804460021581CE7
:105D3C0080B22880FCF71EFB07463078002140F427
:105D4C008070FCF717FB29883078090A40F48070C2
:105D5C00FCF7CCFC33782978013BDBB243F4807040
:105D6C003370FCF7C3FC337804EB0720434A013B48
:105D7C0080B23370B0F5806F2880108075D3A0F599
:105D8C008063B3F5006F05D3A0F540639BB2B3F508
:105D9C00344F6AD33A4B00213A4A1B781170012BCD
:105DAC0005D04FF084434FF00052C3F88420364B9B
:105DBC001B784BB94FF084421368D904FCD44FF0D4
:105DCC0084421368DB04FCD5304E4FF0844502232B
:105DDC00840AC106C6F8843007042A682C4B07F4E1
:105DEC00002C1340820243EAC07302F0007213438A
:105DFC0004F00C0204F01004134301F0805201F083
:105E0C000041134302052B60830002F000523568F9
:105E1C0003F4805313431F4A2A401F4D134342057A
:105E2C0002F080521A43430303F48023134382038A
:105E3C0043EA0C0302F48002336007F48026470423
:105E4C00030907F4000003F080030243286823438E
:105E5C0020F444000243114832432A60104A04687B
:105E6C00224013430B430360F8BD0E4B1B78012BF0
:105E7C0090D9F8BD8C500120C147002088500120DA
:105E8C00A6500120A1500120BE4700200040004236
:105E9C00F3FFFF6DFFEFF3CF0080004200C0004224
:105EAC006FFFFF7F9850012070B5594D0021594C60
:105EBC002888013080B22880FCF75CFA2078002119
:105ECC0040F48070FCF756FA237800210133DBB2E2
:105EDC0043F480702370FCF74DFA23784E4A00216E
:105EEC0001331070DBB243F480702370FCF742FA7C
:105EFC002278064600210132D2B242F48070227020
:105F0C00FCF738FA454A06EB002083B2B3F5806FF4
:105F1C002B80138076D3A3F58062B2F5006F05D386
:105F2C00A3F5406292B2B2F5344F6BD33C4A0020D9
:105F3C003C4912780870012A05D04FF084424FF08A
:105F4C000051C2F88410384A12784AB94FF0844193
:105F5C000A68D004FCD44FF084410A68D204FCD502
:105F6C00324E4FF0844502229C0AD806C6F8842093
:105F7C004FEA034C29682E4A0CF4002E0A40990271
:105F8C0042EAC37201F000710A4304F00C0104F000
:105F9C0010040A4300F0805100F000400A43190538
:105FAC002A609A0001F00051356802F480520A43CD
:105FBC0020492940204D0A43590501F080510A43DC
:105FCC00590301F4802111439A0341EA0E0102F4B2
:105FDC00800231605E041B090CF4802106F400067B
:105FEC0003F08003324323432C6824F444042243FB
:105FFC000A4312492A60124A0C6822401343034395
:10600C000B6070BD0F4A1278012A8FD970BD00BF8A
:10601C008C500120C1470020C0470020885001202F
:10602C00A6500120A1500120BE4700200040004294
:10603C00F3FFFF6DFFEFF3CF0080004200C0004282
:10604C006FFFFF7F9850012070B5564D0021564EC2
:10605C002888013080B22880FCF78CF93078002138
:10606C0040F48070FCF786F9337800210133DBB201
:10607C0043F480703370FCF77DF9337804460021CB
:10608C00581C0134C0B2307040F48070FCF772F9C7
:10609C00002104EB002080B22880FCF76BF92B88E0
:1060AC00424AB3F5806F138076D3A3F58062B2F5C4
:1060BC00006F05D3A3F5406292B2B2F5344F6BD3A7
:1060CC003B4A00203B4912780870012A05D04FF05A
:1060DC0084424FF00051C2F88410374A12784AB902
:1060EC004FF084410A68D004FCD44FF084410A6814
:1060FC00D204FCD5314E4FF0844502229C0AD806BE
:10610C00C6F884204FEA034C29682D4A0CF4002E63
:10611C000A40990242EAC37201F000710A4304F08A
:10612C000C0104F010040A4300F0805100F0004010
:10613C000A4319052A609A0001F00051356802F4EF
:10614C0080520A431F4929401F4D0A43590501F04B
:10615C0080510A43590301F4802111439A0341EA07
:10616C000E0102F4800231605E041B090CF48021E4
:10617C0006F4000603F08003324323432C6824F416
:10618C00440422430A4311492A60114A0C682240F4
:10619C00134303430B6070BD0E4A1278012A8FD94A
:1061AC0070BD00BF8C500120C147002088500120D9
:1061BC00A6500120A1500120BE4700200040004203
:1061CC00F3FFFF6DFFEFF3CF0080004200C00042F1
:1061DC006FFFFF7F985001201B4B00211888013066
:1061EC0080B270B582B01880184CFCF7C3F880B23E
:1061FC000021174D2080FCF7BDF806064FEA400140
:10620C00144EC9B22B7832784CBF43F0010303F023
:10621C00FE030A431006327010D403F07F032B7078
:10622C0072B943F00203208801912B70FCF75EFADF
:10623C0001992088FCF75AFA02B070BD43F0800334
:10624C0003F0FD03EFE700BF8C5001208A500120C2
:10625C00C0470020A350012030B583B0144CFCF78C
:10626C00B7FB05064FEA4001124D23782A78C9B2D4
:10627C004CBF43F0010303F0FE030A4310062A70DF
:10628C0011D403F07F0323707AB943F002030A4D53
:10629C00019128882370FCF729FA01992888FCF7CA
:1062AC0025FA03B030BD43F0800303F0FD03EEE7A5
:1062BC00C0470020A35001208A50012030B583B084
:1062CC00144CFCF747FC05064FEA4001124D2378AD
:1062DC002A78C9B24CBF43F0010303F0FE030A4312
:1062EC0010062A7011D403F07F0323707AB943F09F
:1062FC0002030A4D019128882370FCF7F7F90199E4
:10630C002888FCF7F3F903B030BD43F0800303F0A9
:10631C00FD03EEE7C0470020A35001208A50012066
:10632C0030B5012083B0FCF73FFC05064FEA400175
:10633C00124D134C2A78C9B2237842EA01024CBFA1
:10634C0043F0010303F0FE0310062A7011D403F08E
:10635C007F0323707AB943F002030A4D0191288818
:10636C002370FCF7C3F901992888FCF7BFF903B037
:10637C0030BD43F0800303F0FD03EEE7A350012092
:10638C00C04700208A50012030B583B0144CFCF774
:10639C005FFB05064FEA4001124D23782A78C9B2FB
:1063AC004CBF43F0010303F0FE030A4310062A70AE
:1063BC0011D403F07F0323707AB943F002030A4D22
:1063CC00019128882370FCF791F901992888FCF732
:1063DC008DF903B030BD43F0800303F0FD03EEE70D
:1063EC00C0470020A35001208A50012030B5012065
:1063FC0083B0FCF74BFB05064FEA4001124D134CE2
:10640C002A78C9B2237842EA01024CBF43F0010357
:10641C0003F0FE0310062A7011D403F07F032370DF
:10642C007AB943F002030A4D019128882370FCF7D6
:10643C005DF901992888FCF759F903B030BD43F098
:10644C00800303F0FD03EEE7A3500120C0470020BA
:10645C008A50012030B5012083B0FCF749FB0506BA
:10646C004FEA4001124D134C2A78C9B2237842EA04
:10647C0001024CBF43F0010303F0FE0310062A7027
:10648C0011D403F07F0323707AB943F002030A4D51
:10649C00019128882370FCF729F901992888FCF7C9
:1064AC0025F903B030BD43F0800303F0FD03EEE7A4
:1064BC00A3500120C04700208A5001201C4B002112
:1064CC001888013080B230B583B01880194CFBF7B6
:1064DC0051FF194D80B200212080FBF74BFF2B7828
:1064EC00010603F001024CBF43F0010303F0FE036D
:1064FC0042EA4000114A92F800C0C1B200EA0C0016
:10650C00107002060FD403F07F0370B943F002033E
:10651C00208801912B70FCF7E9F801992088FCF791
:10652C00E5F803B030BD43F0800303F0FD03EFE763
:10653C008C5001208A500120C0470020A35001201C
:10654C0030B5164D83B0FCF743FA154C2B78010689
:10655C0003F001024CBF43F0010303F0FE0342EAD7
:10656C0040002278C1B210400206207010D403F013
:10657C007F0378B943F002030A4C019120882B70F9
:10658C00FCF7B4F801992088FCF7B0F803B030BDE3
:10659C0043F0800303F0FD03EEE700BFC04700208B
:1065AC00A35001208A50012030B5164D83B0FCF762
:1065BC00D1FA154C2B78010603F001024CBF43F0C5
:1065CC00010303F0FE0342EA40002278C1B21040FE
:1065DC000206207010D403F07F0378B943F0020355
:1065EC000A4C019120882B70FCF780F801992088C7
:1065FC00FCF77CF803B030BD43F0800303F0FD03DF
:10660C00EEE700BFC0470020A35001208A500120B4
:10661C0030B5164D83B00120154CFCF7C5FA2B781C
:10662C00010603F001024CBF43F0010303F0FE032B
:10663C0042EA40002278C1B210400206207010D409
:10664C0003F07F0378B943F002030A4C01912088D0
:10665C002B70FCF74BF801992088FCF747F803B036
:10666C0030BD43F0800303F0FD03EEE7C04700208C
:10667C00A35001208A50012030B5164D83B0FCF791
:10668C00E7F9154C2B78010603F001024CBF43F0DF
:10669C00010303F0FE0342EA40002278C1B210402D
:1066AC000206207010D403F07F0378B943F0020384
:1066BC000A4C019120882B70FCF718F8019920885E
:1066CC00FCF714F803B030BD43F0800303F0FD0376
:1066DC00EEE700BFC0470020A35001208A500120E4
:1066EC0030B5164D83B00120154CFCF7CFF92B7843
:1066FC00010603F001024CBF43F0010303F0FE035B
:10670C0042EA40002278C1B210400206207010D438
:10671C0003F07F0378B943F002030A4C01912088FF
:10672C002B70FBF7E3FF01992088FBF7DFFF03B029
:10673C0030BD43F0800303F0FD03EEE7C0470020BB
:10674C00A35001208A50012030B5164D83B0012092
:10675C00154CFCF7CDF92B78010603F001024CBF68
:10676C0043F0010303F0FE0342EA40002278C1B279
:10677C0010400206207010D403F07F0378B943F068
:10678C0002030A4C019120882B70FBF7AFFF019993
:10679C002088FBF7ABFF03B030BD43F0800303F060
:1067AC00FD03EEE7C0470020A35001208A500120D2
:1067BC00194B00211888013080B270B5174D184E56
:1067CC001880FBF7D7FD80B200212880FBF7D2FDA3
:1067DC003178C407134AC0F34704137884EA0100E4
:1067EC004CBF43F0010303F0FE0330700006288811
:1067FC004CBF43F0800303F07F038C4221460CBF57
:10680C0043F0020303F0FD031370FBF76FFF214607
:10681C002888FBF76BFF70BD8C5001208A5001203B
:10682C00A3500120C047002038B5144DFCF7D0F818
:10683C00134AC4072978C0F34704137884EA01008B
:10684C004CBF43F0010303F0FE03287000060D4D0E
:10685C004CBF43F0800303F07F038C422888214611
:10686C000CBF43F0020303F0FD031370FBF73EFF74
:10687C0021462888FBF73AFF38BD00BFA350012002
:10688C00C04700208A50012038B5144DFCF762F93E
:10689C00134AC4072978C0F34704137884EA01002B
:1068AC004CBF43F0010303F0FE03287000060D4DAE
:1068BC004CBF43F0800303F07F038C4228882146B1
:1068CC000CBF43F0020303F0FD031370FBF70EFF44
:1068DC0021462888FBF70AFF38BD00BFA3500120D2
:1068EC00C04700208A50012038B5144D0120FCF718
:1068FC005BF9134A2978C407C0F34704137884EA78
:10690C0001004CBF43F0010303F0FE0328700006A6
:10691C000C4D4CBF43F0800303F07F038C4228885E
:10692C0021460CBF43F0020303F0FD031370FBF789
:10693C00DDFE21462888FBF7D9FE38BDA350012087
:10694C00C04700208A50012038B5144DFCF780F860
:10695C00134AC4072978C0F34704137884EA01006A
:10696C004CBF43F0010303F0FE03287000060D4DED
:10697C004CBF43F0800303F07F038C4228882146F0
:10698C000CBF43F0020303F0FD031370FBF7AEFEE4
:10699C0021462888FBF7AAFE38BD00BFA350012072
:1069AC00C04700208A50012038B5144D0120FCF757
:1069BC006DF8134A2978C407C0F34704137884EAA6
:1069CC0001004CBF43F0010303F0FE0328700006E6
:1069DC000C4D4CBF43F0800303F07F038C4228889E
:1069EC0021460CBF43F0020303F0FD031370FBF7C9
:1069FC007DFE21462888FBF779FE38BDA350012087
:106A0C00C04700208A50012038B5144D0120FCF7F6
:106A1C006FF8134A2978C407C0F34704137884EA43
:106A2C0001004CBF43F0010303F0FE032870000685
:106A3C000C4D4CBF43F0800303F07F038C4228883D
:106A4C0021460CBF43F0020303F0FD031370FBF768
:106A5C004DFE21462888FBF749FE38BDA350012086
:106A6C00C04700208A500120144B002118880130A7
:106A7C0080B270B5124D1880FBF77CFC80B20021FF
:106A8C00104E2880FBF776FC0F4AC107C0F3470471
:106A9C0028881378214634704CBF43F0010303F06F
:106AAC00FE031370FBF722FE28882146FBF71EFE1F
:106ABC003078BDE87040FCF7E9BD00BF8C50012078
:106ACC008A500120A0500120C047002070B5FBF770
:106ADC007FFF0D4AC107C0F3470413780B4E2146C4
:106AEC004CBF43F0010303F0FE03094D30881370D3
:106AFC002C70FBF7FBFD30882146FBF7F7FD28785F
:106B0C00BDE87040FCF7C2BDC04700208A50012090
:106B1C00A050012070B5FCF71DF80D4AC107C0F359
:106B2C00470413780B4E21464CBF43F0010303F08E
:106B3C00FE03094D308813702C70FBF7D7FD30889D
:106B4C002146FBF7D3FD2878BDE87040FCF79EBDCD
:106B5C00C04700208A500120A050012070B50120B0
:106B6C000E4EFCF721F80E4AC107C0F34704137808
:106B7C000C4D21464CBF43F0010303F0FE0330885B
:106B8C0013702C70FBF7B2FD30882146FBF7AEFD7D
:106B9C002878BDE87040FCF779BD00BF8A50012011
:106BAC00C0470020A050012070B5FBF751FF0D4AE3
:106BBC00C107C0F3470413780B4E21464CBF43F07A
:106BCC00010303F0FE03094D308813702C70FBF7A2
:106BDC008DFD30882146FBF789FD2878BDE8704093
:106BEC00FCF754BDC04700208A500120A050012062
:106BFC0070B501200E4EFBF749FF0E4AC107C0F3DA
:106C0C00470413780C4D21464CBF43F0010303F0AD
:106C1C00FE03308813702C70FBF768FD308821461A
:106C2C00FBF764FD2878BDE87040FCF72FBD00BF72
:106C3C008A500120C0470020A050012070B50120CF
