:0200000460009A
:100000004643464200000156000000000103030081
:1000100000000000000000000000000000000000E0
:1000200000000000000000000000000000000000D0
:1000300000000000000000000000000000000000C0
:1000400000000000010408000000000000000000A3
:100050000000800000000000000000000000000020
:100060000000000000000000000000000000000090
:100070000000000000000000000000000000000080
:10008000EB04180A063204260000000000000000FD
:10009000050404240000000000000000000000002F
:1000A0000000000000000000000000000000000050
:1000B0000604000000000000000000000000000036
:1000C0000000000000000000000000000000000030
:1000D00020041808000000000000000000000000DC
:1000E0000000000000000000000000000000000010
:1000F0000000000000000000000000000000000000
:10010000D8041808000000000000000000000000F3
:100110000204180804200000000000000000000095
:1001200000000000000000000000000000000000CF
:10013000600400000000000000000000000000005B
:1001400000000000000000000000000000000000AF
:10015000000000000000000000000000000000009F
:10016000000000000000000000000000000000008F
:10017000000000000000000000000000000000007F
:10018000000000000000000000000000000000006F
:10019000000000000000000000000000000000005F
:1001A000000000000000000000000000000000004F
:1001B000000000000000000000000000000000003F
:1001C000000100000010000001000000000000001D
:1001D000000001000000000000000000000000001E
:1001E000000000000000000000000000000000000F
:1001F00000000000000000000000000000000000FF
:10020000FFFFFFFFFFFFFFFFFFFFFFFFFFFFFFFFFE
:10021000FFFFFFFFFFFFFFFFFFFFFFFFFFFFFFFFEE
:10100000D100204325160060000000000000000011
:1010100020100060001000600098016000000000D7
:101020000000006000A4010000000000FFFFFFFFBF
:10103000FFFFFFFFFFFFFFFFFFFFFFFFFFFFFFFFC0
:10104000FFFFFFFFFFFFFFFFFFFFFFFFFFFFFFFFB0
:10105000FFFFFFFFFFFFFFFFFFFFFFFFFFFFFFFFA0
:10106000FFFFFFFFFFFFFFFFFFFFFFFFFFFFFFFF90
:10140000884207D0904205D251F8043B40F8043B93
:101410008242F9D8704700BF884204D2002340F8C6
:10142000043B8142FBD870472DE9884800F012F94F
:101430000824614B614AC3F8544161496148FFF790
:10144000DFFF614A61496248FFF7DAFF614962489C
:10145000FFF7E2FF614C4FF0E0214FF470000023F2
:101460005F4AC1F8880D44F823200133B02BFAD12C
:101470005C4B80215C4A03F8011B9342FBD14FF087
:10148000E0254D4E4FF08039DFF88CB1DFF88CA1AC
:101490004FF0FF31C5F8084D0027C6F80491C6F893
:1014A00000B1C6F8F490C6F8F0A0D5F8243DDFF8F6
:1014B000708143F4E0234D4AC5F8243DD8F81C3030
:1014C00023F07F0343F04003C8F81C30D8F82430E1
:1014D00023F07F0343F04003C8F824309166D166BF
:1014E0001167516700F0BEF8414B4249A363424B7C
:1014F000E36363236B610323AF612B613F4BC5F84B
:10150000203DD5F8FC3D43F08073C5F8FC3D3C4BD5
:101510001A6842F001021A605B680B6000F0E0FAA2
:10152000C6F804913748C6F800B1C6F8F490C6F87A
:10153000F0A000F085FCD8F86C10334B334A41F42E
:101540004051C8F86C101F60C3F80871C3F81871D7
:10155000C3F82871C3F83871936BDB0708D442F6DF
:1015600015632B4951651365936B43F00103936336
:10157000264A284C936843F00113936000F0EEF87C
:1015800000F012FC00F040FC00F0D8FA00F064F823
:101590002368132BFCD900F069FB2368B3F5967F11
:1015A000FBD300F05DF800F059F800F045FC00F0C6
:1015B0003FFC30BFFDE700BF00800D401826010052
:1015C0005C1F006000000000C04E002078450160F4
:1015D00000000020E0880120C04E0020004C0020C8
:1015E00039A2000000E400E0A0E400E000C00A40EE
:1015F00051B600006888012055B600000000202088
:10160000001000E00046C3230040084000400D40A9
:101610000000C0566C8801201B1018200C0D1113FF
:1016200000C00F40074B4FF42A01074A07485A648D
:101630001864074A99639546BFF34F8FBFF36F8FC6
:10164000FFF7F2FE00C00A40BFAAAAAA07002000C6
:1016500000800620704700BF704700BF704700BF82
:1016600000BF704710B44FF0E023002110242B4836
:10167000C3F8941DC3F89C4D1124C3F8A00D28484D
:10168000C3F89C4D1224C3F8A00D2648C3F89C4D06
:10169000254AC3F8A00D254C42F015022448C3F892
:1016A0009C4DC3F8A00D234C2348C3F89C4DC3F8B0
:1016B000A00D224CC3F89C2D2148224AC3F8A04D0E
:1016C000C3F89C0DC3F8A02D02F5A0221E4C0C32CD
:1016D0001E48C3F89C4DC3F8A02D1D4AC3F89C0DAD
:1016E0001C4CC3F8A02D01221B48C3F89C4DC3F825
:1016F000A00DC3F8942DBFF34F8FBFF36F8FC3F8C6
:10170000501FBFF34F8FBFF36F8FD3F8142D5DF8C9
:10171000044B42F44032C3F8142D70473F000010D0
:101720002500080309001000E088012013002000B4
:1017300021000207140000202500081309000010F2
:101740001600202027000B1317000040180000602F
:101750002F000B07190000702F000B13F0B5B84BCA
:101760001822B84E0120B84F83B0C3F85C62B74965
:10177000C3F86072B64DC3F86462A6F53046B54C46
:10178000C3F86862C3F86C52C3F87052C3F874525D
:10179000C3F8785248F20C75DA661A675A679A6786
:1017A000DA67C3F88020C3F88420C3F88820C1F822
:1017B0002C03A94AC1F83003C1F83403C1F8380337
:1017C000C1F83C03C1F85003A169A44B0A40A448E6
:1017D000A4491343A44AA361D4F8843043F00C0312
:1017E000C4F884304FF0FF34036843F00203036011
:1017F00003682B404FF400551A439C4B0260446031
:101800008A689B4C13409B4A43F000538360C36833
:1018100023F07803C360036A134023430362036A1F
:101820001340954A2343954C43628262C262002270
:10183000D1F8B83023F03F0343F00103C0F8B830CB
:10184000D1F8BC308E4923F03F0343F00103C0F8C8
:10185000BC3040F20563026105660467C0F8803061
:10186000456644670224C0F88430036823F002030D
:1018700003608161834B8449C46143F8042B8B422C
:10188000FBD1774A136843F001031360136813F028
:101890000103FBD17A48022140F2F564906140F2E5
:1018A0009940D16140F26641C2F8004242F20144DF
:1018B000C2F810127549C2F82002C2F8301240F284
:1018C00035417348C2F83442C2F84012714CC2F834
:1018D000500242F201207049C2F854120121C2F8AC
:1018E0006042C2F864025E48C2F8A030C2F8A43078
:1018F000C2F8B0104369DA07FCD5012300244FF485
:10190000803257494361C0F8A040C0F8A420C0F815
:10191000B0304B69DB07FCD5012300244FF40030C5
:101920004F4A4B61C1F8A040C1F8A400C1F8B030E3
:101930005369DF07FCD50123002458484849536107
:10194000C2F8A040C2F8A400C2F8B0304B69DE076C
:10195000FCD5D1F8003145F60D5221209BB24861EB
:10196000934265D100244FF4802201233C48C1F802
:10197000A040C1F8A420C1F8B0304369DD07FCD510
:1019800001234FF400040021354A4361C0F8A04010
:10199000C0F8A410C0F8B0305369DC07FCD50123AF
:1019A0004FF400044FF480302D495361C2F8A04039
:1019B000C2F8A400C2F8B0304B69D807FCD50123A7
:1019C0004FF400044FF40030254A4B61C1F8A040A9
:1019D000C1F8A400C1F8B0305369D907FCD5012380
:1019E0004FF400042D481E495361C2F8A040C2F8CC
:1019F000A400C2F8B0304B69DA07FCD5D1F8003149
:101A000045F60D5221209BB24861934250D00825E3
:101A10004FF4000422490020224B234A0090157005
:101A20005A1A01232148224400F0FEF903B0F0BD08
:101A30001E4B0022C3E90022C3E9022203B0F0BD1D
:101A400000801F40F9B00100F910010000841F4020
:101A5000F970010000C00F40FFFCFF1F000300A051
:101A600000402A4000802A401200FFFFFF37F700A5
:101A70004000008000FFF07CFF000F836300020045
:101A8000F05AF05A00422A4000432A409F0418307E
:101A9000EB06180A3806180A06320126040003006D
:101AA00000000070000000709F880120E0530020BB
:101AB0004FF400044FF4802201230848C1F8A040ED
:101AC000C1F8A420C1F8B0304369DB07FCD501237D
:101AD00010254FF0807443619CE700BF00402A400E
:101AE000F0B4154A40274FF480314FF480564FF43C
:101AF00000554FF4404443F24200136913F0020FC3
:101B00000ED113F4005F0FD013F4805F0ED0002BC2
:101B1000F3DA13F4803F0BD15B060BD5F0BC7047B2
:101B2000946151619061E8E75561E6E75661E4E749
:101B30009161E2E75761E0E700800D403F4A0320F2
:101B40003F49F3EE095AD2F880304FF0000C9FED78
:101B50003D6A23F001039FED3C5A30B4C2F8803057
:101B6000C2F89000D1F8E010384DCBB2384C39486B
:101B70002B6007EE903A0B0DC1F30B21F8EEE77ADC
:101B800006EE903A07EE101A334BB8EEC77A216092
:101B9000F8EEE66A314937EEC66A37EEC55A76EE98
:101BA000C76A77EEE57A26EE266AC3ED006A25EE6F
:101BB000265AD2F8803067EEA64AC0ED007AC6EE0B
:101BC000275A274885EE276AC4EEA76A75EE875A1A
:101BD000FCEEE55A36EE076A15EE904ABCEEC66A90
:101BE00043EA045376EE877AC2F8803016EE103A54
:101BF000D2F89041FCEEE77A01EA0341214317EE67
:101C0000903AC2F89011C3F30B03D2F890110B4332
:101C10001449C2F89031D2F8803043F00203C2F880
:101C20008030114B80F840C0C1F840314FF0E023C4
:101C3000012230BCC3F80821704700BF00810D406D
:101C400000441F400000AA420000B442588801200E
:101C5000548801205C880120608801200000FF0F6B
:101C600000E400E0004C002015A40000314B40F6D9
:101C7000617210B5C3F8202140F2044400F0CCF8A2
:101C80002D4A2E49D2F880302D4843F00303C2F884
:101C900080302C4BC1F8604102681A4203D1D1F860
:101CA000A8319A071BD0254A4FF00041244B5963B5
:101CB000D2F8403143F00203C2F84031D2F840314B
:101CC0009B07FBD44FF400304FF0E0211C4B4FF04A
:101CD0000042C1F88C0219209A6300F099F8184A62
:101CE0004FF08040154C002190630A20164B116084
:101CF0004FF42072C4F8A801184600F091F84FF490
:101D0000800203464FF4810040F243111860C4F88A
:101D100058311A640D4B0E4AC4F84811C3F8042216
:101D20004FF0E0224FF400310123C2F80C11C4F847
:101D3000403110BD00800D4000C00F4000002E401B
:101D400000900D40001C1E0000000020004C0020F0
:101D5000FDA5000008B50E4B1B6E9B0700D4FBBE13
:101D600072B60C4B00200C4AC3F8400103F16043EB
:101D70000A49A3F55F2311649D46BFF34F8F4FF4CB
:101D800000130748074ADB6902609B68984700BF59
:101D900000441F4000002E4000C00A400300200005
:101DA00000802020000012EB104BA020104AD96EBA
:101DB00041F4403110B4D96640F23764D96E41F431
:101DC0004071D96654649064936C1B06FCD4094A34
:101DD00040F23761A02351649364936C13F0800345
:101DE000FBD1054A13705DF8044B704700C00F40EB
:101DF00000400C4000800C4099880120F8B500BFDD
:101E0000F8BC08BC9E4670475FF800F0E1B90000DE
:101E10005FF800F0799F00005FF800F06DAD000002
:101E20005FF800F0F1CB00005FF800F049BB000064
:101E30005FF800F091A000005FF800F0A9CE00006C
:101E40005FF800F075B6000045000000619A0000E0
:101E50001603550053004200200053006500720035
:101E6000690061006C000000180354006500650003
:101E70006E00730079006400750069006E006F00E9
:101E80000403090409026200030100C032080B00C8
:101E900002020201000904000001020201000524FF
:101EA0000010010524010101042402060524060096
:101EB000010705820310001009040100020A000056
:101EC00000070503024000000705840240000009E6
:101ED00004020002FF6AFF000705810240000107BB
:101EE000050102400001000009026200030100C078
:101EF00032080B0002020201000904000001020284
:101F0000010005240010010524010101042402063A
:101F100005240600010705820310000509040100DD
:101F2000020A000000070503020002000705840200
:101F30000002000904020002FF6AC70007058102CF
:101F40000002010705010200020100000A0600026A
:0C1F5000EF020140010000000000000052
:101F5C000000000000000000000000000000000075
:101F6C000000000000000000000000000000000065
:101F7C000548064B1B1AD90F01EBA301491002D0DF
:101F8C00034B03B118477047C04E0020C04E0020D1
:101F9C000000000008B5054B1BB105490548AFF31F
:101FAC000080BDE80840FFF7E3BF00BF0000000061
:101FBC000054012000A4016038B50D46044609F018
:101FCC00EBFD05F1100104F1100009F0E5FD05F140
:101FDC00200104F1200009F0DFFD95F8303084F881
:101FEC00303095F8313084F8313038BD38B5094C83
:101FFC00094D04F1200009F077FD04F1100009F0FF
:10200C0073FD204609F070FDAC42A4F13404F0D10C
:10201C0038BD00BFE48701201854012038B50446B0
:10202C0049B108460D460DF0F3F8236802462946DF
:10203C005B68204698472046BDE8384009F014BD3F
:10204C0010B50446203009F04FFD04F1100009F0E2
:10205C004BFD204609F048FD204610BD2DE9F04F00
:10206C008FB0D54CD54940F2032A01A8D44D09F0C4
:10207C0077FD214605A8D34F09F072FDD24909A876
:10208C00DFF8809309F06CFD40F2071301A9284694
:10209C00ADF83430FFF790FF09A8CC4E09F024FDC1
:1020AC0005A809F021FD01A809F01EFD394601A87B
:1020BC00DFF8548309F054FDC54905A84FF4417B62
:1020CC0009F04EFD494609A809F04AFD01AA40F263
:1020DC00062305F134001146ADF83430FFF76CFFE0
:1020EC0001A8FFF7ADFF394601A809F039FD05A895
:1020FC00B84909F035FD494609A809F031FD01AA96
:10210C0005F58270ADF834A01146DFF800A3FFF797
:10211C0053FF01A8FFF794FF514601A809F020FDD9
:10212C00AC4905A809F01CFD314609A809F018FDB9
:10213C0040F2052201A905F59C70ADF83420FFF79B
:10214C003BFF01A8FFF77CFFA34901A809F008FD9C
:10215C00214605A809F004FD214609A809F000FD57
:10216C0040F2031301A905F5D070ADF83430FFF738
:10217C0023FF01A8FFF764FF394601A809F0F0FC22
:10218C0005A8964909F0ECFC494609A809F0E8FCB9
:10219C0040F2022301A905F5EA70ADF83430FFF7DF
:1021AC000BFF01A8FFF74CFF514601A809F0D8FC22
:1021BC008B4A05A8114609F0D3FC314609A809F051
:1021CC00CFFC4FF4817301A905F50270ADF83430E2
:1021DC00FFF7F2FE01A8FFF733FF394601A809F01B
:1021EC00BFFC414605A809F0BBFC494609A809F00B
:1021FC00B7FC01A905F52970ADF834B0FFF7DCFE8A
:10220C0001A8FFF71DFF514601A809F0A9FC4146A2
:10221C0005A809F0A5FC314609A809F0A1FC40F27B
:10222C00063C01A905F53670ADF834C0FFF7C4FEC5
:10223C0001A8FFF705FF6B4901A809F091FC6A4959
:10224C0005A809F08DFC214609A809F089FC40F28B
:10225C00022201A905F55070ADF83420FFF7ACFE51
:10226C0001A8FFF7EDFE394601A809F079FC05A895
:10227C005E4909F075FC494609A809F071FC40F269
:10228C00052001A9ADF8340005F55D70FFF794FE4B
:10229C0001A8FFF7D5FE394601A809F061FC5449A5
:1022AC0005A809F05DFC494609A809F059FC4FF452
:1022BC00017001A9ADF8340005F24440FFF77CFE33
:1022CC000DF1040E7046FFF7BBFE0DF1040E5146E6
:1022DC00704609F045FC0DF1140E4549704609F0A5
:1022EC003FFC0DF1240E3146704609F039FC0DF11E
:1022FC00040E40F2062105F58F60ADF834107146DE
:10230C00FFF75AFE0DF1040E7046FFF799FE0DF122
:10231C00040E3849704609F023FC0DF1140E2146C9
:10232C00704609F01DFC0DF1240E3349704609F07E
:10233C0017FC0DF1040E4FF4817305F59C6071468A
:10234C00ADF83430FFF738FE0DF1040E7046FFF790
:10235C0077FE0DF1040E3946704609F001FC0DF1C3
:10236C00140E2649704609F0FBFB0DF1240E49466C
:10237C00704609F0F5FB0DF1040E05F21450ADF8A2
:10238C0034B07146FFF718FE0DF1040E7046FFF7DE
:10239C0057FE0DF1040E394640F20637704609F02F
:1023AC00DFFB0DF1140E1649704609F0D9FB0DF147
:1023BC00240E494670462BE07C0400207C0800204B
:1023CC001854012084080020800800209C0800205C
:1023DC008808002094080020A0080020A4080020F1
:1023EC00A8080020B0080020B4080020B80800207D
:1023FC00C0080020C8080020CC080020D00800200D
:10240C00D808002090080020AC0800209808002074
:10241C0009F0A6FB0DF1040E05F2E450ADF834B052
:10242C007146DFF890B3FFF7C7FD0DF1040E70464F
:10243C00FFF706FE0DF1040E514640F2032A7046DA
:10244C0009F08EFB0DF1140ECC49704609F088FB97
:10245C000DF1240E3146704609F082FB40F2073E26
:10246C0001A905F5C360ADF834E0FFF7A5FD01A89F
:10247C00FFF7E6FDC24901A809F072FB414605A829
:10248C0009F06EFB214609A809F06AFB01A905F5C4
:10249C00D060ADF83470BB4FFFF78EFD01A8FFF78D
:1024AC00CFFD394601A809F05BFBB74905A809F037
:1024BC0057FB494609A809F053FB40F2062105F2E7
:1024CC00B460ADF8341001A9FFF776FD01A90846F8
:1024DC00FFF7B6FD01AAAD49104609F041FB05AA6C
:1024EC00AB49104609F03CFB09AA5946104609F0C5
:1024FC0037FB01A905F5EA60ADF834A0FFF75CFDE8
:10250C0001A90846FFF79CFD01AA3946104609F0BF
:10251C0027FB05AA9E49104609F022FB09AA494649
:10252C00104609F01DFB01A905F28470ADF834A02A
:10253C00FFF742FD01A9DFF880A20846FFF780FDF6
:10254C0001AA5146104609F00BFB05AA904910460A
:10255C0009F006FB09AA3146104609F001FB40F2CE
:10256C00052C01A905F5F760ADF834C0FFF724FD83
:10257C0001A90846FFF764FD864901A809F0F0FAA5
:10258C00214605A809F0ECFA214609A809F0E8FA59
:10259C004FF4827105F50260ADF8341001A9FFF714
:1025AC000BFD01A90846FFF74BFD394601A809F0C0
:1025BC00D7FA794905A809F0D3FA494609A809F0D0
:1025CC00CFFA40F2022201A905F65400ADF83420EE
:1025DC00FFF7F2FC01A90846FFF732FD514601A8AE
:1025EC0009F0BEFA6D4A05A8114609F0B9FA314650
:1025FC0009A809F0B5FA4FF4817301A905F6880012
:10260C00ADF83430FFF7D8FC01A90846FFF718FDE8
:10261C005E4901A809F0A4FA414605A809F0A0FA00
:10262C00594609A84FF4417B09F09AFA01A905F51E
:10263C000F60ADF834B0FFF7BFFC01A90846FFF7F7
:10264C00FFFC394601A809F08BFA414605A809F0B0
:10265C0087FA494609A809F083FA01A905F624105E
:10266C00ADF834B0FFF7A8FC01A90846FFF7E8FC69
:10267C00514601A809F074FA414605A809F070FA10
:10268C00314609A809F06CFA40F2063E01A905F69C
:10269C005810ADF834E0FFF78FFC01A90846FFF79E
:1026AC00CFFC3F4901A809F05BFA3E4905A809F0A7
:1026BC0057FA214609A809F053FA40F2022201A95F
:1026CC0005F51C60ADF83420FFF776FC01A8FFF788
:1026DC00B7FC394601A809F043FA334905A809F0BB
:1026EC003FFA494609A809F03BFA01AA40F2052C29
:1026FC0005F6F4101146ADF834C0FFF75DFC01A8E7
:10270C00FFF79EFC394601A809F02AFA274905A8CB
:10271C0009F026FA494609A809F022FA01A84FF453
:10272C00017C014605F6C420ADF834C0FFF744FC2B
:10273C0001A8FFF785FC514601A809F011FA1B49C5
:10274C0005A809F00DFA314609A809F009FA01AA01
:10275C0040F206201146ADF8340005F6F820FFF7DC
:10276C002BFC01A8FFF76CFC114901A809F0F8F942
:10277C00214605A809F0F4F920E000BFD808002094
:10278C00E0080020E408002088080020E808002069
:10279C0094080020F4080020A4080020A8080020B9
:1027AC00F8080020B4080020B8080020C008002059
:1027BC00FC080020EC080020F0080020CE4909A8F5
:1027CC0009F0CEF94FF4817305F53660ADF834306D
:1027DC0001AB1946FFF7F0FB01A8FFF731FC3946B6
:1027EC0001A809F0BDF9C54905A809F0B9F9494690
:1027FC0009A809F0B5F901AB05F69430ADF834B081
:10280C001946FFF7D9FB01A8FFF71AFC394601A8B6
:10281C0001AF09F0A5F9BA4905A809F0A1F9494693
:10282C0009A809F09DF9394605F66440ADF834B0B5
:10283C00FFF7C2FB3846FFF703FC5146384640F21F
:10284C00073709F08DF9AE4905A84FF4837B09F0E1
:10285C0087F9314609A8DFF8DCA209F081F9ADF857
:10286C00347005F6984701A93846FFF7A5FB01A877
:10287C00FFF7E6FBA34901A809F072F9214605A868
:10288C0009F06EF9A04909A809F06AF901A905F542
:10289C005060ADF834B0FFF78FFB01A8FFF7D0FB09
:1028AC00514601A8DFF890B209F05AF9974905A8EA
:1028BC0009F056F9494609A809F052F940F20620E8
:1028CC0001A9ADF8340005F63450FFF775FB01A8EB
:1028DC00FFF7B6FB514601A809F042F98C4905A84F
:1028EC0009F03EF9494609A809F03AF940F2032EDD
:1028FC0001A905F60460ADF834E0FFF75DFB01A813
:10290C00FFF79EFB594601A809F02AF9804905A852
:10291C0009F026F9314609A809F022F940F20521FF
:10292C0005F63860ADF8341001A9FFF745FB01A896
:10293C00FFF786FB774901A809F012F9214605A893
:10294C0009F00EF9214609A809F00AF940F203131F
:10295C0001A905F56A60ADF83430FFF72DFB01A82D
:10296C00FFF76EFB514601A809F0FAF86A4905A871
:10297C0009F0F6F8494609A809F0F2F801AA40F264
:10298C00022105F6D460ADF834101146FFF714FBA4
:10299C0001AA1046FFF754FB01AA5946104609F04C
:1029AC00DFF85E4A114605AA104609F0D9F809AAC3
:1029BC003146104609F0D4F801AB4FF4817205F69C
:1029CC0008701946ADF83420FFF7F6FA01AB18463B
:1029DC00FFF736FB01AB5249184609F0C1F805ABBD
:1029EC004146184609F0BCF809AB2146184609F0D7
:1029FC00B7F840F2033305F57760ADF8343001AB2E
:102A0C001946FFF7D9FA01AB1846FFF719FB01ABD2
:102A1C005146184609F0A4F805AB4146184609F092
:102A2C009FF809AB4946184609F09AF84FF44173E0
:102A3C0005F6A470ADF8343001AB1946FFF7BCFABB
:102A4C0001A8FFF7FDFA594601A809F089F841469B
:102A5C0005A809F085F8314609A809F081F801AB01
:102A6C0040F2063E05F6D8701946ADF834E0FFF793
:102A7C00A3FA01A8FFF7E4FA2A4901A809F070F8B3
:102A8C00294905A809F06CF8214609A809F068F84D
:102A9C0001AA40F2022105F58250ADF8341011461E
:102AAC00FFF78AFA01A8FFF7CBFA514601A809F003
:102ABC0057F81E4905A809F053F8494609A809F02A
:102ACC004FF80DF1040C40F2052107F57770ADF8C5
:102ADC0034106146FFF770FA01A8FFF7B1FA5146BE
:102AEC0001A809F03DF8124905A809F039F8494642
:102AFC0009A809F035F821E0CC080020D008002006
:102B0C00D8080020000900200409002088080020B3
:102B1C009408002014090020A4080020A808002014
:102B2C00180900201C090020B4080020B808002057
:102B3C00C00800200C0900201009002001AA4FF445
:102B4C00017C07F2AC401146ADF834C0FFF734FA03
:102B5C0001A8FFF775FA594601A809F001F8DA49FE
:102B6C0005A808F0FDFF314609A808F0F9FF01AAF5
:102B7C0040F206201146ADF8340007F59C60FFF7D3
:102B8C001BFA01A8FFF75CFAD04901A808F0E8FF8E
:102B9C00214605A808F0E4FFCD4B09A8194608F01A
:102BAC00DFFF01AB4FF4817205F58F501946ADF87C
:102BBC003420FFF701FA01A8FFF742FA514601A8A9
:102BCC0008F0CEFFC34905A808F0CAFF494609A87A
:102BDC0008F0C6FF0DF1040C4FF4417307F27C5062
:102BEC006146ADF83430FFF7E7F901A8FFF728FA92
:102BFC0051460DF1040A50460DF1140A08F0B0FFCD
:102C0C00B54950460DF1240A08F0AAFF4946504632
:102C1C000DF1040A08F0A4FF4FF44173514607F27A
:102C2C004C60ADF83430FFF7C7F9504640F2073925
:102C3C00FFF706FA50460DF1140A594608F090FFBA
:102C4C00A54950460DF1240A08F08AFF314650463A
:102C5C000DF1040A08F084FF07F5D0605146ADF879
:102C6C003490FFF7A9F95046FFF7EAF950460DF1F9
:102C7C00140A9A4908F074FF214650460DF1240AB3
:102C8C0008F06EFF4FF4837B50460DF1040A214689
:102C9C00DFF8749208F064FF514605F59C50ADF8CE
:102CAC0034B0DFF868B2FFF787F9504640F20525DB
:102CBC00FFF7C6F950460DF1140A594608F050FFBB
:102CCC00874950460DF1240A08F04AFF4946504600
:102CDC000DF1040A08F044FF40F206205146ADF80D
:102CEC00340007F21C70FFF767F95046FFF7A8F99C
:102CFC0050460DF1140A594608F032FF79495046F6
:102D0C000DF1240A08F02CFF494650460DF1040A37
:102D1C0008F026FF40F2032E514607F2EC70ADF896
:102D2C0034E0FFF749F95046FFF78AF950460DF1A8
:102D3C00140A6D4908F014FF6A4950460DF1240A33
:102D4C0008F00EFF314650460DF1040A08F008FF5A
:102D5C00ADF8345007F502655146DFF8B4A12846AA
:102D6C00FFF72AF901A8FFF76BF9604901A808F0F1
:102D7C00F7FE214605A808F0F3FE214609A808F045
:102D8C00EFFE4FF4827107F68800ADF8341001A9FC
:102D9C00FFF712F901A8FFF753F9594601A808F0FB
:102DAC00DFFE534905A808F0DBFE494609A808F0E8
:102DBC00D7FE40F2022107F6BC00ADF8341001A991
:102DCC00FFF7FAF801A8FFF73BF9474901A808F00B
:102DDC00C7FE484A05A8114608F0C2FE314609A8AC
:102DEC0008F0BEFE4FF4817201A907F50F60ADF833
:102DFC003420FFF7E1F801A8FFF722F93E4901A8BA
:102E0C0008F0AEFE3D4905A808F0AAFE214609A827
:102E1C0008F0A6FE40F2053C01A907F65810ADF8E3
:102E2C0034C0FFF7C9F801A8FFF70AF9594601A801
:102E3C0008F096FE414605A808F092FE494609A8FE
:102E4C0008F08EFE4FF4417301A907F68C10ADF813
:102E5C003430FFF7B1F801A8FFF7F2F8224901A8C6
:102E6C0008F07EFE414605A808F07AFE314609A816
:102E7C0008F076FE40F2063E01A907F51C60ADF89D
:102E8C0034E0FFF799F801A8FFF7DAF81C4901A81C
:102E9C0008F066FE1B4905A808F062FE214609A849
:102EAC0008F05EFE4FF4017C01A907F62820ADF86E
:102EBC0034C0FFF781F801A8FFF7C2F8594601A802
:102ECC0008F04EFE26E000BFC008002020090020BC
:102EDC0024090020D0080020D80800202809002050
:102EEC008808002094080020380900203C090020A4
:102EFC00A4080020A8080020180900204009002080
:102F0C0048090020B4080020300900202C090020BA
:102F1C0050090020CA4905A808F022FE494609A814
:102F2C0008F01EFE4FF4017C01A907F65C20ADF8F9
:102F3C0034C0FFF741F801A8FFF782F8594601A801
:102F4C0008F00EFEBF4905A808F00AFE494609A87C
:102F5C0008F006FE4FF4017C01A907F62C30ADF801
:102F6C0034C0FFF729F801A8FFF76AF8B64901A8A1
:102F7C0008F0F6FDB34905A808F0F2FD314609A8A2
:102F8C0008F0EEFD40F2062001A9ADF8340007F57B
:102F9C003660FFF711F801A8FFF752F8AB4901A80A
:102FAC0008F0DEFD214605A808F0DAFDA84B09A8BB
:102FBC00194608F0D5FD4FF4817201A907F6C83007
:102FCC00ADF83420FEF7F8FF01A8FFF739F85946A1
:102FDC0001A808F0C5FD9F4905A808F0C1FD4946A8
:102FEC0009A808F0BDFD4FF4417301A907F6FC30A8
:102FFC00ADF83430FEF7E0FF01A8FFF721F8594691
:10300C0001A8DFF874B208F0ABFD934905A808F0ED
:10301C00A7FD494609A8DFF8649208F0A1FD4FF41A
:10302C00417301A907F6CC40ADF83430FEF7C4FF6C
:10303C0001A840F20327FFF703F8834901A808F021
:10304C008FFD854905A808F08BFD314609A808F0CD
:10305C0087FD05F59C6240F2073301A91046ADF8D7
:10306C003430FEF7A9FF01A8FEF7EAFF514601A88C
:10307C0008F076FD794905A808F072FD214609A8EB
:10308C0008F06EFD40F2062001A9ADF8340005F2FF
:10309C007C50FEF791FF01A8FEF7D2FF594601A81C
:1030AC0008F05EFD6E4905A808F05AFD214609A8F6
:1030BC0008F056FD01A905F5C360ADF83470FEF7B4
:1030CC007BFF01A8FEF7BCFF514601A808F048FDA4
:1030DC00634905A808F044FD214609A808F040FD05
:1030EC0001A905F24C60ADF83470FEF765FF01A83C
:1030FC00FEF7A6FF494601A808F032FD584905A87D
:10310C0008F02EFD214609A808F02AFD01A905F5B5
:10311C00D060ADF83470FEF74FFF01A8514FFEF7A9
:10312C008FFF514901A808F01BFD214605A808F0A6
:10313C0017FD394609A808F013FD4FF4817201A957
:10314C0005F5DD60ADF83420FEF736FF01A8FEF77B
:10315C0077FF464901A808F003FD214605A808F0B1
:10316C00FFFC394609A808F0FBFC4FF4817201A959
:10317C0005F5EA60ADF83420FEF71EFF01A8FEF756
:10318C005FFF594601A808F0EBFC414605A808F082
:10319C00E7FC214609A808F0E3FC4FF4417301A9B0
:1031AC0005F5F760ADF83430FEF706FF01A8FEF721
:1031BC0047FF514601A808F0D3FC414605A808F08A
:1031CC00CFFC214609A808F0CBFC4FF4417301A9B0
:1031DC0005F2EC70ADF83430FEF7EEFE01A8FEF708
:1031EC002FFF494601A808F0BBFC414605A808F092
:1031FC00B7FC214609A808F0B3FC4FF4417301A9B0
:10320C0005F50260ADF83430FEF7D6FE01A8FEF7E6
:10321C0017FF174901A808F0A3FC164905A808F0E8
:10322C009FFC214609A808F09BFC40F2022105F600
:10323C008800ADF8341001A9FEF7BEFE01A81FE00E
:10324C00B8080020C0080020380900204C090020D4
:10325C0024090020D0080020D8080020880800206D
:10326C0094080020900800205C09002060090020D0
:10327C0064090020B40800205409002058090020DB
:10328C00FEF7DEFE514601A808F06AFCD84905A8F5
:10329C0008F066FC214609A808F062FC40F2062002
:1032AC0001A9ADF8340005F6BC00FEF785FE01A8B7
:1032BC00FEF7C6FE594601A84FF4017B08F050FCFE
:1032CC00CC4905A808F04CFC214609A808F048FC9C
:1032DC000DF1040C05F65810ADF834B06146FEF74C
:1032EC006BFE0DF1040C6046FEF7AAFE0DF1040C0A
:1032FC005146604608F034FC0DF1140CBD49604693
:10330C0008F02EFC0DF1240C2146604608F028FC38
:10331C0001A905F68C10ADF834B0FEF74DFE01A8EE
:10332C00FEF78EFE494601A84FF4817908F018FC8F
:10333C00B14B05A8DFF8E4B2194608F011FC2146A0
:10334C0009A808F00DFC4FF4017C01A905F51C60DF
:10335C00ADF834C0FEF730FE01A8FEF771FEA749A8
:10336C0001A808F0FDFB214605A808F0F9FB394639
:10337C0009A808F0F5FB01AA05F62820ADF8349051
:10338C001146FEF719FE01AA1046FEF759FE01AAD6
:10339C005146104608F0E4FB05AA9949104608F07E
:1033AC00DFFB09AA2146104608F0DAFB40F2053291
:1033BC0005F65C20ADF8342001AA1146FEF7FCFDA1
:1033CC0001AA1046FEF73CFE01AA8E49104608F0F1
:1033DC00C7FB05AA2146104608F0C2FB09AA2146E4
:1033EC00104608F0BDFB01A905F52960ADF8349035
:1033FC00FEF7E2FD01A8FEF723FE51460DF1040A8B
:10340C00DFF81C9250460DF1140A08F0A9FB7E4916
:10341C0050460DF1240A08F0A3FB2146504640F219
:10342C00053A08F09DFB05F62C30ADF834A00DF1F3
:10343C00040A5146FEF7C0FD5046FEF701FE504609
:10344C000DF1140A594608F08BFB704950460DF1EA
:10345C00240A08F085FB394650460DF1040A08F0A1
:10346C007FFB40F2022105F6C830ADF8341051460E
:10347C00FEF7A2FD5046FEF7E3FD50460DF1140A8F
:10348C00494608F06DFB624950460DF1240A08F0DC
:10349C0067FB39465046DFF88CA108F061FB01AAA6
:1034AC0040F206201146ADF8340005F6FC30FEF76C
:1034BC0083FD01AA1046FEF7C3FD01AA5146104632
:1034CC0008F04EFB05AA5149104608F049FB09AA21
:1034DC003946104608F044FB01AA40F2022105F5DA
:1034EC004360ADF834101146FEF766FD01AA104694
:1034FC00FEF7A6FD01AA5946104608F031FB05AAB5
:10350C004449104608F02CFB09AA3946104608F02D
:10351C0027FB01AA40F2032E05F698401146ADF8A0
:10352C0034E0FEF749FD01AA1046FEF789FD01AA19
:10353C004946104608F014FB05AA3649104608F017
:10354C000FFB09AA3946104608F00AFB01AA40F203
:10355C00032E05F6CC401146ADF834E0FEF72CFDF9
:10356C0001AA1046FEF76CFD01AA5146104608F060
:10357C00F7FA05AA2749104608F0F2FA09AA3946C3
:10358C00104608F0EDFA01AA40F2032E05F5506042
:10359C001146ADF834E0FEF70FFD01AA1046FEF718
:1035AC004FFD01AA1C49104608F0DAFA05AA21467B
:1035BC00104608F0D5FA09AA3946104608F0D0FA98
:1035CC004FF4817201A905F66850ADF83420FEF76E
:1035DC00F3FC01A8FEF734FD494601A808F0C0FA37
:1035EC000A4905A808F0BCFA394609A81CE000BF36
:1035FC00B8080020C00800206809002070090020CD
:10360C00D008002074090020D8080020A40800204D
:10361C0088080020940800208409002078090020E4
:10362C007C0900208009002008F09AFA40F202215F
:10363C0005F69C50ADF8341001A9FEF7BDFC01A8AD
:10364C00FEF7FEFCD24901A808F08AFA214605A82B
:10365C0008F086FA394609A808F082FA4FF481720C
:10366C0001A905F55D60ADF83420FEF7A5FC01A8B5
:10367C00FEF7E6FC594601A808F072FA414605A887
:10368C0008F06EFA394609A808F06AFA4FF441734B
:10369C0001A905F63860ADF83430FEF78DFC01A8B1
:1036AC00FEF7CEFC494601A808F05AFA414605A897
:1036BC0008F056FA394609A808F052FA4FF441734B
:1036CC0005F66C60ADF8343001AB1946FEF774FCAE
:1036DC0001AB1846FEF7B4FC01AB5146184608F096
:1036EC003FFA05AB41464FF44178184608F038FADA
:1036FC0009AB3946184608F033FA01AB05F56A6098
:10370C00ADF834801946FEF757FC01AB1846FEF7AE
:10371C0097FC01AB9F49184608F022FA05AB9E496D
:10372C00184608F01DFA09AB2146184608F018FA9D
:10373C0001AB40F2022105F60870ADF834101946C1
:10374C00FEF73AFC01AB1846FEF77AFC01AB494692
:10375C00184608F005FA05AB9049184608F000FA2F
:10376C0009AB3946184608F0FBF901AB40F20521CC
:10377C0005F63C70ADF834101946FEF71DFC01AB94
:10378C001846FEF75DFC01AB5946184608F0E8F9FF
:10379C0005AB8349184608F0E3F909AB39461846DE
:1037AC0008F0DEF901AB4FF4017C05F6D870194630
:1037BC00ADF834C0FEF700FC01AB1846FEF740FC38
:1037CC0001AB4946184608F0CBF905AB74491846CD
:1037DC0008F0C6F909AB3946184608F0C1F905F5E9
:1037EC009C6201AB4FF4017C02F62C301946ADF80B
:1037FC0034C0FEF7E1FB01AB1846FEF721FC01AB30
:10380C005146184608F0ACF9664B194605AB1846FC
:10381C0008F0A6F909AB3946184608F0A1F901AB36
:10382C004FF4017C05F5825019465F4DADF834C05C
:10383C00FEF7C2FB01AB1846FEF702FC01AB5B497D
:10384C00184608F08DF905AB2146184608F088F9A2
:10385C0009AB5749184608F083F901AB4FF4817254
:10386C0028461946ADF83420FEF7A6FB01AB1846E6
:10387C00FEF7E6FB01AB4946184608F071F905ABBB
:10388C004C49184608F06CF909AB3946184608F053
:10389C0067F901AB05F13400ADF834801946FEF739
:1038AC008BFB01AB1846FEF7CBFB01AB424918462C
:1038BC0008F056F905AB2146184608F051F909AB4A
:1038CC002146184608F04CF901AB4FF4817205F112
:1038DC0068001946ADF83420FEF76EFB01AB1846B4
:1038EC00FEF7AEFB01AB59460DF1040B184608F080
:1038FC0037F905AB3149184608F032F909AB3946AE
:10390C00184608F02DF901AB05F1D000ADF8348064
:10391C001946FEF751FB01AB1846FEF791FB01ABC4
:10392C004946DFF89C90184608F01AF905AB234974
:10393C00184608F015F909AB3946184608F010F985
:10394C0001AB05F58270ADF834801946FEF734FBF7
:10395C0001AB1846FEF774FB01AB51460DF1040A9E
:10396C00184608F0FDF805AB1249184608F0F8F8AF
:10397C0009AB3946184608F0F3F8514605F59C702A
:10398C00DFF840A0ADF83480FEF716FB1CE000BF5A
:10399C00880900208C090020B4080020B8080020F9
:1039AC00C0080020680900207879012090090020C7
:1039BC0094090020D008002098090020D808002085
:1039CC00A40900209C0900205846DFF89883FEF7D4
:1039DC0037FB58460DF1140B514608F0C1F8D64987
:1039EC0058460DF1240B08F0BBF8314658460DF142
:1039FC00040B08F0B5F840F2022105F5D070ADF8D3
:103A0C0034105946FEF7D8FA5846FEF719FB5846BB
:103A1C000DF1140B414608F0A3F8C84958460DF1B6
:103A2C00240B08F09DF8314658460DF1040B08F0B4
:103A3C0097F840F206205946ADF8340005F5EA70C7
:103A4C00FEF7BAFA5846FEF7FBFA58460DF1140B7E
:103A5C00514608F085F8BA4958460DF1240B08F088
:103A6C007FF83146584640F2032B08F079F801AB49
:103A7C0005F51C70ADF834B01946FEF79DFA01AB94
:103A8C001846FEF7DDFA01AB4146184608F068F817
:103A9C0005ABAB49184608F063F809AB314618463C
:103AAC0008F05EF801AB05F52970ADF834B0194695
:103ABC00FEF782FA01AB1846FEF7C2FA01AB494693
:103ACC00184608F04DF805AB9D49184608F048F823
:103ADC0009AB3946184608F043F801AB40F2052E05
:103AEC0005F536701946ADF834E0FEF765FA01AB12
:103AFC001846FEF7A5FA01AB9249184608F030F8C3
:103B0C0005AB2146184608F02BF809AB21461846A0
:103B1C0008F026F801AB4FF4817205F55070194688
:103B2C00ADF83420FEF748FA01AB1846FEF788FAD8
:103B3C0001AB4146184608F013F805AB7E49184610
:103B4C0008F00EF809AB3146184608F009F801AB3D
:103B5C0040F2022105F55D70ADF834101946FEF700
:103B6C002BFA01AB1846FEF76BFA01AB76491846F7
:103B7C0007F0F6FF05AB2146184607F0F1FF09AB3D
:103B8C003946184607F0ECFF01AB4FF4817205F58E
:103B9C006A701946ADF83420FEF70EFA01AB1846E0
:103BAC00FEF74EFA51460DF1040A5046DFF8B8A163
:103BBC0007F0D6FF05AB5146184607F0D1FF09AB0D
:103BCC003146184607F0CCFF4FF4417301A905F5B7
:103BDC008260ADF83430FEF7EFF901A8FEF730FA49
:103BEC00414601A807F0BCFF514605A807F0B8FFF5
:103BFC00314609A807F0B4FF4FF4417301A905F24F
:103C0C004440ADF83430FEF7D7F901A8FEF718FAA6
:103C1C00494601A807F0A4FF514605A807F0A0FFEC
:103C2C00394609A807F09CFF40F2063E01A905F5AC
:103C3C008F60ADF834E0FEF7BFF901A8FEF700FA8B
:103C4C00424901A807F08CFF414A05A8114607F02C
:103C5C0087FF214609A807F083FF40F2022105F5F2
:103C6C009C60ADF8341001A9FEF7A6F901A8FEF787
:103C7C00E7F9414601A807F073FF364B05A8194632
:103C8C0007F06EFF314609A807F06AFF40F2052ED7
:103C9C0001A905F21450ADF834E0FEF78DF901A836
:103CAC00FEF7CEF9414601A807F05AFF2A4905A8AC
:103CBC0007F056FF314609A807F052FF4FF4017C7C
:103CCC0001A905F2E450ADF834C0FEF775F901A86E
:103CDC00FEF7B6F9494601A807F042FF1E4905A8B0
:103CEC0007F03EFF394609A807F03AFF40F20620DC
:103CFC0001A9ADF8340005F5C360FEF75DF901A824
:103D0C00FEF79EF9154901A807F02AFF214605A8E0
:103D1C0007F026FF124909A807F022FF4FF4817221
:103D2C0001A905F5D060ADF83420FEF745F901A8DE
:103D3C00FEF786F91AE000BFA408002088080020CE
:103D4C0094080020A8090020AC090020B00900202C
:103D5C00B4080020B8080020C0080020B4090020D6
:103D6C00B8090020A0090020AC080020414601A899
:103D7C0007F0F6FED34905A807F0F2FE314609A874
:103D8C0007F0EEFE4FF4417301A905F2B460ADF8F3
:103D9C003430FEF711F901A8FEF752F941460DF146
:103DAC00040840460DF1140807F0DAFEC6494046F7
:103DBC000DF1240807F0D4FE314640460DF10408FD
:103DCC0007F0CEFE4FF44173414605F28470ADF816
:103DDC003430FEF7F1F84046FEF732F940460DF16B
:103DEC001408494607F0BCFEB74940460DF12408BB
:103DFC0007F0B6FE40F2073940460DF1040839468B
:103E0C0007F0AEFE414605F5F760ADF83490FEF7CD
:103E1C00D3F84046FEF714F940460DF11408AB49AF
:103E2C0007F09EFEAA4940460DF1240807F098FEC3
:103E3C00314640460DF1040807F092FE40F2022193
:103E4C00DFF8B09205F50260ADF834104146FEF78C
:103E5C00B3F84046FEF7F4F8DFF89C82494601A817
:103E6C0007F07EFE9B4905A807F07AFE414609A89B
:103E7C0007F076FE40F20620ADF8340001A80146AA
:103E8C0005F65400FEF798F801A8FEF7D9F88F490B
:103E9C0001A807F065FE904905A807F061FE3146C0
:103EAC0009A807F05DFE01A8ADF834B0014605F590
:103EBC000F60FEF781F801A8FEF7C2F8494601A889
:103ECC0007F04EFE844905A807F04AFE414609A8B2
:103EDC0007F046FE01A8ADF834B00146DFF81CB27D
:103EEC0005F62410FEF768F801A8FEF7A9F8594664
:103EFC0001A807F035FE784905A807F031FE3946D0
:103F0C0009A807F02DFE01A840F2052E014605F682
:103F1C005810ADF834E0FEF74FF809A807F0E4FDAF
:103F2C0005A807F0E1FD01A807F0DEFD6B4901A82B
:103F3C0007F016FE214605A807F012FE394609A81F
:103F4C0007F00EFE01A84FF48172014605F51C60C6
:103F5C00ADF83420FEF730F801A8FEF771F84946A9
:103F6C0001A807F0FDFD5A4905A807F0F9FD4146E7
:103F7C0009A807F0F5FD40F2022105F6F410ADF8A2
:103F8C00341001A9FEF718F801A8FEF759F85449A6
:103F9C0001A807F0E5FD214605A807F0E1FD214643
:103FAC0009A807F0DDFD4FF4817201A905F6282060
:103FBC00ADF83420FEF700F801A8FEF741F84349AC
:103FCC0001A807F0CDFD514605A807F0C9FD314603
:103FDC0009A84FF4417607F0C3FD01A905F5296046
:103FEC00ADF83460FDF7E8FF01A8FEF729F8494663
:103FFC0001A807F0B5FD514605A807F0B1FD4146F3
:10400C0009A807F0ADFD01A905F6C420ADF8346090
:10401C00FDF7D2FF01A8FEF713F8594601A807F0E7
:10402C009FFD514605A807F09BFD394609A807F0EE
:10403C0097FD40F2063301A905F6F820ADF83430AF
:10404C00FDF7BAFF01A8FDF7FBFF264901A807F011
:10405C0087FD254A05A8114607F082FD214609A8CF
:10406C0007F07EFD40F2022201A905F53660ADF89D
:10407C003420FDF7A1FF01A8FDF7E2FF494601A896
:10408C0007F06EFD194B05A8194607F069FD41466E
:10409C0009A807F065FD40F2052E01A905F694303C
:1040AC00ADF834E0FDF788FF01A8FDF7C9FF4946DC
:1040BC0001A807F055FD0E4905A807F051FD414632
:1040CC001EE000BFD0080020D8080020BC0900204A
:1040DC00A40800208808002094080020C8090020AB
:1040EC00CC090020D0090020B4080020B80800201A
:1040FC00C0080020C009002030090020C40900209D
:10410C0009A807F02DFD4FF4017C01A905F66440C8
:10411C00ADF834C0FDF750FF01A8FDF791FF5946EB
:10412C0001A807F01DFD3A4905A807F019FD39460D
:10413C0009A807F015FD40F2062301A905F69840E1
:10414C00ADF83430FDF738FF01A8FDF779FF3149A0
:10415C0001A807F005FD214605A84FF4417407F0AE
:10416C00FFFC2D4909A807F0FBFC4FF4817301A952
:10417C0005F55060ADF83430FDF71EFF01A8FDF7D2
:10418C005FFF494601A807F0EBFC244905A807F09E
:10419C00E7FC414609A807F0E3FC01A905F63450F9
:1041AC00ADF83440FDF708FF01A8FDF749FF49467B
:1041BC0001A840F2073907F0D3FC194905A807F00C
:1041CC00CFFC414609A807F0CBFC01A905F6046019
:1041DC00ADF83440FDF7F0FE01A8FDF731FF59466C
:1041EC0001A807F0BDFC0E4905A807F0B9FC39463B
:1041FC0009A807F0B5FC01A905F63860ADF83490B4
:10420C00FDF7DAFE01A8FDF71BFF0FB0BDE8F08F3C
:10421C00C0080020D4090020B8090020D0080020D4
:10422C00D80800200E4A4FF0844C116804E0136843
:10423C005B1AB3F5FA7F12D8DCF8000010F480504A
:10424C00F5D04FF0844004E013685B1AB3F5FA7FA5
:10425C0004D80368DB04F7D40120704700207047B2
:10426C006C8801202DE9F043002189B01820944D71
:10427C0007F07EFE00212820924C07F079FE0021E9
:10428C001A20914F07F074FE00211920DFF88C9250
:10429C0007F06EFE0021292040F2EE2807F068FEA0
:1042AC0001210C2007F064FE0121272007F060FE9D
:1042BC0001211B2007F05CFE0121262007F058FE8F
:1042CC0001211C2007F054FE0121252007F050FE8F
:1042DC0001211D2007F04CFE0121242007F048FE8F
:1042EC0001211E2007F044FE0121232007F040FE8F
:1042FC0001211F2007F03CFE0121222007F038FE8F
:10430C000121202007F034FE0121212007F030FE8E
:10431C000121084607F02CFE0121002007F028FEA1
:10432C000121022007F024FE0121172007F020FEB6
:10433C0000210E2007F01CFE00210F2007F018FEB4
:10434C000021102007F014FE0021112007F010FEB0
:10435C000021122007F00CFE0021132007F008FEAC
:10436C000021142007F004FE0021152007F000FEA8
:10437C0001210B2007F0FCFD01210A2007F0F8FDBC
:10438C000121092007F0F4FD0121082007F0F0FDC0
:10439C000121072007F0ECFD0121062007F0E8FDC4
:1043AC000121052007F0E4FD0121042007F0E0FDC8
:1043BC000121032007F0DCFD4FF40062434944481F
:1043CC0007F016FE4FF400624249434807F010FE16
:1043DC004FF400624149424807F00AFE4FF4006274
:1043EC004049414807F004FE4FF400623F49404801
:1043FC0007F0FEFD4FF400623E493F4807F0F8FD20
:10440C002E6809F033F82378002B3ED03B78DB077D
:10441C003BD52B68D9F800209B1A0E2B35D941F2CD
:10442C008831364807F040FB3549684607F098FB61
:10443C00694604A807F03AFB324904A807F02CFCA3
:10444C0001462E4807F0EAFA2C4807F00DFB04A8A9
:10445C0007F04AFB684607F047FBFFF7E3FE08BB93
:10446C0029480124294B03220470462128481A703C
:10447C0008F07EFF214807F0F7FA264B00221A704D
:10448C0009B0BDE8F043FDF7E9BD2B6822789B1B12
:10449C002AB1B3F5FA6FC2D808F0E8FFB1E743458B
:1044AC00FAD9BCE70023194A174C46211A48237045
:1044BC00137008F05DFF114807F0D6FADDE700BF76
:1044CC006C880120AF880120AE8801205013002099
:1044DC00F0230120501B0020F02B01205023002042
:1044EC00F0330120502B0020F03B012050330020F2
:1044FC00F0430120503B0020F04B0120584300209A
:10450C0080100020A8100020664900209888012007
:10451C00B0100020A6880120F81000207C88012013
:10452C00214B1B7803B170474FF0844200B51368E0
:10453C00DB04FCD44FF084421368D804FCD54FF054
:10454C0084421368D904FCD54FEA135CDA0A580B81
:10455C000CF0C00E02F02002590D42EA0E020CF0D3
:10456C00010E00F0100C42EA0C0200F0010CD80C09
:10457C0000F00800024301F0040001F001010243C5
:10458C00C3F38140C3F38073024308480270084AA6
:10459C00084882F800C00370074A084B82F800E014
:1045AC0019705DF804FB00BF664900209A88012051
:1045BC009B8801209D8801209E8801209C880120D9
:1045CC00B0F5806F2DE9F04F3CD3A0F58063B3F5C7
:1045DC00006F55D3A0F5406294B2B4F5344F31D38B
:1045EC00002900F01881B34C94F80080B8F1010F49
:1045FC0040F04F81B04A4FF0010800211080B3F514
:10460C00006F11D3A0F54062B2F5A05FC0F0358108
:10461C00A0F50053B3F5804FC0F02F81A0F5C04337
:10462C00B3F5C04FC0F02981A44B0022B8F1010FA3
:10463C001A702FD071B34FF084434FF00052C3F86F
:10464C00842027E09E4B1A78012A06D99B4A012127
:10465C009C4B1170185CBDE8F08F964A92F8008064
:10466C00002940F0DE800021934AB0F5806F108065
:10467C0080F01D811B78012BD6D9934B1C786CE0F4
:10468C00002940F03D818B4B8B4C8C4A93F8008079
:10469C00208011708C4B1C784CB94FF084421368FD
:1046AC00DE04FCD44FF084421368DD04FCD5874E45
:1046BC004FF0844C02238202850AC6F8843002F043
:1046CC000072DCF8001005F00C07814B05F01005AA
:1046DC000B40C10643EAC073134382003B4301F015
:1046EC00805702F4805201F000413B43CCF800307B
:1046FC00030537680CF5004C03F000531A43754B57
:10470C003B4007041A43430507F4002E07F48027A7
:10471C0003F080531343420302F480221A438303B1
:10472C0042EA0E0203F480033260420406F50046AE
:10473C0002F400021343DCF8002022F44402134379
:10474C00654A3B43CCF80030030903F080032B434C
:10475C0035682A4013430B433360604D4FF084425D
:10476C00DFF884E1DFF888C15D4F5E4ED4B12B7861
:10477C00012BFBD0B8F1010F05D04FF084434FF063
:10478C000052C3F88820B0F5404F5DD0B0F5806F73
:10479C0052D3A0F58063B3F5006F47D2494B185C38
:1047AC00BDE8F08F1368D904FCD41368DB04FCD586
:1047BC001368D904FCD54FEA135AD90A4FEA533976
:1047CC000AF0C00B01F020010AF0010A41EA0B01CA
:1047DC0087F800A009F0100A09F0010941EA0A0A59
:1047EC00D90C8CF800904FEA535901F0080109F0EC
:1047FC00040B09F001094AEA0101C3F3814AC3F32E
:10480C00807386F8009041EA0B012B7041EA0A0193
:10481C008EF80010ACE7284C264B208093F80080D3
:10482C00F2E6B8F1010F7FF41FAF1CE7A0F540636F
:10483C009BB2B3F5344F03D2214B1B78002BADD177
:10484C00294B1878BDE8F08F2849274B0A78B2B964
:10485C001A78882AF5D101220A700A78032AF0D135
:10486C001878B02818D0B12844D0B22855D11448A3
:10487C000224002204700A70E3E7114BFAE6012AC5
:10488C000FD0022AEAD11A78882ADAD103220A70C8
:10489C00D7E7094B1880B7E6002209480A70027066
:1048AC00CFE71A78952AD8D102220A70C9E7A0F569
:1048BC008063A4E6A688012088880120A1880120B5
:1048CC0098880120F05300206649002000400042E7
:1048DC00F3FFFF6DFFEFF3CF6FFFFF7F9D8801208C
:1048EC009E8801209C8801209A880120A78801209D
:1048FC009B8801200C480124002204700A70A0E758
:10490C000A4A92F80080B8F1010F3FF473AE0849DF
:10491C000022084B08801A708DE6B32891D1024C06
:10492C000020227008708CE798880120A68801204E
:10493C0088880120A1880120B0F5404FF8B501D23C
:10494C00774B1954B0F5806FC0F0AD80A0F5806343
:10495C00B3F5006F06D3A0F540639BB2B3F5344FAB
:10496C00C0F0A1806F4B1B784BB94FF08442136899
:10497C00DF04FCD44FF084421368DE04FCD56A4C8F
:10498C004FF0844602234FEA902E4FEAC06CC4F8D5
:10499C0088300EF00C0532680EF0100E634B13408D
:1049AC00820243EAC07302F00072134382002B436D
:1049BC000CF0805502F480520CF0004C2B43336009
:1049CC0003052568060403F0005306F4002706F4DB
:1049DC0080261343564A2A40564D1343420502F093
:1049EC0080521A43430303F48023134382033B4353
:1049FC00470402F480022360030907F4000003F06B
:104A0C0080030243286843EA0E0320F44400024367
:104A1C00494832432A60494A05682A40CD0743EA8F
:104A2C00020343EA0C0303604FF0040344D48807E9
:104A3C00C4F888304FF001023B4B44D54F07C3F804
:104A4C008420394B4FF4006244D50E07C3F8842000
:104A5C00354B4FF4803244D5CD06C3F88420324B0D
:104A6C004FF4003244D58C06C3F884202E4B4FF4FF
:104A7C00806244D54806C3F884202F4B4FF48072D3
:104A8C0044D5C909C3F884202B4B4FF0400244D0C5
:104A9C00C3F88420284C2025C4F88850FFF740FD2B
:104AAC00C4F88450F8BD264B1B78022B7FF65AAF06
:104ABC00244B01221A70F8BD8807C4F884304FF0DB
:104ACC000102194BBAD44F07C3F88820164B4FF488
:104ADC000062BAD40E07C3F88820134B4FF480320F
:104AEC00BAD4CD06C3F888200F4B4FF40032BAD499
:104AFC008C06C3F888200C4B4FF48062BAD448065D
:104B0C00C3F888200C4B4FF48072BAD4C909C3F88F
:104B1C008820094B4FF04002BAD1C3F88820B9E77E
:104B2C00F05300206649002000400042F3FFFF6D67
:104B3C00FFEFF3CF0080004200C000426FFFFF7F09
:104B4C0098880120A1880120084A0106137807D40F
:104B5C0003F07F03137028B943F0020313707047FE
:104B6C0043F0800303F0FD03137070476849002085
:104B7C0008B5044B00211B88184480B2FFF720FDB8
:104B8C0008BD00BF8C88012008B5074B0021188890
:104B9C00013080B2FFF714FD044B80B20021188065
:104BAC00FFF70EFD08BD00BF8C8801208A8801200C
:104BBC0010B50C4C00212088013080B2FFF700FDAD
:104BCC00238804460021581C80B2FFF7F9FC064AE2
:104BDC00064B00211278A018C0B21880FFF7F0FC29
:104BEC0010BD00BF8C880120A48801208A88012078
:104BFC0010B50C4C00212088013080B2FFF7E0FC8E
:104C0C00238804460021581C80B2FFF7D9FC064AC1
:104C1C00064B00211278A018C0B21880FFF7D0FC08
:104C2C0010BD00BF8C880120A58801208A88012036
:104C3C0010B50B4C00212088013080B2FFF7C0FC6E
:104C4C00238804460021981C80B2FFF7B9FC054B61
:104C5C0004EB0020002180B21880FFF7B1FC10BDDE
:104C6C008C8801208A880120F8B5144C0646002156
:104C7C00134D2388581C80B2FFF7A2FC23880746EB
:104C8C000021981C80B2FFF79BFC0E4B0002002108
:104C9C001B7884B23B44234498B22880FFF790FCE5
:104CAC00012E00D0F8BD2B885C4014F47F4FF9D056
:104CBC0000211846FFF784FCF8BD00BF8C8801204A
:104CCC008A880120A4880120F8B5144C06460021DE
:104CDC00134D2388581C80B2FFF772FC23880746BB
:104CEC000021981C80B2FFF76BFC0E4B00020021D8
:104CFC001B7884B23B44234498B22880FFF760FCB5
:104D0C00012E00D0F8BD2B885C4014F47F4FF9D0F5
:104D1C0000211846FFF754FCF8BD00BF8C88012019
:104D2C008A880120A588012038B5114B00211888EC
:104D3C00013080B2FFF744FC0E4B00211C78044478
:104D4C00A4B22046FFF73CFC0021E0B20134FFF78F
:104D5C0037FC05460021E0B2FFF732FC064B05EBB1
:104D6C000020002180B21880FFF72AFC38BD00BF5C
:104D7C008C880120A48801208A880120F8B5164B64
:104D8C0005460021154E1B88581C80B2FFF718FCF5
:104D9C00002184B220460134FFF712FC00210746A3
:104DAC00E0B2FFF70DFC0E4B000200211B7884B221
:104DBC003B44234498B23080FFF702FC012D00D015
:104DCC00F8BD33885C4014F47F4FF9D000211846AD
:104DDC00FFF7F6FBF8BD00BF8C8801208A88012004
:104DEC00A588012070B50C4E054600210B4C33886C
:104DFC00581C80B2FFF7E4FB338820800021981CFC
:104E0C0080B2FFF7DDFB2388294603EB002080B23C
:104E1C002080FFF791FD70BD8C8801208A880120CD
:104E2C0038B50B4B044600210A4D1B88581C80B228
:104E3C00FFF7C6FB002180B22880FFF7C1FB064AB2
:104E4C0021462B8810781844C0B2FFF775FD38BD89
:104E5C008C8801208A880120A488012038B50B4B4E
:104E6C00044600210A4D1B88581C80B2FFF7A8FB92
:104E7C00002180B22880FFF7A3FB064A21462B882D
:104E8C0010781844C0B2FFF757FD38BD8C8801204C
:104E9C008A880120A588012070B50F4D0446002199
:104EAC000E4E2B88581C80B2FFF78AFB2B880546C8
:104EBC000021981C80B2FFF783FB094B00211B7863
:104ECC002B4403EB002398B23080FFF779FB21468B
:104EDC003088FFF731FD70BD8C8801208A88012055
:104EEC00A4880120F8B5164C06460021154D2388E0
:104EFC00581C80B2FFF764FB238807460021981CDE
:104F0C0080B2FFF75DFB104B040200211B78A4B2AA
:104F1C003B44234498B22880FFF752FB2888444036
:104F2C0014F47F4F03D13146FFF706FDF8BD002185
:104F3C00FFF746FB28883146FFF7FEFCF8BD00BFA3
:104F4C008C8801208A880120A5880120F8B5134B94
:104F5C0006460021124F1B88581C80B2FFF730FB0D
:104F6C00002185B204462846FFF72AFB3B78002136
:104F7C001C44E0B2FFF724FB3B78044600210133CC
:104F8C001D44E8B2FFF71CFB064B04EB0020314636
:104F9C0080B21880FFF7D0FCF8BD00BF8C880120D0
:104FAC00A48801208A880120F8B5114B0546002100
:104FBC00104F1B88581C80B2FFF702FB002184B2F3
:104FCC0020460134FFF7FCFA00210646A0B2FFF799
:104FDC00F7FA094B00211B78334403EB002398B2FA
:104FEC003880FFF7EDFA29463888FFF7A5FCF8BDA5
:104FFC008C8801208A880120A588012070B5654B1A
:10500C002022654D02206549654CC1F884000021C1
:10501C00C3F884202888FFF7D3FA288800210130B0
:10502C0080B2FFF7CDFA2078002140F48070FFF7B2
:10503C00C7FA2078002140F48070013880B2FFF765
:10504C00BFFA2078002140F48070023880B2FFF75C
:10505C00B7FA00214FF6FC70FFF7B2FA04460021B4
:10506C004FF6FD70FFF7ACFA4E4A44EA00203421AB
:10507C004D4B80B21170B0F5806F288018807BD3B7
:10508C00A0F58063B3F5006F09D3A0F54063B3F5C9
:10509C00A84F71D3A0F5C043B3F5C04F6CD3434BAD
:1050AC000021434A1B781170012B05D04FF084432B
:1050BC004FF00052C3F884203E4B1B784BB94FF095
:1050CC0084421368D904FCD44FF084421368DB0487
:1050DC00FCD5324E4FF084450223840AC106C6F833
:1050EC0084304FEA004C2A68334B0CF4002E1340EA
:1050FC00820243EAC07302F00072134304F00C0204
:10510C0004F01004134301F0805201F000411343EA
:10511C0002052B60830002F00052356803F48053C3
:10512C001343264A2A40264D1343420502F080526F
:10513C001A43430303F480231343820343EA0E030D
:10514C0002F4800233600CF480264FEA404C0309D1
:10515C000CF4000003F0800302432868234320F47E
:10516C00440002430B4832432A60164A046822402A
:10517C0013430B43036003E0134B1B78012B8ED9B5
:10518C001021124808F0F4F81148BDE8704006F000
:10519C006BBC00BF00C000428C8801200040004264
:1051AC00694900206849002088880120A6880120D0
:1051BC00A188012066490020F3FFFF6DFFEFF3CFBC
:1051CC00008000426FFFFF7F98880120CC030020F5
:1051DC005843002070B5674EFFF7A2F9664C0021CA
:1051EC003378208823F01003644D013043F0200302
:1051FC0080B23370FFF7E4F92878218840F480708E
:10520C00090AFFF799FB287821780138C0B2287079
:10521C0040F48070FFF790FB287831780138C0B2E9
:10522C00287040F48070FFF787FB2B7800214FF635
:10523C00FA70013B2B70FFF7C3F9054600214FF6BE
:10524C00FB70FFF7BDF9337845EA00204C4A43F078
:10525C00340380B23370B0F5806F208010807BD324
:10526C00A0F58063B3F5006F09D3A0F54063B3F5E7
:10527C00A84F71D3A0F5C043B3F5C04F6CD3414BCD
:10528C000021414A1B781170012B05D04FF084434B
:10529C004FF00052C3F884203C4B1B784BB94FF0B5
:1052AC0084421368D904FCD44FF084421368DB04A5
:1052BC00FCD5374E4FF084450223840AC106C6F84C
:1052CC0084304FEA004C2A68324B0CF4002E134009
:1052DC00820243EAC07302F00072134304F00C0222
:1052EC0004F01004134301F0805201F00041134309
:1052FC0002052B60830002F00052356803F48053E2
:10530C001343254A2A40254D1343420502F080528F
:10531C001A43430303F480231343820343EA0E032B
:10532C0002F4800233600CF480264FEA404C0309EF
:10533C000CF4000003F0800302432868234320F49C
:10534C0044000243164832432A60164A046822403D
:10535C0013430B43036003E0134B1B78012B8ED9D3
:10536C000E21124808F004F81148BDE8704006F010
:10537C007BBB00BF684900208C8801206949002054
:10538C0088880120A6880120A18801206649002078
:10539C0000400042F3FFFF6DFFEFF3CF00800042AF
:1053AC0000C000426FFFFF7F988801208803002017
:1053BC005843002070B50446694EFFF7B1F8012C34
:1053CC00337800F0CA8023F0100343F02003654CBF
:1053DC000021654D20883370013080B2FFF7F0F862
:1053EC002878218840F48070090AFFF7A5FA2878FC
:1053FC0021780138C0B2287040F48070FFF79CFA15
:10540C00287831780138C0B2287040F48070FFF7EA
:10541C0093FA2B7800214FF6FE70013B2B70FFF7AF
:10542C00CFF8054600214FF6FF70FFF7C9F8337827
:10543C0045EA00204D4A43F0340380B23370B0F596
:10544C00806F208010807BD3A0F58063B3F5006F54
:10545C0009D3A0F54063B3F5A84F71D3A0F5C043B1
:10546C00B3F5C04F6CD3424B0021424A1B781170EC
:10547C00012B05D04FF084434FF00052C3F8842029
:10548C003D4B1B784BB94FF084421368D904FCD4C4
:10549C004FF084421368DB04FCD5384E4FF0844542
:1054AC000223840AC106C6F884304FEA004C2A68ED
:1054BC00334B0CF4002E1340820243EAC07302F00B
:1054CC000072134304F00C0204F01004134301F0B7
:1054DC00805201F00041134302052B60830002F05F
:1054EC000052356803F480531343264A2A40264D54
:1054FC001343420502F080521A43430303F4802302
:10550C001343820343EA0E0302F4800233600CF46B
:10551C0080264FEA404C03090CF4000003F0800392
:10552C0002432868234320F44400024317483243C3
:10553C002A60174A0468224013430B43036003E0BC
:10554C00144B1B78012B8ED90E21134807F010FF3A
:10555C001248BDE8704006F087BA43F0300336E7D6
:10556C00684900208C880120694900208888012026
:10557C00A6880120A1880120664900200040004235
:10558C00F3FFFF6DFFEFF3CF0080004200C000423D
:10559C006FFFFF7F9888012078030020584300207C
:1055AC0010B5144C00212088FFF70AF81249134853
:1055BC000A7891F900305200002B0378D2B2B4BFB4
:1055CC0043F0010303F0FE030A7011060DD403F03F
:1055DC007F0303705AB943F0020309492288037010
:1055EC0091F83902104480B210BD43F0800303F0EF
:1055FC00FD03F2E78C880120A38801206849002074
:10560C001854012010B5114C00212088FEF7D8FF4A
:10561C000F48104902780B7812F0010F4FEA520232
:10562C0014BF43F0010303F0FE0302705AB903F0F8
:10563C007F0343F002030848228890F8390F0B705F
:10564C00104480B210BD03F07D03F4E78C88012078
:10565C00A3880120684900201854012010B5154C6E
:10566C0000212088FEF7ACFF134914480B7890F802
:10567C0000C0DA011CF0010FD2B214BF43F00103D9
:10568C0003F0FE0342EA5C02027010060CD403F035
:10569C007F035AB943F002030948228890F8B905F0
:1056AC000B70104480B210BD43F0800303F0FD0377
:1056BC00F2E700BF8C88012068490020A3880120F4
:1056CC001864012010B5164C00212088FEF778FFD5
:1056DC0014481549037891F800C003F0010291F9C0
:1056EC0000E042EA4C02BEF1000FD2B2B4BF43F06C
:1056FC00010303F0FE030A7011060CD403F07F03C0
:10570C005AB943F0020309492288037091F8B90889
:10571C00104480B210BD43F0800303F0FD03F2E7A8
:10572C008C88012068490020A3880120185401208E
:10573C0070B52F4C2F49227891F800C0160732D53E
:10574C0002F0010E0CF00F0300F00F0573442B4414
:10575C00092B23D84FF0000E0CF0F00500F0F006EA
:10576C003544AE44BEF1900F38D802F0FE027344BB
:10577C00DBB24FFA8CFC4FFA80FEBCF1000FD8B2B2
:10578C0020DBBEF1000F1ADB1D061FD402F0BF0296
:10579C0008702270BDE87040FFF7D6B90A3B4FF095
:1057AC00100E9BB2D8E702F00103034463449BB292
:1057BC00FF2B8CBF42F0010202F0FE02D9E7BCF1D4
:1057CC00000FE3DA63EA0E031B06DFD442F040025B
:1057DC0008702270BDE87040FFF7B6B9AEF1A00EAC
:1057EC0022F001021FFA8EFE42F00102BFE700BF59
:1057FC0068490020A388012010B5084C002120889E
:10580C00013080B2FEF7DCFE80B2FFF791FF044A54
:10581C00238892F88505184480B210BD8C8801202D
:10582C001864012010B50B4C00212088013080B287
:10583C00FEF7C6FE084B80B200211880FEF7C0FEB2
:10584C0080B2FFF775FF054A238892F8B504184417
:10585C0080B210BD8C8801208A8801201864012038
:10586C0008B5FFF7A5F980B2FFF762FF034A044BB6
:10587C0092F8F5071B88184480B208BD1864012003
:10588C008C88012008B5FFF7D3F980B2FFF750FFE1
:10589C00034A044B92F855061B88184480B208BD85
:1058AC00186401208C88012008B50120FFF7DCF971
:1058BC0080B2FFF73DFF044A044B92F895091B8810
:1058CC00184480B208BD00BF186401208C880120E8
:1058DC0008B50120FFF7F8F980B2FFF729FF044A59
:1058EC00044B92F8C5081B88184480B208BD00BF51
:1058FC00186401208C88012008B5FFF715FA80B2D6
:10590C00FFF716FF034A044B92F8E5031B88184473
:10591C0080B208BD186401208C88012008B50120D4
:10592C00FFF72CFA80B2FFF703FF044A044B92F8FE
:10593C0025071B88184480B208BD00BF18640120DD
:10594C008C88012070B5324C32492378DA431E071B
:10595C0002F0010239D500F00F0C91F800E062441E
:10596C000EF00F0CACEB020C1FFA8CFCBCF1090F07
:10597C0025D800250EF0F00200F0F006921B521B09
:10598C0092B2902A3FD823F0010343F001039444D0
:10599C005FFA8CFC4FFA8EFE42B2BEF1000F5FFA3A
:1059AC008CF024DB002A1FDA1CF0800F23D103F0CB
:1059BC00BF0308702370BDE87040FFF7C5B80CF149
:1059CC000A0C10251FFA8CFCD4E791F800E0AEEB22
:1059DC00000CACEB020215041FFA82FC54BF43F01E
:1059EC00010303F0FE03D5E7BEF1000FDFDA42EA54
:1059FC000C021206DBD443F0400308702370BDE8A0
:105A0C007040FFF7A1B8A03203F0FE0392B2BEE7DC
:105A1C0068490020A388012010B5084C002120887B
:105A2C00013080B2FEF7CCFD80B2FFF78BFF044A49
:105A3C00238892F8850F184480B210BD8C88012001
:105A4C001874012010B50B4C00212088013080B255
:105A5C00FEF7B6FD084B80B200211880FEF7B0FDB2
:105A6C0080B2FFF76FFF054A238892F8B50E1844F1
:105A7C0080B210BD8C8801208A8801201874012006
:105A8C0008B5FFF795F880B2FFF75CFF034A044BAB
:105A9C0092F8F5011B88184480B208BD18840120C7
:105AAC008C88012008B5FFF7C3F880B2FFF74AFFD6
:105ABC00034A044B92F855001B88184480B208BD69
:105ACC00188401208C88012008B50120FFF7CCF840
:105ADC0080B2FFF737FF044A044B92F895031B88FA
:105AEC00184480B208BD00BF188401208C880120A6
:105AFC0008B50120FFF7E8F880B2FFF723FF044A4E
:105B0C00044B92F8C5021B88184480B208BD00BF34
:105B1C00188401208C88012008B5FFF705F980B2A4
:105B2C00FFF710FF034A044B92F8E50D1B8818444D
:105B3C0080B208BD187401208C88012008B50120A2
:105B4C00FFF71CF980B2FFF7FDFE044A044B92F8F4
:105B5C0025011B88184480B208BD00BF18840120A1
:105B6C008C88012010B5074C00212088013080B2B0
:105B7C00FEF726FD044A238892F8B90F184480B228
:105B8C0010BD00BF8C8801201874012010B5094C81
:105B9C0000212088013080B2FEF712FD064A07482A
:105BAC001378218890F8110523F001030844137031
:105BBC0080B210BD8C880120684900201854012047
:105BCC0010B5094C00212088013080B2FEF7F8FC9A
:105BDC00064A07481378218890F8110C23F0080323
:105BEC000844137080B210BD8C88012068490020D5
:105BFC001874012010B5094C00212088013080B2A6
:105C0C00FEF7DEFC064A07481378218890F811024B
:105C1C0023F004030844137080B210BD8C8801205B
:105C2C00684900201864012010B5094C0021208817
:105C3C00013080B2FEF7C4FC064A0748137821886D
:105C4C0090F8910523F040030844137080B210BD06
:105C5C008C880120684900201874012010B5094C6B
:105C6C0000212088013080B2FEF7AAFC064A0748C2
:105C7C001378218890F8910B43F0010308441370BA
:105C8C0080B210BD8C880120684900201854012076
:105C9C0010B5094C00212088013080B2FEF790FC31
:105CAC00064A07481378218890F8910843F00403BA
:105CBC000844137080B210BD8C8801206849002004
:105CCC001864012010B5094C00212088013080B2E5
:105CDC00FEF776FC064A07481378218890F8910263
:105CEC0043F008030844137080B210BD8C88012067
:105CFC00684900201884012010B5114C002120881F
:105D0C00013080B2FEF75CFC0E4A0F491378013B60
:105D1C00DBB2180613700A780DD402F07F020A70F9
:105D2C005BB942F002020948238890F839090A70DD
:105D3C00184480B210BD42F0800202F0FD02F2E77E
:105D4C008C880120A4880120684900201874012047
:105D5C0010B5114C00212088013080B2FEF730FCC8
:105D6C000E4A0F491378013BDBB2180613700A7800
:105D7C000DD402F07F020A705BB942F002020948AE
:105D8C00238890F8D10B0A70184480B210BD42F0F1
:105D9C00800202F0FD02F2E78C880120A588012028
:105DAC00684900201864012010B5114C002120888E
:105DBC00013080B2FEF704FC0E4A0F491378013310
:105DCC00DBB2180613700A780DD402F07F020A7049
:105DDC005BB942F002020948238890F8510F0A700F
:105DEC00184480B210BD42F0800202F0FD02F2E7CE
:105DFC008C880120A4880120684900201874012097
:105E0C0010B5114C00212088013080B2FEF7D8FB70
:105E1C000E4A0F4913780133DBB2180613700A7857
:105E2C000DD402F07F020A705BB942F002020948FD
:105E3C00238890F8D1080A70184480B210BD42F043
:105E4C00800202F0FD02F2E78C880120A588012077
:105E5C00684900201874012010B5114C00212088CD
:105E6C00013080B2FEF7ACFB0E4A0F4B11780F4A93
:105E7C000806197013780DD403F07F03137059B909
:105E8C0043F002030A48218890F8B90213700844C1
:105E9C0080B210BD43F0800303F0FD03F2E700BFB6
:105EAC008C880120A3880120A48801206849002047
:105EBC001874012010B5114C00212088013080B2DB
:105ECC00FEF77EFB0E4A0F4B11780F4A080619702D
:105EDC0013780DD403F07F03137059B943F0020308
:105EEC000A48218890F851021370084480B210BD02
:105EFC0043F0800303F0FD03F2E700BF8C88012020
:105F0C00A3880120A588012068490020187401206D
:105F1C0010B5114C00212088013080B2FEF750FBE7
:105F2C000E4A0F4B11780F4A0806197013780DD4CE
:105F3C0003F07F03137059B943F002030A48218818
:105F4C0090F8F9051370084480B210BD43F080033B
:105F5C0003F0FD03F2E700BF8C88012069490020A3
:105F6C00A4880120684900201874012010B5114C38
:105F7C0000212088013080B2FEF722FB0E4A0F4B25
:105F8C0011780F4A0806197013780DD403F07F03AB
:105F9C00137059B943F002030A48218890F8390C60
:105FAC001370084480B210BD43F0800303F0FD036E
:105FBC00F2E700BF8C880120A4880120A38801206F
:105FCC00684900201864012010B5094C0021208874
:105FDC00013080B2FEF7F4FA064B218893F8790F62
:105FEC00054A064B0844127880B21A7010BD00BFE7
:105FFC008C88012018640120A488012069490020A4
:10600C0010B5114C00212088013080B2FEF7D8FA6F
:10601C000E4A0F4B11780F4A0806197013780DD4DD
:10602C0003F07F03137059B943F002030A48218827
:10603C0090F8110F1370084480B210BD43F0800328
:10604C0003F0FD03F2E700BF8C880120A588012036
:10605C00A3880120684900201864012038B50D4D33
:10606C0000210D4C2888013080B2FEF7A9FA0B4BA9
:10607C002078197840F4807041F03001FEF75CFC18
:10608C00074923782A8891F8D101013B10442370E9
:10609C0080B238BD8C8801206949002068490020F5
:1060AC001854012038B50C4D00210C4C28880130B7
:1060BC0080B2FEF785FA2078094B40F4807019788D
:1060CC00FEF73AFC074923782A8891F8D10E013B58
:1060DC001044237080B238BD8C880120694900209F
:1060EC00A38801201854012038B5114D0021114C02
:1060FC002888013080B2FEF763FA2078002140F442
:10610C008070FEF75DFA237800210133DBB243F493
:10611C0080702370FEF754FA074B2A8840F0300049
:10612C00064993F851380870981880B238BD00BFF2
:10613C008C880120694900201854012068490020EE
:10614C0038B5184C0021184D2088013080B2FEF76C
:10615C0037FA2878002140F48070FEF731FA2B785A
:10616C0000210133DBB243F480702B70FEF728FA68
:10617C000E4B0F4A0106187013780DD403F07F03F1
:10618C00137058B943F002030A48218890F851055E
:10619C001370084480B238BD43F0800303F0FD0354
:1061AC00F2E700BF8C88012069490020A3880120F8
:1061BC00684900201864012010B5114C002120887A
:1061CC00013080B2FEF7FCF90E4B1A7810400E4AE3
:1061DC000106187013780DD403F07F03137058B9AF
:1061EC0043F002030948218890F88508137008448D
:1061FC0080B210BD43F0800303F0FD03F2E700BF53
:10620C008C880120A38801206849002018540120A3
:10621C0010B5144C00212088013080B2FEF7D0F963
:10622C00114B80B200211880FEF7CAF90F4B1A7877
:10623C0010400F4A0106187013780DD403F07F0339
:10624C00137058B943F002030A48218890F8B50737
:10625C001370084480B210BD43F0800303F0FD03BB
:10626C00F2E700BF8C8801208A880120A3880120D6
:10627C00684900201854012008B5FEF799FC0E4B14
:10628C001A7810400D4A0106187013780ED403F0DA
:10629C007F03137060B943F0020309490948137076
:1062AC0090F8F50A0B88184480B208BD43F08003BF
:1062BC0003F0FD03F1E700BFA3880120684900202B
:1062CC008C8801201854012008B5FEF7B1FC0E4B48
:1062DC001A7810400D4A0106187013780ED403F08A
:1062EC007F03137060B943F0020309490948137026
:1062FC0090F855090B88184480B208BD43F0800310
:10630C0003F0FD03F1E700BFA388012068490020DA
:10631C008C8801201854012008B50120FEF7A4FC3C
:10632C000D4B1A7810400D4A0106187013780ED4D4
:10633C0003F07F03137060B943F002030849094866
:10634C00137090F8950C0B88184480B208BD43F07C
:10635C00800303F0FD03F1E7A388012068490020C6
:10636C008C8801201854012008B50120FEF7ACFCE4
:10637C000D4B1A7810400D4A0106187013780ED484
:10638C0003F07F03137060B943F002030849094816
:10639C00137090F8C50B0B88184480B208BD43F0FD
:1063AC00800303F0FD03F1E7A38801206849002076
:1063BC008C8801201854012008B5FEF7B5FC0E4B53
:1063CC001A7810400D4A0106187013780ED403F099
:1063DC007F03137060B943F0020309490948137035
:1063EC0090F8E5060B88184480B208BD43F0800392
:1063FC0003F0FD03F1E700BFA388012068490020EA
:10640C008C8801201854012008B50120FEF7B6FC39
:10641C000D4B1A7810400D4A0106187013780ED4E3
:10642C0003F07F03137060B943F002030849094875
:10643C00137090F8250A0B88184480B208BD43F0FD
:10644C00800303F0FD03F1E7A388012068490020D5
:10645C008C8801201854012010B5114C0021208883
:10646C00013080B2FEF7ACF80E4B1A7810430E4A8E
:10647C00C0B20106187013780DD403F07F031370AB
:10648C0058B943F002030948218890F805021370AB
:10649C00084480B210BD43F0800303F0FD03F2E723
:1064AC008C880120A3880120684900201854012001
:1064BC0010B5144C00212088013080B2FEF780F812
:1064CC00114B80B200211880FEF77AF80F4B1A7826
:1064DC0010430F4AC0B20106187013780DD403F0A4
:1064EC007F03137058B943F002030A48218890F8CF
:1064FC0035011370084480B210BD43F0800303F0E3
:10650C00FD03F2E78C8801208A880120A3880120F2
:10651C00684900201854012008B5FEF749FB0E4BC2
:10652C001A7810430D4AC0B20106187013780ED4B5
:10653C0003F07F03137060B943F002030849094864
:10654C00137090F875040B88184480B208BD43F0A2
:10655C00800303F0FD03F1E7A388012068490020C4
:10656C008C8801201854012008B5FEF761FB0E4BF6
:10657C001A7810430D4AC0B20106187013780ED465
:10658C0003F07F03137060B943F002030849094814
:10659C00137090F8D5020B88184480B208BD43F0F4
:1065AC00800303F0FD03F1E7A38801206849002074
:1065BC008C8801201854012008B50120FEF754FBEB
:1065CC000E4B1A7810430E4AC0B20106187013789D
:1065DC000ED403F07F03137060B943F00203094932
:1065EC000948137090F815060B88184480B208BD42
:1065FC0043F0800303F0FD03F1E700BFA388012003
:10660C00684900208C8801201854012008B501200D
:10661C00FEF75AFB0E4B1A7810430E4AC0B2010615
:10662C00187013780ED403F07F03137060B943F025
:10663C00020309490948137090F845050B88184462
:10664C0080B208BD43F0800303F0FD03F1E700BF07
:10665C00A3880120684900208C880120185401204F
:10666C0008B5FEF761FB0E4B1A7810430D4AC0B209
:10667C000106187013780ED403F07F03137060B901
:10668C0043F0020308490948137090F865000B8821
:10669C00184480B208BD43F0800303F0FD03F1E71A
:1066AC00A3880120684900208C88012018540120FF
:1066BC0008B50120FEF762FB0E4B1A7810430E4A08
:1066CC00C0B20106187013780ED403F07F03137058
:1066DC0060B943F0020309490948137090F8A50307
:1066EC000B88184480B208BD43F0800303F0FD030F
:1066FC00F1E700BFA3880120684900208C880120A5
:10670C001854012010B5124C00212088013080B2A1
:10671C00FDF756FF0F4A117881EA0003DBB21370C4
:10672C0013F0800F0C4A137814BF43F0800303F06E
:10673C007F0381420948218890F8050F0CBF43F074
:10674C00020303F0FD030844137080B210BD00BFB8
:10675C008C880120A388012068490020185401204E
:10676C0010B5154C00212088013080B2FDF728FFB0
:10677C00124B80B200211880FDF722FF104A1178CD
:10678C0081EA0003DBB2137013F0800F0D4A13780B
:10679C0014BF43F0800303F07F0381420A48218831
:1067AC0090F8350E0CBF43F0020303F0FD030844D0
:1067BC00137080B210BD00BF8C8801208A88012024
:1067CC00A3880120684900201854012008B5FEF761
:1067DC00EFF90F4A117880EA0103DBB2137013F062
:1067EC00800F0C4A137814BF43F0800303F07F032F
:1067FC008842094909480CBF43F0020303F0FD032A
:10680C0090F8750113700B88184480B208BD00BF56
:10681C00A3880120684900208C880120186401207D
:10682C0008B5FEF705FA0F4A117880EA0103DBB2CE
:10683C00137013F0800F0C4A137814BF43F08003CD
:10684C0003F07F038842094909480CBF43F0020357
:10685C0003F0FD0390F8D50F13700B88184480B229
:10686C0008BD00BFA3880120684900208C88012046
:10687C001854012008B50120FEF7F6F90E4A1178DC
:10688C0080EA0103DBB2137013F0800F0B4A13780C
:10689C0014BF43F0800303F07F0388420849094882
:1068AC000CBF43F0020303F0FD0390F815031370C3
:1068BC000B88184480B208BDA388012068490020C9
:1068CC008C8801201864012008B50120FEF7FCF922
:1068DC000E4A117880EA0103DBB2137013F0800FBB
:1068EC000B4A137814BF43F0800303F07F038842F4
:1068FC00084909480CBF43F0020303F0FD0390F86C
:10690C00450213700B88184480B208BDA38801207F
:10691C00684900208C8801201864012008B5FEF716
:10692C0003FA0F4A117880EA0103DBB2137013F0FB
:10693C00800F0C4A137814BF43F0800303F07F03DD
:10694C008842094909480CBF43F0020303F0FD03D8
:10695C0090F8650D13700B88184480B208BD00BF09
:10696C00A3880120684900208C880120185401203C
:10697C0008B50120FEF702FA0E4A117880EA0103ED
:10698C00DBB2137013F0800F0B4A137814BF43F073
:10699C00800303F07F038842084909480CBF43F089
:1069AC00020303F0FD0390F8A50013700B88184444
:1069BC0080B208BDA3880120684900208C88012082
:1069CC001864012010B5104C00212088013080B2D1
:1069DC00FDF7F6FD0D4B0E4A0106187013780DD419
:1069EC0003F07F03137058B943F002030948218860
:1069FC0090F885021370084480B210BD43F08003F8
:106A0C0003F0FD03F2E700BF8C880120A38801206E
:106A1C00684900201874012010B5134C00212088FF
:106A2C00013080B2FDF7CCFD104B80B200211880F4
:106A3C00FDF7C6FD0E4B01060E4A187013780DD4E7
:106A4C0003F07F03137058B943F002030A482188FE
:106A5C0090F8B5011370084480B210BD43F0800368
:106A6C0003F0FD03F2E700BF8C8801208A88012027
:106A7C00A3880120684900201874012008B5FEF78E
:106A8C0097F80D4B0D4A0106187013780ED403F0CD
:106A9C007F03137060B943F002030949094813706E
:106AAC0090F8F5040B88184480B208BD43F08003BD
:106ABC0003F0FD03F1E700BFA38801206849002023
:106ACC008C8801201874012008B5FEF7B1F80D4B25
:106ADC000D4A0106187013780ED403F07F0313705F
:106AEC0060B943F0020309490948137090F8550343
:106AFC000B88184480B208BD43F0800303F0FD03FB
:106B0C00F1E700BFA3880120684900208C88012090
:106B1C001874012008B50120FEF7A6F80C4B0D4A9D
:106B2C000106187013780ED403F07F03137060B94C
:106B3C0043F0020308490948137090F895060B8836
:106B4C00184480B208BD43F0800303F0FD03F1E765
:106B5C00A3880120684900208C880120187401202A
:106B6C0008B50120FEF7B0F80C4B0D4A0106187061
:106B7C0013780ED403F07F03137060B943F0020353
:106B8C0008490948137090F8C5050B88184480B261
:106B9C0008BD43F0800303F0FD03F1E7A388012057
:106BAC00684900208C8801201874012008B5FEF774
:106BBC00BBF80D4B0D4A0106187013780ED403F078
:106BCC007F03137060B943F002030949094813703D
:106BDC0090F8E5000B88184480B208BD43F08003A0
:106BEC0003F0FD03F1E700BFA388012068490020F2
:106BFC008C8801201874012008B50120FEF7BEF81E
:106C0C000C4B0D4A0106187013780ED403F07F0359
:106C1C00137060B943F0020308490948137090F8E7
:106C2C0025040B88184480B208BD43F0800303F0A0
:106C3C00FD03F1E7A3880120684900208C8801201E
